{
  "_format": "hh-sol-artifact-1",
  "contractName": "MetaTransactionReceiver",
  "sourceName": "contracts/v2/contracts_common/BaseWithStorage/MetaTransactionReceiver.sol",
  "abi": [
    {
      "constant": true,
      "inputs": [],
      "name": "getAdmin",
      "outputs": [
        {
          "name": "",
          "type": "address"
        }
      ],
      "payable": false,
      "stateMutability": "view",
      "type": "function"
    },
    {
      "constant": false,
      "inputs": [
        {
          "name": "metaTransactionProcessor",
          "type": "address"
        },
        {
          "name": "enabled",
          "type": "bool"
        }
      ],
      "name": "setMetaTransactionProcessor",
      "outputs": [],
      "payable": false,
      "stateMutability": "nonpayable",
      "type": "function"
    },
    {
      "constant": false,
      "inputs": [
        {
          "name": "newAdmin",
          "type": "address"
        }
      ],
      "name": "changeAdmin",
      "outputs": [],
      "payable": false,
      "stateMutability": "nonpayable",
      "type": "function"
    },
    {
      "constant": true,
      "inputs": [
        {
          "name": "who",
          "type": "address"
        }
      ],
      "name": "isMetaTransactionProcessor",
      "outputs": [
        {
          "name": "",
          "type": "bool"
        }
      ],
      "payable": false,
      "stateMutability": "view",
      "type": "function"
    },
    {
      "anonymous": false,
      "inputs": [
        {
          "indexed": false,
          "name": "metaTransactionProcessor",
          "type": "address"
        },
        {
          "indexed": false,
          "name": "enabled",
          "type": "bool"
        }
      ],
      "name": "MetaTransactionProcessor",
      "type": "event"
    },
    {
      "anonymous": false,
      "inputs": [
        {
          "indexed": false,
          "name": "oldAdmin",
          "type": "address"
        },
        {
          "indexed": false,
          "name": "newAdmin",
          "type": "address"
        }
      ],
      "name": "AdminChanged",
      "type": "event"
    }
  ],
  "bytecode": "0x608060405234801561001057600080fd5b50610383806100206000396000f3fe608060405234801561001057600080fd5b506004361061004c5760003560e01c80636e9960c3146100515780638a04af6a146100755780638f283970146100a5578063dc5074af146100cb575b600080fd5b610059610105565b604080516001600160a01b039092168252519081900360200190f35b6100a36004803603604081101561008b57600080fd5b506001600160a01b0381351690602001351515610114565b005b6100a3600480360360208110156100bb57600080fd5b50356001600160a01b0316610185565b6100f1600480360360208110156100e157600080fd5b50356001600160a01b0316610280565b604080519115158252519081900360200190f35b6000546001600160a01b031690565b6000546001600160a01b03163314610177576040517f08c379a000000000000000000000000000000000000000000000000000000000815260040180806020018281038252602e815260200180610321602e913960400191505060405180910390fd5b610181828261029e565b5050565b6000546001600160a01b031633146101fe57604080517f08c379a000000000000000000000000000000000000000000000000000000000815260206004820152601b60248201527f6f6e6c792061646d696e2063616e206368616e67652061646d696e0000000000604482015290519081900360640190fd5b600054604080516001600160a01b039283168152918316602083015280517f7e644d79422f17c01e4894b5f4f588d331ebfa28653d42ae832dc59e38c9798f9281900390910190a1600080547fffffffffffffffffffffffff0000000000000000000000000000000000000000166001600160a01b0392909216919091179055565b6001600160a01b031660009081526001602052604090205460ff1690565b6001600160a01b03821660008181526001602090815260409182902080547fffffffffffffffffffffffffffffffffffffffffffffffffffffffffffffff001685151590811790915582519384529083015280517fb21eb88b4e33b3f1281830a7178d74d8aa73220416215726b68ae23d539515cb9281900390910190a1505056fe6f6e6c792061646d696e2063616e207365747570206d6574615472616e73616374696f6e50726f636573736f7273a265627a7a7230582069a621e5dee53012edb3eade64470cf10ffdca245f29a3f62be5b543c6ef42ea64736f6c63430005090032",
  "linkReferences": {},
  "deployedLinkReferences": {}
}