{
  "contracts/v2/BaseWithStorage/ERC2771Handler.sol": {
    "ERC2771Handler": {
      "abi": [
        {
          "constant": true,
          "inputs": [
            {
              "name": "forwarder",
              "type": "address"
            }
          ],
          "name": "isTrustedForwarder",
          "outputs": [
            {
              "name": "",
              "type": "bool"
            }
          ],
          "payable": false,
          "stateMutability": "view",
          "type": "function"
        },
        {
          "constant": true,
          "inputs": [],
          "name": "getTrustedForwarder",
          "outputs": [
            {
              "name": "trustedForwarder",
              "type": "address"
            }
          ],
          "payable": false,
          "stateMutability": "view",
          "type": "function"
        }
      ],
      "devdoc": {
        "details": "minimal ERC2771 handler to keep bytecode-size down. based on: https://github.com/OpenZeppelin/openzeppelin-contracts/blob/master/contracts/metatx/ERC2771Context.sol",
        "methods": {}
      },
      "evm": {
        "bytecode": {
          "linkReferences": {},
          "object": "608060405234801561001057600080fd5b5061011c806100206000396000f3fe6080604052348015600f57600080fd5b506004361060325760003560e01c8063572b6c05146037578063ce1b815f14607b575b600080fd5b606760048036036020811015604b57600080fd5b503573ffffffffffffffffffffffffffffffffffffffff1660aa565b604080519115158252519081900360200190f35b608160cb565b6040805173ffffffffffffffffffffffffffffffffffffffff9092168252519081900360200190f35b60005473ffffffffffffffffffffffffffffffffffffffff90811691161490565b60005473ffffffffffffffffffffffffffffffffffffffff169056fea265627a7a7230582009ec4f38170183d0a1beb0684a707d346cb28fabd78a22de44e3fa0e7865460364736f6c63430005090032",
          "opcodes": "PUSH1 0x80 PUSH1 0x40 MSTORE CALLVALUE DUP1 ISZERO PUSH2 0x10 JUMPI PUSH1 0x0 DUP1 REVERT JUMPDEST POP PUSH2 0x11C DUP1 PUSH2 0x20 PUSH1 0x0 CODECOPY PUSH1 0x0 RETURN INVALID PUSH1 0x80 PUSH1 0x40 MSTORE CALLVALUE DUP1 ISZERO PUSH1 0xF JUMPI PUSH1 0x0 DUP1 REVERT JUMPDEST POP PUSH1 0x4 CALLDATASIZE LT PUSH1 0x32 JUMPI PUSH1 0x0 CALLDATALOAD PUSH1 0xE0 SHR DUP1 PUSH4 0x572B6C05 EQ PUSH1 0x37 JUMPI DUP1 PUSH4 0xCE1B815F EQ PUSH1 0x7B JUMPI JUMPDEST PUSH1 0x0 DUP1 REVERT JUMPDEST PUSH1 0x67 PUSH1 0x4 DUP1 CALLDATASIZE SUB PUSH1 0x20 DUP2 LT ISZERO PUSH1 0x4B JUMPI PUSH1 0x0 DUP1 REVERT JUMPDEST POP CALLDATALOAD PUSH20 0xFFFFFFFFFFFFFFFFFFFFFFFFFFFFFFFFFFFFFFFF AND PUSH1 0xAA JUMP JUMPDEST PUSH1 0x40 DUP1 MLOAD SWAP2 ISZERO ISZERO DUP3 MSTORE MLOAD SWAP1 DUP2 SWAP1 SUB PUSH1 0x20 ADD SWAP1 RETURN JUMPDEST PUSH1 0x81 PUSH1 0xCB JUMP JUMPDEST PUSH1 0x40 DUP1 MLOAD PUSH20 0xFFFFFFFFFFFFFFFFFFFFFFFFFFFFFFFFFFFFFFFF SWAP1 SWAP3 AND DUP3 MSTORE MLOAD SWAP1 DUP2 SWAP1 SUB PUSH1 0x20 ADD SWAP1 RETURN JUMPDEST PUSH1 0x0 SLOAD PUSH20 0xFFFFFFFFFFFFFFFFFFFFFFFFFFFFFFFFFFFFFFFF SWAP1 DUP2 AND SWAP2 AND EQ SWAP1 JUMP JUMPDEST PUSH1 0x0 SLOAD PUSH20 0xFFFFFFFFFFFFFFFFFFFFFFFFFFFFFFFFFFFFFFFF AND SWAP1 JUMP INVALID LOG2 PUSH6 0x627A7A723058 KECCAK256 MULMOD 0xec 0x4f CODESIZE OR ADD DUP4 0xd0 LOG1 0xbe 0xb0 PUSH9 0x4A707D346CB28FABD7 DUP11 0x22 0xde DIFFICULTY 0xe3 STATICCALL 0xe PUSH25 0x65460364736F6C634300050900320000000000000000000000 "
        },
        "gasEstimates": {
          "creation": {
            "codeDepositCost": "56800",
            "executionCost": "105",
            "totalCost": "56905"
          },
          "external": {
            "getTrustedForwarder()": "413",
            "isTrustedForwarder(address)": "451"
          },
          "internal": {
            "__ERC2771Handler_initialize(address)": "infinite",
            "_msgSender()": "infinite"
          }
        },
        "methodIdentifiers": {
          "getTrustedForwarder()": "ce1b815f",
          "isTrustedForwarder(address)": "572b6c05"
        }
      },
      "userdoc": {
        "methods": {}
      }
    }
  }
}