{
  "_format": "hh-sol-artifact-1",
  "contractName": "ProxyAdmin",
  "sourceName": "contracts/v2/contracts_common/UpgradableProxy/ProxyAdmin.sol",
  "abi": [
    {
      "constant": true,
      "inputs": [],
      "name": "proxyAddress",
      "outputs": [
        {
          "name": "",
          "type": "address"
        }
      ],
      "payable": false,
      "stateMutability": "view",
      "type": "function"
    },
    {
      "constant": false,
      "inputs": [
        {
          "name": "implementation",
          "type": "address"
        }
      ],
      "name": "upgradeTo",
      "outputs": [],
      "payable": false,
      "stateMutability": "nonpayable",
      "type": "function"
    },
    {
      "constant": false,
      "inputs": [
        {
          "name": "implementation",
          "type": "address"
        },
        {
          "name": "data",
          "type": "bytes"
        }
      ],
      "name": "upgradeToAndCall",
      "outputs": [],
      "payable": true,
      "stateMutability": "payable",
      "type": "function"
    },
    {
      "constant": true,
      "inputs": [],
      "name": "owner",
      "outputs": [
        {
          "name": "",
          "type": "address"
        }
      ],
      "payable": false,
      "stateMutability": "view",
      "type": "function"
    },
    {
      "constant": false,
      "inputs": [
        {
          "name": "newAdmin",
          "type": "address"
        }
      ],
      "name": "changeAdmin",
      "outputs": [],
      "payable": false,
      "stateMutability": "nonpayable",
      "type": "function"
    },
    {
      "constant": false,
      "inputs": [
        {
          "name": "_newOwner",
          "type": "address"
        }
      ],
      "name": "transferOwnership",
      "outputs": [],
      "payable": false,
      "stateMutability": "nonpayable",
      "type": "function"
    },
    {
      "constant": false,
      "inputs": [],
      "name": "admin",
      "outputs": [
        {
          "name": "",
          "type": "address"
        }
      ],
      "payable": false,
      "stateMutability": "nonpayable",
      "type": "function"
    },
    {
      "inputs": [
        {
          "name": "_proxy",
          "type": "address"
        },
        {
          "name": "_owner",
          "type": "address"
        }
      ],
      "payable": false,
      "stateMutability": "nonpayable",
      "type": "constructor"
    },
    {
      "anonymous": false,
      "inputs": [
        {
          "indexed": true,
          "name": "previousOwner",
          "type": "address"
        },
        {
          "indexed": true,
          "name": "newOwner",
          "type": "address"
        }
      ],
      "name": "OwnershipTransferred",
      "type": "event"
    }
  ],
  "bytecode": "0x608060405234801561001057600080fd5b506040516106473803806106478339818101604052604081101561003357600080fd5b50805160209091015160008054600180546001600160a01b039586166001600160a01b0319918216179091559390921691831633179092161790556105ca8061007d6000396000f3fe6080604052600436106100705760003560e01c80638da5cb5b1161004e5780638da5cb5b146101915780638f283970146101a6578063f2fde38b146101d9578063f851a4401461020c57610070565b806323f5c02d146100755780633659cfe6146100a65780634f1ef286146100db575b600080fd5b34801561008157600080fd5b5061008a610221565b604080516001600160a01b039092168252519081900360200190f35b3480156100b257600080fd5b506100d9600480360360208110156100c957600080fd5b50356001600160a01b0316610230565b005b6100d9600480360360408110156100f157600080fd5b6001600160a01b03823516919081019060408101602082013564010000000081111561011c57600080fd5b82018360208201111561012e57600080fd5b8035906020019184600183028401116401000000008311171561015057600080fd5b91908080601f0160208091040260200160405190810160405280939291908181526020018383808284376000920191909152509295506102c9945050505050565b34801561019d57600080fd5b5061008a6103cf565b3480156101b257600080fd5b506100d9600480360360208110156101c957600080fd5b50356001600160a01b03166103de565b3480156101e557600080fd5b506100d9600480360360208110156101fc57600080fd5b50356001600160a01b031661045c565b34801561021857600080fd5b5061008a61047f565b6001546001600160a01b031690565b6000546001600160a01b0316331461024757600080fd5b600154604080517f3659cfe60000000000000000000000000000000000000000000000000000000081526001600160a01b03848116600483015291519190921691633659cfe691602480830192600092919082900301818387803b1580156102ae57600080fd5b505af11580156102c2573d6000803e3d6000fd5b5050505050565b6000546001600160a01b031633146102e057600080fd5b600154604080517f4f1ef2860000000000000000000000000000000000000000000000000000000081526001600160a01b0385811660048301908152602483019384528551604484015285519190941693634f1ef28693349388938893929160640190602085019080838360005b8381101561036657818101518382015260200161034e565b50505050905090810190601f1680156103935780820380516001836020036101000a031916815260200191505b5093505050506000604051808303818588803b1580156103b257600080fd5b505af11580156103c6573d6000803e3d6000fd5b50505050505050565b6000546001600160a01b031681565b6000546001600160a01b031633146103f557600080fd5b600154604080517f8f2839700000000000000000000000000000000000000000000000000000000081526001600160a01b03848116600483015291519190921691638f28397091602480830192600092919082900301818387803b1580156102ae57600080fd5b6000546001600160a01b0316331461047357600080fd5b61047c8161050f565b50565b600154604080517ff851a44000000000000000000000000000000000000000000000000000000000815290516000926001600160a01b03169163f851a44091600480830192602092919082900301818787803b1580156104de57600080fd5b505af11580156104f2573d6000803e3d6000fd5b505050506040513d602081101561050857600080fd5b5051905090565b6001600160a01b03811661052257600080fd5b600080546040516001600160a01b03808516939216917f8be0079c531659141344cd1fd0a4f28419497f9722a3daafe3b4186f6b6457e091a3600080547fffffffffffffffffffffffff0000000000000000000000000000000000000000166001600160a01b039290921691909117905556fea265627a7a72305820aafabe9243e52851bfd73a0bde933093a85eeae04373e7cacd0650ae75efb80d64736f6c63430005090032",
  "linkReferences": {},
  "deployedLinkReferences": {}
}