{
  "_format": "hh-sol-artifact-1",
  "contractName": "Asset",
  "sourceName": "contracts/v2/Asset.sol",
  "abi": [
    {
      "constant": true,
      "inputs": [
        {
          "name": "owner",
          "type": "address"
        },
        {
          "name": "id",
          "type": "uint256"
        }
      ],
      "name": "balanceOf",
      "outputs": [
        {
          "name": "",
          "type": "uint256"
        }
      ],
      "payable": false,
      "stateMutability": "view",
      "type": "function"
    },
    {
      "constant": true,
      "inputs": [
        {
          "name": "id",
          "type": "bytes4"
        }
      ],
      "name": "supportsInterface",
      "outputs": [
        {
          "name": "",
          "type": "bool"
        }
      ],
      "payable": false,
      "stateMutability": "view",
      "type": "function"
    },
    {
      "constant": false,
      "inputs": [
        {
          "name": "newBouncerAdmin",
          "type": "address"
        }
      ],
      "name": "changeBouncerAdmin",
      "outputs": [],
      "payable": false,
      "stateMutability": "nonpayable",
      "type": "function"
    },
    {
      "constant": true,
      "inputs": [],
      "name": "name",
      "outputs": [
        {
          "name": "_name",
          "type": "string"
        }
      ],
      "payable": false,
      "stateMutability": "pure",
      "type": "function"
    },
    {
      "constant": true,
      "inputs": [
        {
          "name": "id",
          "type": "uint256"
        }
      ],
      "name": "getApproved",
      "outputs": [
        {
          "name": "operator",
          "type": "address"
        }
      ],
      "payable": false,
      "stateMutability": "view",
      "type": "function"
    },
    {
      "constant": false,
      "inputs": [
        {
          "name": "operator",
          "type": "address"
        },
        {
          "name": "id",
          "type": "uint256"
        }
      ],
      "name": "approve",
      "outputs": [],
      "payable": false,
      "stateMutability": "nonpayable",
      "type": "function"
    },
    {
      "constant": true,
      "inputs": [
        {
          "name": "id",
          "type": "uint256"
        }
      ],
      "name": "uri",
      "outputs": [
        {
          "name": "",
          "type": "string"
        }
      ],
      "payable": false,
      "stateMutability": "view",
      "type": "function"
    },
    {
      "constant": false,
      "inputs": [
        {
          "name": "from",
          "type": "address"
        },
        {
          "name": "id",
          "type": "uint256"
        },
        {
          "name": "amount",
          "type": "uint256"
        }
      ],
      "name": "burnFrom",
      "outputs": [],
      "payable": false,
      "stateMutability": "nonpayable",
      "type": "function"
    },
    {
      "constant": false,
      "inputs": [
        {
          "name": "metaTransactionContract",
          "type": "address"
        },
        {
          "name": "admin",
          "type": "address"
        },
        {
          "name": "bouncerAdmin",
          "type": "address"
        }
      ],
      "name": "init",
      "outputs": [],
      "payable": false,
      "stateMutability": "nonpayable",
      "type": "function"
    },
    {
      "constant": false,
      "inputs": [
        {
          "name": "from",
          "type": "address"
        },
        {
          "name": "to",
          "type": "address"
        },
        {
          "name": "id",
          "type": "uint256"
        }
      ],
      "name": "transferFrom",
      "outputs": [],
      "payable": false,
      "stateMutability": "nonpayable",
      "type": "function"
    },
    {
      "constant": false,
      "inputs": [
        {
          "name": "sender",
          "type": "address"
        },
        {
          "name": "operator",
          "type": "address"
        },
        {
          "name": "id",
          "type": "uint256"
        }
      ],
      "name": "approveFor",
      "outputs": [],
      "payable": false,
      "stateMutability": "nonpayable",
      "type": "function"
    },
    {
      "constant": true,
      "inputs": [
        {
          "name": "id",
          "type": "uint256"
        }
      ],
      "name": "collectionIndexOf",
      "outputs": [
        {
          "name": "",
          "type": "uint256"
        }
      ],
      "payable": false,
      "stateMutability": "view",
      "type": "function"
    },
    {
      "constant": false,
      "inputs": [
        {
          "name": "from",
          "type": "address"
        },
        {
          "name": "to",
          "type": "address"
        },
        {
          "name": "ids",
          "type": "uint256[]"
        },
        {
          "name": "values",
          "type": "uint256[]"
        },
        {
          "name": "data",
          "type": "bytes"
        }
      ],
      "name": "safeBatchTransferFrom",
      "outputs": [],
      "payable": false,
      "stateMutability": "nonpayable",
      "type": "function"
    },
    {
      "constant": false,
      "inputs": [
        {
          "name": "from",
          "type": "address"
        },
        {
          "name": "to",
          "type": "address"
        },
        {
          "name": "id",
          "type": "uint256"
        }
      ],
      "name": "safeTransferFrom",
      "outputs": [],
      "payable": false,
      "stateMutability": "nonpayable",
      "type": "function"
    },
    {
      "constant": true,
      "inputs": [
        {
          "name": "who",
          "type": "address"
        }
      ],
      "name": "isBouncer",
      "outputs": [
        {
          "name": "",
          "type": "bool"
        }
      ],
      "payable": false,
      "stateMutability": "view",
      "type": "function"
    },
    {
      "constant": true,
      "inputs": [
        {
          "name": "owners",
          "type": "address[]"
        },
        {
          "name": "ids",
          "type": "uint256[]"
        }
      ],
      "name": "balanceOfBatch",
      "outputs": [
        {
          "name": "",
          "type": "uint256[]"
        }
      ],
      "payable": false,
      "stateMutability": "view",
      "type": "function"
    },
    {
      "constant": true,
      "inputs": [
        {
          "name": "id",
          "type": "uint256"
        }
      ],
      "name": "creatorOf",
      "outputs": [
        {
          "name": "",
          "type": "address"
        }
      ],
      "payable": false,
      "stateMutability": "view",
      "type": "function"
    },
    {
      "constant": true,
      "inputs": [
        {
          "name": "id",
          "type": "uint256"
        }
      ],
      "name": "uri2",
      "outputs": [
        {
          "name": "",
          "type": "string"
        }
      ],
      "payable": false,
      "stateMutability": "view",
      "type": "function"
    },
    {
      "constant": true,
      "inputs": [],
      "name": "basePrefixTokenURI",
      "outputs": [
        {
          "name": "",
          "type": "string"
        }
      ],
      "payable": false,
      "stateMutability": "view",
      "type": "function"
    },
    {
      "constant": true,
      "inputs": [
        {
          "name": "id",
          "type": "uint256"
        }
      ],
      "name": "ownerOf",
      "outputs": [
        {
          "name": "owner",
          "type": "address"
        }
      ],
      "payable": false,
      "stateMutability": "view",
      "type": "function"
    },
    {
      "constant": true,
      "inputs": [
        {
          "name": "who",
          "type": "address"
        }
      ],
      "name": "isSuperOperator",
      "outputs": [
        {
          "name": "",
          "type": "bool"
        }
      ],
      "payable": false,
      "stateMutability": "view",
      "type": "function"
    },
    {
      "constant": true,
      "inputs": [],
      "name": "getAdmin",
      "outputs": [
        {
          "name": "",
          "type": "address"
        }
      ],
      "payable": false,
      "stateMutability": "view",
      "type": "function"
    },
    {
      "constant": true,
      "inputs": [
        {
          "name": "owner",
          "type": "address"
        }
      ],
      "name": "balanceOf",
      "outputs": [
        {
          "name": "balance",
          "type": "uint256"
        }
      ],
      "payable": false,
      "stateMutability": "view",
      "type": "function"
    },
    {
      "constant": false,
      "inputs": [
        {
          "name": "metaTransactionProcessor",
          "type": "address"
        },
        {
          "name": "enabled",
          "type": "bool"
        }
      ],
      "name": "setMetaTransactionProcessor",
      "outputs": [],
      "payable": false,
      "stateMutability": "nonpayable",
      "type": "function"
    },
    {
      "constant": true,
      "inputs": [
        {
          "name": "id",
          "type": "uint256"
        }
      ],
      "name": "rarity",
      "outputs": [
        {
          "name": "",
          "type": "uint256"
        }
      ],
      "payable": false,
      "stateMutability": "view",
      "type": "function"
    },
    {
      "constant": false,
      "inputs": [
        {
          "name": "newAdmin",
          "type": "address"
        }
      ],
      "name": "changeAdmin",
      "outputs": [],
      "payable": false,
      "stateMutability": "nonpayable",
      "type": "function"
    },
    {
      "constant": false,
      "inputs": [
        {
          "name": "creator",
          "type": "address"
        },
        {
          "name": "packId",
          "type": "uint40"
        },
        {
          "name": "numFTs",
          "type": "uint16"
        }
      ],
      "name": "isPackIdUsed",
      "outputs": [
        {
          "name": "",
          "type": "bool"
        }
      ],
      "payable": false,
      "stateMutability": "nonpayable",
      "type": "function"
    },
    {
      "constant": true,
      "inputs": [],
      "name": "symbol",
      "outputs": [
        {
          "name": "_symbol",
          "type": "string"
        }
      ],
      "payable": false,
      "stateMutability": "pure",
      "type": "function"
    },
    {
      "constant": true,
      "inputs": [],
      "name": "getBouncerAdmin",
      "outputs": [
        {
          "name": "",
          "type": "address"
        }
      ],
      "payable": false,
      "stateMutability": "view",
      "type": "function"
    },
    {
      "constant": false,
      "inputs": [
        {
          "name": "operator",
          "type": "address"
        },
        {
          "name": "approved",
          "type": "bool"
        }
      ],
      "name": "setApprovalForAll",
      "outputs": [],
      "payable": false,
      "stateMutability": "nonpayable",
      "type": "function"
    },
    {
      "constant": true,
      "inputs": [
        {
          "name": "",
          "type": "uint256"
        }
      ],
      "name": "_metadataHash",
      "outputs": [
        {
          "name": "",
          "type": "bytes32"
        }
      ],
      "payable": false,
      "stateMutability": "view",
      "type": "function"
    },
    {
      "constant": false,
      "inputs": [
        {
          "name": "superOperator",
          "type": "address"
        },
        {
          "name": "enabled",
          "type": "bool"
        }
      ],
      "name": "setSuperOperator",
      "outputs": [],
      "payable": false,
      "stateMutability": "nonpayable",
      "type": "function"
    },
    {
      "constant": false,
      "inputs": [
        {
          "name": "id",
          "type": "uint256"
        },
        {
          "name": "amount",
          "type": "uint256"
        }
      ],
      "name": "burn",
      "outputs": [],
      "payable": false,
      "stateMutability": "nonpayable",
      "type": "function"
    },
    {
      "constant": false,
      "inputs": [
        {
          "name": "sender",
          "type": "address"
        },
        {
          "name": "original",
          "type": "address"
        },
        {
          "name": "to",
          "type": "address"
        }
      ],
      "name": "transferCreatorship",
      "outputs": [],
      "payable": false,
      "stateMutability": "nonpayable",
      "type": "function"
    },
    {
      "constant": false,
      "inputs": [
        {
          "name": "from",
          "type": "address"
        },
        {
          "name": "to",
          "type": "address"
        },
        {
          "name": "id",
          "type": "uint256"
        },
        {
          "name": "data",
          "type": "bytes"
        }
      ],
      "name": "safeTransferFrom",
      "outputs": [],
      "payable": false,
      "stateMutability": "nonpayable",
      "type": "function"
    },
    {
      "constant": false,
      "inputs": [
        {
          "name": "bouncer",
          "type": "address"
        },
        {
          "name": "enabled",
          "type": "bool"
        }
      ],
      "name": "setBouncer",
      "outputs": [],
      "payable": false,
      "stateMutability": "nonpayable",
      "type": "function"
    },
    {
      "constant": true,
      "inputs": [
        {
          "name": "id",
          "type": "uint256"
        }
      ],
      "name": "isCollection",
      "outputs": [
        {
          "name": "",
          "type": "bool"
        }
      ],
      "payable": false,
      "stateMutability": "view",
      "type": "function"
    },
    {
      "constant": true,
      "inputs": [
        {
          "name": "id",
          "type": "uint256"
        }
      ],
      "name": "collectionOf",
      "outputs": [
        {
          "name": "",
          "type": "uint256"
        }
      ],
      "payable": false,
      "stateMutability": "view",
      "type": "function"
    },
    {
      "constant": true,
      "inputs": [
        {
          "name": "id",
          "type": "uint256"
        }
      ],
      "name": "tokenURI",
      "outputs": [
        {
          "name": "",
          "type": "string"
        }
      ],
      "payable": false,
      "stateMutability": "view",
      "type": "function"
    },
    {
      "constant": false,
      "inputs": [
        {
          "name": "creator",
          "type": "address"
        },
        {
          "name": "packId",
          "type": "uint40"
        },
        {
          "name": "hash",
          "type": "bytes32"
        },
        {
          "name": "supply",
          "type": "uint256"
        },
        {
          "name": "rarity",
          "type": "uint8"
        },
        {
          "name": "owner",
          "type": "address"
        },
        {
          "name": "data",
          "type": "bytes"
        },
        {
          "name": "xxx",
          "type": "uint8"
        }
      ],
      "name": "mint",
      "outputs": [
        {
          "name": "id",
          "type": "uint256"
        }
      ],
      "payable": false,
      "stateMutability": "nonpayable",
      "type": "function"
    },
    {
      "constant": true,
      "inputs": [
        {
          "name": "id",
          "type": "uint256"
        }
      ],
      "name": "wasEverMinted",
      "outputs": [
        {
          "name": "",
          "type": "bool"
        }
      ],
      "payable": false,
      "stateMutability": "view",
      "type": "function"
    },
    {
      "constant": true,
      "inputs": [
        {
          "name": "who",
          "type": "address"
        }
      ],
      "name": "isMetaTransactionProcessor",
      "outputs": [
        {
          "name": "",
          "type": "bool"
        }
      ],
      "payable": false,
      "stateMutability": "view",
      "type": "function"
    },
    {
      "constant": true,
      "inputs": [
        {
          "name": "owner",
          "type": "address"
        },
        {
          "name": "operator",
          "type": "address"
        }
      ],
      "name": "isApprovedForAll",
      "outputs": [
        {
          "name": "isOperator",
          "type": "bool"
        }
      ],
      "payable": false,
      "stateMutability": "view",
      "type": "function"
    },
    {
      "constant": false,
      "inputs": [
        {
          "name": "sender",
          "type": "address"
        },
        {
          "name": "operator",
          "type": "address"
        },
        {
          "name": "approved",
          "type": "bool"
        }
      ],
      "name": "setApprovalForAllFor",
      "outputs": [],
      "payable": false,
      "stateMutability": "nonpayable",
      "type": "function"
    },
    {
      "constant": true,
      "inputs": [],
      "name": "baseSuffixTokenURI",
      "outputs": [
        {
          "name": "",
          "type": "string"
        }
      ],
      "payable": false,
      "stateMutability": "view",
      "type": "function"
    },
    {
      "constant": false,
      "inputs": [
        {
          "name": "creator",
          "type": "address"
        },
        {
          "name": "packId",
          "type": "uint40"
        },
        {
          "name": "hash",
          "type": "bytes32"
        },
        {
          "name": "supplies",
          "type": "uint256[]"
        },
        {
          "name": "rarityPack",
          "type": "bytes"
        },
        {
          "name": "owner",
          "type": "address"
        },
        {
          "name": "data",
          "type": "bytes"
        }
      ],
      "name": "mintMultiple",
      "outputs": [
        {
          "name": "ids",
          "type": "uint256[]"
        }
      ],
      "payable": false,
      "stateMutability": "nonpayable",
      "type": "function"
    },
    {
      "constant": false,
      "inputs": [
        {
          "name": "from",
          "type": "address"
        },
        {
          "name": "to",
          "type": "address"
        },
        {
          "name": "id",
          "type": "uint256"
        },
        {
          "name": "value",
          "type": "uint256"
        },
        {
          "name": "data",
          "type": "bytes"
        }
      ],
      "name": "safeTransferFrom",
      "outputs": [],
      "payable": false,
      "stateMutability": "nonpayable",
      "type": "function"
    },
    {
      "constant": false,
      "inputs": [],
      "name": "test",
      "outputs": [],
      "payable": false,
      "stateMutability": "nonpayable",
      "type": "function"
    },
    {
      "anonymous": false,
      "inputs": [
        {
          "indexed": true,
          "name": "original",
          "type": "address"
        },
        {
          "indexed": true,
          "name": "from",
          "type": "address"
        },
        {
          "indexed": true,
          "name": "to",
          "type": "address"
        }
      ],
      "name": "CreatorshipTransfer",
      "type": "event"
    },
    {
      "anonymous": false,
      "inputs": [],
      "name": "DebugEvent",
      "type": "event"
    },
    {
      "anonymous": false,
      "inputs": [
        {
          "indexed": false,
          "name": "oldBouncerAdmin",
          "type": "address"
        },
        {
          "indexed": false,
          "name": "newBouncerAdmin",
          "type": "address"
        }
      ],
      "name": "BouncerAdminChanged",
      "type": "event"
    },
    {
      "anonymous": false,
      "inputs": [
        {
          "indexed": false,
          "name": "bouncer",
          "type": "address"
        },
        {
          "indexed": false,
          "name": "enabled",
          "type": "bool"
        }
      ],
      "name": "Bouncer",
      "type": "event"
    },
    {
      "anonymous": false,
      "inputs": [
        {
          "indexed": false,
          "name": "metaTransactionProcessor",
          "type": "address"
        },
        {
          "indexed": false,
          "name": "enabled",
          "type": "bool"
        }
      ],
      "name": "MetaTransactionProcessor",
      "type": "event"
    },
    {
      "anonymous": false,
      "inputs": [
        {
          "indexed": true,
          "name": "fromId",
          "type": "uint256"
        },
        {
          "indexed": false,
          "name": "toId",
          "type": "uint256"
        }
      ],
      "name": "Extraction",
      "type": "event"
    },
    {
      "anonymous": false,
      "inputs": [
        {
          "indexed": true,
          "name": "fromId",
          "type": "uint256"
        },
        {
          "indexed": false,
          "name": "toId",
          "type": "uint256"
        }
      ],
      "name": "AssetUpdate",
      "type": "event"
    },
    {
      "anonymous": false,
      "inputs": [
        {
          "indexed": true,
          "name": "_from",
          "type": "address"
        },
        {
          "indexed": true,
          "name": "_to",
          "type": "address"
        },
        {
          "indexed": true,
          "name": "_tokenId",
          "type": "uint256"
        }
      ],
      "name": "Transfer",
      "type": "event"
    },
    {
      "anonymous": false,
      "inputs": [
        {
          "indexed": true,
          "name": "_owner",
          "type": "address"
        },
        {
          "indexed": true,
          "name": "_approved",
          "type": "address"
        },
        {
          "indexed": true,
          "name": "_tokenId",
          "type": "uint256"
        }
      ],
      "name": "Approval",
      "type": "event"
    },
    {
      "anonymous": false,
      "inputs": [
        {
          "indexed": true,
          "name": "_owner",
          "type": "address"
        },
        {
          "indexed": true,
          "name": "_operator",
          "type": "address"
        },
        {
          "indexed": false,
          "name": "_approved",
          "type": "bool"
        }
      ],
      "name": "ApprovalForAll",
      "type": "event"
    },
    {
      "anonymous": false,
      "inputs": [
        {
          "indexed": true,
          "name": "operator",
          "type": "address"
        },
        {
          "indexed": true,
          "name": "from",
          "type": "address"
        },
        {
          "indexed": true,
          "name": "to",
          "type": "address"
        },
        {
          "indexed": false,
          "name": "id",
          "type": "uint256"
        },
        {
          "indexed": false,
          "name": "value",
          "type": "uint256"
        }
      ],
      "name": "TransferSingle",
      "type": "event"
    },
    {
      "anonymous": false,
      "inputs": [
        {
          "indexed": true,
          "name": "operator",
          "type": "address"
        },
        {
          "indexed": true,
          "name": "from",
          "type": "address"
        },
        {
          "indexed": true,
          "name": "to",
          "type": "address"
        },
        {
          "indexed": false,
          "name": "ids",
          "type": "uint256[]"
        },
        {
          "indexed": false,
          "name": "values",
          "type": "uint256[]"
        }
      ],
      "name": "TransferBatch",
      "type": "event"
    },
    {
      "anonymous": false,
      "inputs": [
        {
          "indexed": false,
          "name": "value",
          "type": "string"
        },
        {
          "indexed": true,
          "name": "id",
          "type": "uint256"
        }
      ],
      "name": "URI",
      "type": "event"
    },
    {
      "anonymous": false,
      "inputs": [
        {
          "indexed": false,
          "name": "superOperator",
          "type": "address"
        },
        {
          "indexed": false,
          "name": "enabled",
          "type": "bool"
        }
      ],
      "name": "SuperOperator",
      "type": "event"
    },
    {
      "anonymous": false,
      "inputs": [
        {
          "indexed": false,
          "name": "oldAdmin",
          "type": "address"
        },
        {
          "indexed": false,
          "name": "newAdmin",
          "type": "address"
        }
      ],
      "name": "AdminChanged",
      "type": "event"
    }
  ],
  "bytecode": "0x60806040526002805464ffffffffff1916905534801561001e57600080fd5b50615c78806200002f6000396000f3fe608060405234801561001057600080fd5b506004361061031f5760003560e01c80638b58c569116101a7578063bd9ff41b116100ee578063e985e9c511610097578063f0bc00d811610071578063f0bc00d814610d25578063f242432a14610e69578063f8a8fd6d14610efe5761031f565b8063e985e9c514610cb7578063eeb5a5d114610ce5578063ef03fc4714610d1d5761031f565b8063cfb5a71f116100c8578063cfb5a71f14610bc5578063d402756e14610c74578063dc5074af14610c915761031f565b8063bd9ff41b14610b8b578063c7778baa14610ba8578063c87b56dd146104a75761031f565b8063a2c7162f11610150578063b666923c1161012a578063b666923c14610a5f578063b88d4fde14610a97578063b9b75ebc14610b5d5761031f565b8063a2c7162f146109f1578063ac9fe42114610a0e578063b390c0ab14610a3c5761031f565b806395d89b411161018157806395d89b41146109b35780639bc88b9c146109bb578063a22cb465146109c35761031f565b80638b58c569146109335780638f283970146109505780639470f3cb146109765761031f565b80632eb2c2d61161026b5780636103802c116102145780636e9960c3116101ee5780636e9960c3146108d757806370a08231146108df5780638a04af6a146109055761031f565b80636103802c1461088c5780636352211e14610894578063654b748a146108b15761031f565b80634e1273f4116102455780634e1273f414610740578063589a1743146108525780635c85a5441461086f5761031f565b80632eb2c2d6146105b757806342842e0e146106e45780634c4d07e71461071a5761031f565b80630e89341c116102cd57806323b872dd116102a757806323b872dd1461052e5780632b991746146105645780632e712b461461059a5761031f565b80630e89341c146104a7578063124d91e5146104c4578063184b9559146104f65761031f565b806306fdde03116102fe57806306fdde03146103c5578063081812fc14610442578063095ea7b31461047b5761031f565b8062fdd58e1461032457806301ffc9a714610362578063049476df1461039d575b600080fd5b6103506004803603604081101561033a57600080fd5b506001600160a01b038135169060200135610f06565b60408051918252519081900360200190f35b6103896004803603602081101561037857600080fd5b50356001600160e01b031916610fa7565b604080519115158252519081900360200190f35b6103c3600480360360208110156103b357600080fd5b50356001600160a01b03166110ae565b005b6103cd61116e565b6040805160208082528351818301528351919283929083019185019080838360005b838110156104075781810151838201526020016103ef565b50505050905090810190601f1680156104345780820380516001836020036101000a031916815260200191505b509250505060405180910390f35b61045f6004803603602081101561045857600080fd5b50356111a6565b604080516001600160a01b039092168252519081900360200190f35b6103c36004803603604081101561049157600080fd5b506001600160a01b03813516906020013561122a565b6103cd600480360360208110156104bd57600080fd5b50356113a0565b6103c3600480360360608110156104da57600080fd5b506001600160a01b03813516906020810135906040013561143f565b6103c36004803603606081101561050c57600080fd5b506001600160a01b038135811691602081013582169160409091013516611564565b6103c36004803603606081101561054457600080fd5b506001600160a01b03813581169160208101359091169060400135611569565b6103c36004803603606081101561057a57600080fd5b506001600160a01b03813581169160208101359091169060400135611659565b610350600480360360208110156105b057600080fd5b503561183c565b6103c3600480360360a08110156105cd57600080fd5b6001600160a01b03823581169260208101359091169181019060608101604082013564010000000081111561060157600080fd5b82018360208201111561061357600080fd5b8035906020019184602083028401116401000000008311171561063557600080fd5b91939092909160208101903564010000000081111561065357600080fd5b82018360208201111561066557600080fd5b8035906020019184602083028401116401000000008311171561068757600080fd5b9193909290916020810190356401000000008111156106a557600080fd5b8201836020820111156106b757600080fd5b803590602001918460018302840111640100000000831117156106d957600080fd5b509092509050611855565b6103c3600480360360608110156106fa57600080fd5b506001600160a01b03813581169160208101359091169060400135611bf5565b6103896004803603602081101561073057600080fd5b50356001600160a01b0316611c10565b6108026004803603604081101561075657600080fd5b81019060208101813564010000000081111561077157600080fd5b82018360208201111561078357600080fd5b803590602001918460208302840111640100000000831117156107a557600080fd5b9193909290916020810190356401000000008111156107c357600080fd5b8201836020820111156107d557600080fd5b803590602001918460208302840111640100000000831117156107f757600080fd5b509092509050611c2e565b60408051602080825283518183015283519192839290830191858101910280838360005b8381101561083e578181015183820152602001610826565b505050509050019250505060405180910390f35b61045f6004803603602081101561086857600080fd5b5035611d08565b6103cd6004803603602081101561088557600080fd5b5035611da5565b6103cd611e2a565b61045f600480360360208110156108aa57600080fd5b5035611e61565b610389600480360360208110156108c757600080fd5b50356001600160a01b0316611ec9565b61045f611ee7565b610350600480360360208110156108f557600080fd5b50356001600160a01b0316611ef6565b6103c36004803603604081101561091b57600080fd5b506001600160a01b0381351690602001351515611f6f565b6103506004803603602081101561094957600080fd5b503561201c565b6103c36004803603602081101561096657600080fd5b50356001600160a01b031661216b565b6103896004803603606081101561098c57600080fd5b5080356001600160a01b031690602081013564ffffffffff16906040013561ffff16612241565b6103cd61228a565b61045f6122c1565b6103c3600480360360408110156109d957600080fd5b506001600160a01b03813516906020013515156122d0565b61035060048036036020811015610a0757600080fd5b50356122df565b6103c360048036036040811015610a2457600080fd5b506001600160a01b03813516906020013515156122f1565b6103c360048036036040811015610a5257600080fd5b508035906020013561239e565b6103c360048036036060811015610a7557600080fd5b506001600160a01b0381358116916020810135821691604090910135166123a9565b6103c360048036036080811015610aad57600080fd5b6001600160a01b03823581169260208101359091169160408201359190810190608081016060820135640100000000811115610ae857600080fd5b820183602082011115610afa57600080fd5b80359060200191846001830284011164010000000083111715610b1c57600080fd5b91908080601f0160208091040260200160405190810160405280939291908181526020018383808284376000920191909152509295506126be945050505050565b6103c360048036036040811015610b7357600080fd5b506001600160a01b038135169060200135151561277b565b61038960048036036020811015610ba157600080fd5b5035612828565b61035060048036036020811015610bbe57600080fd5b503561284a565b6103506004803603610100811015610bdc57600080fd5b6001600160a01b03823581169264ffffffffff6020820135169260408201359260608301359260ff6080820135169260a08201359092169181019060e0810160c0820135640100000000811115610c3257600080fd5b820183602082011115610c4457600080fd5b80359060200191846001830284011164010000000083111715610c6657600080fd5b91935091503560ff16612906565b61038960048036036020811015610c8a57600080fd5b5035612a66565b61038960048036036020811015610ca757600080fd5b50356001600160a01b0316612ad3565b61038960048036036040811015610ccd57600080fd5b506001600160a01b0381358116916020013516612af1565b6103c360048036036060811015610cfb57600080fd5b506001600160a01b038135811691602081013590911690604001351515612bf9565b6103cd612c95565b610802600480360360e0811015610d3b57600080fd5b6001600160a01b038235169164ffffffffff6020820135169160408201359190810190608081016060820135640100000000811115610d7957600080fd5b820183602082011115610d8b57600080fd5b80359060200191846020830284011164010000000083111715610dad57600080fd5b919390929091602081019035640100000000811115610dcb57600080fd5b820183602082011115610ddd57600080fd5b80359060200191846001830284011164010000000083111715610dff57600080fd5b919390926001600160a01b0383351692604081019060200135640100000000811115610e2a57600080fd5b820183602082011115610e3c57600080fd5b80359060200191846001830284011164010000000083111715610e5e57600080fd5b509092509050612ccc565b6103c3600480360360a0811015610e7f57600080fd5b6001600160a01b03823581169260208101359091169160408201359160608101359181019060a081016080820135640100000000811115610ebf57600080fd5b820183602082011115610ed157600080fd5b80359060200191846001830284011164010000000083111715610ef357600080fd5b509092509050612f2d565b6103c3613057565b60006b800000000000000000000000821615610f4e57826001600160a01b0316610f2f83613097565b6001600160a01b03161415610f4657506001610fa1565b506000610fa1565b600080610f5a846130a9565b91509150610f6882826130ba565b6001600160a01b0385166000908152600560209081526040808320858452909152902054610f9c908263ffffffff61313016565b925050505b92915050565b60007f01ffc9a7000000000000000000000000000000000000000000000000000000006001600160e01b03198316148061100a57507fd9b67a26000000000000000000000000000000000000000000000000000000006001600160e01b03198316145b8061103e57507f80ac58cd000000000000000000000000000000000000000000000000000000006001600160e01b03198316145b8061107257507f5b5e139f000000000000000000000000000000000000000000000000000000006001600160e01b03198316145b806110a657507f0e89341c000000000000000000000000000000000000000000000000000000006001600160e01b03198316145b90505b919050565b600e546001600160a01b031633146110f75760405162461bcd60e51b8152600401808060200182810382526023815260200180615b236023913960400191505060405180910390fd5b600e54604080516001600160a01b039283168152918316602083015280517f1bab6ababbec5519512e9ee16964953ec0f72839126138285cac1f1136bd642e9281900390910190a1600e805473ffffffffffffffffffffffffffffffffffffffff19166001600160a01b0392909216919091179055565b60408051808201909152600f81527f446556657273652773204153534554000000000000000000000000000000000060208201525b90565b6000806111b283613097565b6001600160a01b0316141561120e576040805162461bcd60e51b815260206004820152601260248201527f4e465420646f6573206e6f742065786973740000000000000000000000000000604482015290519081900360640190fd5b506000908152600760205260409020546001600160a01b031690565b600061123582613097565b90506001600160a01b038116611292576040805162461bcd60e51b815260206004820152601260248201527f4e465420646f6573206e6f742065786973740000000000000000000000000000604482015290519081900360640190fd5b6001600160a01b0381163314806112b857503360009081526001602052604090205460ff165b806112e657506001600160a01b038116600090815260066020908152604080832033845290915290205460ff165b611337576040805162461bcd60e51b815260206004820152600e60248201527f6e6f7420617574686f72697a6564000000000000000000000000000000000000604482015290519081900360640190fd5b600082815260076020526040808220805473ffffffffffffffffffffffffffffffffffffffff19166001600160a01b0387811691821790925591518593918516917f8c5be1e5ebec7d5bd14f71427d1e84f3dd0314c0f7b2291e5b200ac8c7c3b92591a4505050565b60606113ab82612a66565b6113fc576040805162461bcd60e51b815260206004820152601660248201527f746f6b656e20776173206e65766572206d696e74656400000000000000000000604482015290519081900360640190fd5b6110a661143761140a611e2a565b6bffffffff80000000000007ff1985166000908152600860205260409020546114329061314a565b61324e565b611432612c95565b6001600160a01b03831661149a576040805162461bcd60e51b815260206004820152601460248201527f66726f6d206973207a65726f2061646472657373000000000000000000000000604482015290519081900360640190fd5b336001600160a01b03841614806114c05750336000908152600d602052604090205460ff165b806114da57503360009081526001602052604090205460ff165b8061150857506001600160a01b038316600090815260066020908152604080832033845290915290205460ff165b611559576040805162461bcd60e51b815260206004820152601560248201527f72657175697265206d65746120617070726f76616c0000000000000000000000604482015290519081900360640190fd5b61156483838361328a565b505050565b826001600160a01b031661157c82613097565b6001600160a01b0316146115c3576040805162461bcd60e51b81526020600482015260096024820152683737ba1037bbb732b960b91b604482015290519081900360640190fd5b60006115d284848460016133b2565b9050611602816115e257336115e4565b845b858585600160405180602001604052806000815250600160006137f2565b611653576040805162461bcd60e51b815260206004820152601960248201527f65726331313535207472616e736665722072656a656374656400000000000000604482015290519081900360640190fd5b50505050565b600061166482613097565b90506001600160a01b0384166116c1576040805162461bcd60e51b815260206004820152601660248201527f73656e646572206973207a65726f206164647265737300000000000000000000604482015290519081900360640190fd5b336001600160a01b03851614806116e75750336000908152600d602052604090205460ff165b8061170157503360009081526001602052604090205460ff165b8061172f57506001600160a01b038416600090815260066020908152604080832033845290915290205460ff165b611780576040805162461bcd60e51b815260206004820152601160248201527f72657175697265206f70657261746f7273000000000000000000000000000000604482015290519081900360640190fd5b836001600160a01b0316816001600160a01b0316146117d2576040805162461bcd60e51b81526020600482015260096024820152683737ba1037bbb732b960b91b604482015290519081900360640190fd5b600082815260076020526040808220805473ffffffffffffffffffffffffffffffffffffffff19166001600160a01b0387811691821790925591518593918516917f8c5be1e5ebec7d5bd14f71427d1e84f3dd0314c0f7b2291e5b200ac8c7c3b92591a450505050565b60006118478261284a565b5050603f1c63ffffffff1690565b8483146118935760405162461bcd60e51b8152600401808060200182810382526026815260200180615ada6026913960400191505060405180910390fd5b6001600160a01b0387166118ee576040805162461bcd60e51b815260206004820152601b60248201527f64657374696e6174696f6e206973207a65726f20616464726573730000000000604482015290519081900360640190fd5b6001600160a01b038816611949576040805162461bcd60e51b815260206004820152601460248201527f66726f6d206973207a65726f2061646472657373000000000000000000000000604482015290519081900360640190fd5b336000818152600d602052604081205460ff16916001600160a01b038b1614806119705750815b8061198a57503360009081526001602052604090205460ff165b806119b857506001600160a01b038a16600090815260066020908152604080832033845290915290205460ff165b9050611a2b8a8a8a8a8080602002602001604051908101604052809392919081815260200183836020028082843760009201919091525050604080516020808e0282810182019093528d82529093508d92508c9182918501908490808284376000920191909152508892506139de915050565b886001600160a01b03168a6001600160a01b031683611a4a5733611a4c565b8b5b6001600160a01b03167f4a39dc06d4c0dbc64b70af90fd698a233a518aa5d07e595d983b8c0526c8f7fb8b8b8b8b6040518080602001806020018381038352878782818152602001925060200280828437600083820152601f01601f19169091018481038352858152602090810191508690860280828437600083820152604051601f909101601f19169092018290039850909650505050505050a4611b9882611af65733611af8565b8a5b8b8b8b8b8080602002602001604051908101604052809392919081815260200183836020028082843760009201919091525050604080516020808f0282810182019093528e82529093508e92508d91829185019084908082843760009201919091525050604080516020601f8e018190048102820181019092528c815292508c91508b908190840183828082843760009201919091525061404c92505050565b611be9576040805162461bcd60e51b815260206004820152601960248201527f65726331313535207472616e736665722072656a656374656400000000000000604482015290519081900360640190fd5b50505050505050505050565b611564838383604051806020016040528060008152506126be565b6001600160a01b03166000908152600c602052604090205460ff1690565b6060838214611c6e5760405162461bcd60e51b8152600401808060200182810382526026815260200180615ada6026913960400191505060405180910390fd5b604080518381526020808502820101909152606090838015611c9a578160200160208202803883390190505b50905060005b83811015611cfe57611cdf878783818110611cb757fe5b905060200201356001600160a01b0316868684818110611cd357fe5b90506020020135610f06565b828281518110611ceb57fe5b6020908102919091010152600101611ca0565b5095945050505050565b6000611d1382612a66565b611d64576040805162461bcd60e51b815260206004820152601660248201527f746f6b656e20776173206e65766572206d696e74656400000000000000000000604482015290519081900360640190fd5b6c0100000000000000000000000082046001600160a01b038181166000908152600b6020526040902054168015611d9e5791506110a99050565b5092915050565b6060611db082612a66565b611e01576040805162461bcd60e51b815260206004820152601660248201527f746f6b656e20776173206e65766572206d696e74656400000000000000000000604482015290519081900360640190fd5b6bffffffff80000000000007ff1982166000908152600860205260409020546110a6908361423c565b60408051808201909152600f81527f68747470733a2f2f626166796265690000000000000000000000000000000000602082015290565b6000611e6c82613097565b90506001600160a01b0381166110a9576040805162461bcd60e51b815260206004820152601260248201527f4e465420646f6573206e6f742065786973740000000000000000000000000000604482015290519081900360640190fd5b6001600160a01b031660009081526001602052604090205460ff1690565b6000546001600160a01b031690565b60006001600160a01b038216611f53576040805162461bcd60e51b815260206004820152601560248201527f6f776e6572206973207a65726f20616464726573730000000000000000000000604482015290519081900360640190fd5b506001600160a01b031660009081526003602052604090205490565b6000546001600160a01b03163314611fb85760405162461bcd60e51b815260040180806020018281038252602e815260200180615c16602e913960400191505060405180910390fd5b6001600160a01b0382166000818152600d6020908152604091829020805460ff191685151590811790915582519384529083015280517fb21eb88b4e33b3f1281830a7178d74d8aa73220416215726b68ae23d539515cb9281900390910190a15050565b600061202782612a66565b612078576040805162461bcd60e51b815260206004820152601660248201527f746f6b656e20776173206e65766572206d696e74656400000000000000000000604482015290519081900360640190fd5b6bffffffff80000000000007ff198216600090815260096020526040902080546107ff8416906002600019610100600184161502019091160460048204106120c5576000925050506110a9565b600082600483048154600181600116156101000203166002900481106120e757fe5b8154600116156121065790600052602060002090602091828204019190065b9054901a7f01000000000000000000000000000000000000000000000000000000000000000260f81c905060026003808416900381029060049060ff80841690910a16838161215157fe5b0460ff168161215c57fe5b0660ff169450505050506110a9565b6000546001600160a01b031633146121ca576040805162461bcd60e51b815260206004820152601b60248201527f6f6e6c792061646d696e2063616e206368616e67652061646d696e0000000000604482015290519081900360640190fd5b600054604080516001600160a01b039283168152918316602083015280517f7e644d79422f17c01e4894b5f4f588d331ebfa28653d42ae832dc59e38c9798f9281900390910190a16000805473ffffffffffffffffffffffffffffffffffffffff19166001600160a01b0392909216919091179055565b6001600160a01b0383166c010000000000000000000000000264ffffffffff831662800000020161ffff8216610800020160009081526008602052604090205415159392505050565b60408051808201909152600581527f4153534554000000000000000000000000000000000000000000000000000000602082015290565b600e546001600160a01b031690565b6122db3383836143a4565b5050565b60086020526000908152604090205481565b6000546001600160a01b0316331461233a5760405162461bcd60e51b815260040180806020018281038252602c815260200180615bc8602c913960400191505060405180910390fd5b6001600160a01b038216600081815260016020908152604091829020805460ff191685151590811790915582519384529083015280517f44f92d27abdf4cfb6a7d712c3af68f3be086d4ca747ab802c36f67d6790060d89281900390910190a15050565b6122db33838361328a565b336001600160a01b03841614806123cf5750336000908152600d602052604090205460ff165b806123e957503360009081526001602052604090205460ff165b61243a576040805162461bcd60e51b815260206004820152601560248201527f72657175697265206d65746120617070726f76616c0000000000000000000000604482015290519081900360640190fd5b6001600160a01b038316612495576040805162461bcd60e51b815260206004820152601660248201527f73656e646572206973207a65726f206164647265737300000000000000000000604482015290519081900360640190fd5b6001600160a01b0381166124f0576040805162461bcd60e51b815260206004820152601b60248201527f64657374696e6174696f6e206973207a65726f20616464726573730000000000604482015290519081900360640190fd5b6001600160a01b038083166000908152600b602052604090205416806125135750815b816001600160a01b0316816001600160a01b0316141561257a576040805162461bcd60e51b815260206004820152600d60248201527f63757272656e74203d3d20746f00000000000000000000000000000000000000604482015290519081900360640190fd5b836001600160a01b0316816001600160a01b0316146125e0576040805162461bcd60e51b815260206004820152601160248201527f63757272656e7420213d2073656e646572000000000000000000000000000000604482015290519081900360640190fd5b826001600160a01b0316826001600160a01b03161415612632576001600160a01b0383166000908152600b60205260409020805473ffffffffffffffffffffffffffffffffffffffff1916905561266e565b6001600160a01b038381166000908152600b60205260409020805473ffffffffffffffffffffffffffffffffffffffff19169184169190911790555b816001600160a01b0316816001600160a01b0316846001600160a01b03167f1a7f4b0ff7e2dc5eb0864ecd842062dd36fa2daafefc7a017476807ccd73600d60405160405180910390a450505050565b836001600160a01b03166126d183613097565b6001600160a01b031614612718576040805162461bcd60e51b81526020600482015260096024820152683737ba1037bbb732b960b91b604482015290519081900360640190fd5b61272a338585856001866001806137f2565b611653576040805162461bcd60e51b815260206004820181905260248201527f6572633732312f65726331313535207472616e736665722072656a6563746564604482015290519081900360640190fd5b600e546001600160a01b031633146127c45760405162461bcd60e51b8152600401808060200182810382526024815260200180615b466024913960400191505060405180910390fd5b6001600160a01b0382166000818152600c6020908152604091829020805460ff191685151590811790915582519384529083015280517f5ecd928ac22825e06273a3e8db8118dd7fe11bd2637ecfe4bfa25154948bd85f9281900390910190a15050565b60006bffffffff800000000000000019821661284381612a66565b9392505050565b60008061285683613097565b6001600160a01b031614156128b2576040805162461bcd60e51b815260206004820152601260248201527f4e465420646f6573206e6f742065786973740000000000000000000000000000604482015290519081900360640190fd5b6bffffffff80000000000000001982166128cb81612a66565b6110a65760405162461bcd60e51b8152600401808060200182810382526028815260200180615b6a6028913960400191505060405180910390fd5b60008761295a576040805162461bcd60e51b815260206004820152600c60248201527f68617368206973207a65726f0000000000000000000000000000000000000000604482015290519081900360640190fd5b600280547fffffffffffffffffffffffffffffffffffffffffffffffffffffff00000000008116600164ffffffffff92831601918216179091556001600160a01b0386166129ef576040805162461bcd60e51b815260206004820152601b60248201527f64657374696e6174696f6e206973207a65726f20616464726573730000000000604482015290519081900360640190fd5b612a118b89838b600114612a04576001612a07565b60005b60ff166000614587565b9150612a58898989338a878b8b8080601f0160208091040260200160405190810160405280939291908181526020018383808284376000920182905250925061464c915050565b509998505050505050505050565b60006b800000000000000000000000821615612a93575060008181526004602052604090205415156110a9565b610800627ff8008316046107ff8316108015612acc57506bffffffff80000000000007ff19821660009081526008602052604090205415155b90506110a9565b6001600160a01b03166000908152600d602052604090205460ff1690565b60006001600160a01b038316612b4e576040805162461bcd60e51b815260206004820152601560248201527f6f776e6572206973207a65726f20616464726573730000000000000000000000604482015290519081900360640190fd5b6001600160a01b038216612ba9576040805162461bcd60e51b815260206004820152601860248201527f6f70657261746f72206973207a65726f20616464726573730000000000000000604482015290519081900360640190fd5b6001600160a01b0380841660009081526006602090815260408083209386168352929052205460ff16806128435750506001600160a01b031660009081526001602052604090205460ff16919050565b336001600160a01b0384161480612c1f5750336000908152600d602052604090205460ff165b80612c3957503360009081526001602052604090205460ff165b612c8a576040805162461bcd60e51b815260206004820152601560248201527f72657175697265206d65746120617070726f76616c0000000000000000000000604482015290519081900360640190fd5b6115648383836143a4565b60408051808201909152601481527f2e697066732e696e667572612d697066732e696f000000000000000000000000602082015290565b606088612d20576040805162461bcd60e51b815260206004820152600c60248201527f68617368206973207a65726f0000000000000000000000000000000000000000604482015290519081900360640190fd5b336000908152600c602052604090205460ff16612d84576040805162461bcd60e51b815260206004820152601c60248201527f6f6e6c7920626f756e63657220616c6c6f77656420746f206d696e7400000000604482015290519081900360640190fd5b6001600160a01b038416612ddf576040805162461bcd60e51b815260206004820152601b60248201527f64657374696e6174696f6e206973207a65726f20616464726573730000000000604482015290519081900360640190fd5b6000612e628c8a8a8080602002602001604051908101604052809392919081815260200183836020028082843760009201919091525050604080516020601f8e018190048102820181019092528c815292508c91508b9081908401838280828437600081840152601f19601f820116905080830192505050505050508e8e61492f565b8092508193505050612eab898980806020026020016040519081016040528093929190818152602001838360200280828437600092019190915250899250869150859050614abb565b612f1e3386848c8c8080602002602001604051908101604052809392919081815260200183836020028082843760009201919091525050604080516020601f8d018190048102820181019092528b815292508b91508a9081908401838280828437600092019190915250614b0d92505050565b509a9950505050505050505050565b6b800000000000000000000000841615612f9b57856001600160a01b0316612f5485613097565b6001600160a01b031614612f9b576040805162461bcd60e51b81526020600482015260096024820152683737ba1037bbb732b960b91b604482015290519081900360640190fd5b6000612fa9878787876133b2565b9050612ffd81612fb95733612fbb565b875b8888888888888080601f016020809104026020016040519081016040528093929190818152602001838380828437600092018290525092508291506137f29050565b61304e576040805162461bcd60e51b815260206004820152601960248201527f65726331313535207472616e736665722072656a656374656400000000000000604482015290519081900360640190fd5b50505050505050565b6130956040518060400160405280600481526020017f5859430a00000000000000000000000000000000000000000000000000000000815250614c47565b565b60009081526004602052604090205490565b610100602082020491600790911690565b604080516024810184905260448082018490528251808303909101815260649091019091526020810180517bffffffffffffffffffffffffffffffffffffffffffffffffffffffff167f6c0f6980000000000000000000000000000000000000000000000000000000001790526122db90614d1e565b600181016020026101000382901c63ffffffff1692915050565b60408051603480825260608281019093528391839082602082018180388339509192507f6162636465666768696a6b6c6d6e6f707172737475767778797a323334353637915050601c600285901b16602081106131a357fe5b1a60f81b818360019003935083815181106131ba57fe5b60200101906001600160f81b031916908160001a9053506008830492505b8115613246577f6162636465666768696a6b6c6d6e6f707172737475767778797a323334353637602084066020811061320d57fe5b1a60f81b8183600190039350838151811061322457fe5b60200101906001600160f81b031916908160001a9053506020830492506131d8565b949350505050565b60606128438383604051806020016040528060008152506040518060200160405280600081525060405180602001604052806000815250614d3f565b6b80000000000000000000000082161561332257806001146132f3576040805162461bcd60e51b815260206004820152601560248201527f63616e206f6e6c79206275726e206f6e65204e46540000000000000000000000604482015290519081900360640190fd5b336000908152600d602052604090205461331d9060ff166133145733613316565b835b8484614f53565b611564565b600081118015613336575063ffffffff8111155b613387576040805162461bcd60e51b815260206004820152600e60248201527f696e76616c696420616d6f756e74000000000000000000000000000000000000604482015290519081900360640190fd5b336000908152600d60205260409020546115649060ff166133a857336133aa565b835b848484615070565b60006001600160a01b03841661340f576040805162461bcd60e51b815260206004820152601b60248201527f64657374696e6174696f6e206973207a65726f20616464726573730000000000604482015290519081900360640190fd5b6001600160a01b03851661346a576040805162461bcd60e51b815260206004820152601460248201527f66726f6d206973207a65726f2061646472657373000000000000000000000000604482015290519081900360640190fd5b50336000818152600d602052604081205460ff16916001600160a01b03871614806134925750815b806134ac57503360009081526001602052604090205460ff165b806134da57506001600160a01b038616600090815260066020908152604080832033845290915290205460ff165b90506b80000000000000000000000084161561366657808061351257506000848152600760205260409020546001600160a01b031633145b613563576040805162461bcd60e51b815260206004820152601560248201527f4f70657261746f72206e6f7420617070726f7665640000000000000000000000604482015290519081900360640190fd5b821561366157826001146135a85760405162461bcd60e51b8152600401808060200182810382526023815260200180615ab76023913960400191505060405180910390fd5b6001600160a01b03808716600090815260036020908152604080832080546000190190558884168084528184208054600101905588845260048352818420556007909152902054161561361f576000848152600760205260409020805473ffffffffffffffffffffffffffffffffffffffff191690555b83856001600160a01b0316876001600160a01b03167fddf252ad1be2c89b69c2b068fc378daa952ba7f163c4a11628f55a4df523b3ef60405160405180910390a45b613780565b806136b8576040805162461bcd60e51b815260206004820152601560248201527f4f70657261746f72206e6f7420617070726f7665640000000000000000000000604482015290519081900360640190fd5b8215613780576000806136ca866130a9565b6001600160a01b038a1660009081526005602090815260408083208584529091529020549193509150613706908287600163ffffffff61513116565b6001600160a01b03808a166000908152600560208181526040808420888552825280842095909555928b168252825282812085825290915290812054613755918390889063ffffffff61513116565b6001600160a01b03881660009081526005602090815260408083209583529490529290922091909155505b846001600160a01b0316866001600160a01b03168361379f57336137a1565b875b6001600160a01b03167fc3d58168c5ae7397731d063d5bbf3d657854427343f4c083240f7aacaa2d0f628787604051808381526020018281526020019250505060405180910390a450949350505050565b6000613806876001600160a01b031661525d565b613812575060016139d2565b6138506040518060400160405280600581526020017f5245414348000000000000000000000000000000000000000000000000000000815250614c47565b82156138855761385f87615294565b61388557811561387d57613876898989898861535c565b90506139d2565b5060016139d2565b63f23a6e6160e01b7bffffffffffffffffffffffffffffffffffffffffffffffffffffffff1916876001600160a01b031663f23a6e618b8b8a8a8a6040518663ffffffff1660e01b815260040180866001600160a01b03166001600160a01b03168152602001856001600160a01b03166001600160a01b0316815260200184815260200183815260200180602001828103825283818151815260200191508051906020019080838360005b83811015613948578181015183820152602001613930565b50505050905090810190601f1680156139755780820380516001836020036101000a031916815260200191505b509650505050505050602060405180830381600087803b15801561399857600080fd5b505af11580156139ac573d6000803e3d6000fd5b505050506040513d60208110156139c257600080fd5b50516001600160e01b0319161490505b98975050505050505050565b825160008080808080805b87811015613f865760006b8000000000000000000000008c8381518110613a0c57fe5b6020026020010151161115613cb5578880613a625750336001600160a01b0316600760008d8481518110613a3c57fe5b6020908102919091018101518252810191909152604001600020546001600160a01b0316145b613ab3576040805162461bcd60e51b815260206004820152601560248201527f4f70657261746f72206e6f7420617070726f7665640000000000000000000000604482015290519081900360640190fd5b60008a8281518110613ac157fe5b60200260200101511115613cb057898181518110613adb57fe5b6020026020010151600114613b215760405162461bcd60e51b8152600401808060200182810382526023815260200180615ab76023913960400191505060405180910390fd5b8c6001600160a01b0316613b478c8381518110613b3a57fe5b6020026020010151613097565b6001600160a01b031614613b8e576040805162461bcd60e51b81526020600482015260096024820152683737ba1037bbb732b960b91b604482015290519081900360640190fd5b81806001019250508b6001600160a01b0316600460008d8481518110613bb057fe5b602002602001015181526020019081526020016000208190555060006001600160a01b0316600760008d8481518110613be557fe5b6020908102919091018101518252810191909152604001600020546001600160a01b031614613c5b576000600760008d8481518110613c2057fe5b6020026020010151815260200190815260200160002060006101000a8154816001600160a01b0302191690836001600160a01b031602179055505b8a8181518110613c6757fe5b60200260200101518c6001600160a01b03168e6001600160a01b03167fddf252ad1be2c89b69c2b068fc378daa952ba7f163c4a11628f55a4df523b3ef60405160405180910390a45b613f7e565b88613d07576040805162461bcd60e51b815260206004820152601560248201527f4f70657261746f72206e6f7420617070726f7665640000000000000000000000604482015290519081900360640190fd5b8b6001600160a01b03168d6001600160a01b03161415613d5257613cb08d8c8381518110613d3157fe5b60200260200101518c8481518110613d4557fe5b6020026020010151615485565b60008a8281518110613d6057fe5b60200260200101511115613f7e57613d8a8b8281518110613d7d57fe5b60200260200101516130a9565b909750955082613e30576001600160a01b038d1660009081526005602090815260408083208a84529091529020548a51889450613ddf919088908d9085908110613dd057fe5b60200260200101516001615131565b6001600160a01b038d1660009081526005602090815260408083208b84529091529020548b51919650613e299188908d9085908110613e1a57fe5b60200260200101516000615131565b9350613f7e565b828714613f235784600560008f6001600160a01b03166001600160a01b0316815260200190815260200160002060008581526020019081526020016000208190555083600560008e6001600160a01b03166001600160a01b03168152602001908152602001600020600085815260200190815260200160002081905550600560008e6001600160a01b03166001600160a01b031681526020019081526020016000206000888152602001908152602001600020549450600560008d6001600160a01b03166001600160a01b0316815260200190815260200160002060008881526020019081526020016000205493508692505b613f4e868b8381518110613f3357fe5b6020026020010151600188615131909392919063ffffffff16565b9450613f7b868b8381518110613f6057fe5b6020026020010151600087615131909392919063ffffffff16565b93505b6001016139e9565b50600081118015613fa957508a6001600160a01b03168c6001600160a01b031614155b15613fdc576001600160a01b03808d1660009081526003602052604080822080548590039055918d168152208054820190555b8515801590613ffd57508a6001600160a01b03168c6001600160a01b031614155b1561403e576001600160a01b03808d1660009081526005602081815260408084208b85528252808420899055938f1683529081528282208983529052208390555b505050505050505050505050565b6000614060856001600160a01b031661525d565b61406c57506001614232565b6000856001600160a01b031663bc197c8189898888886040518663ffffffff1660e01b815260040180866001600160a01b03166001600160a01b03168152602001856001600160a01b03166001600160a01b03168152602001806020018060200180602001848103845287818151815260200191508051906020019060200280838360005b838110156141095781810151838201526020016140f1565b50505050905001848103835286818151815260200191508051906020019060200280838360005b83811015614148578181015183820152602001614130565b50505050905001848103825285818151815260200191508051906020019080838360005b8381101561418457818101518382015260200161416c565b50505050905090810190601f1680156141b15780820380516001836020036101000a031916815260200191505b5098505050505050505050602060405180830381600087803b1580156141d657600080fd5b505af11580156141ea573d6000803e3d6000fd5b505050506040513d602081101561420057600080fd5b50516001600160e01b0319167fbc197c8100000000000000000000000000000000000000000000000000000000149150505b9695505050505050565b60606142478361314a565b6142546107ff8416615509565b60405160200180807f697066733a2f2f62616679626569000000000000000000000000000000000000815250600e0183805190602001908083835b602083106142ae5780518252601f19909201916020918201910161428f565b6001836020036101000a038019825116818451168082178552505050505050905001807f2f0000000000000000000000000000000000000000000000000000000000000081525060010182805190602001908083835b602083106143235780518252601f199092019160209182019101614304565b5181516020939093036101000a60001901801990911692169190911790527f2e6a736f6e000000000000000000000000000000000000000000000000000000920191825250604080518083037fffffffffffffffffffffffffffffffffffffffffffffffffffffffffffffffe5018152600590920190529695505050505050565b6001600160a01b0383166143ff576040805162461bcd60e51b815260206004820152601660248201527f73656e646572206973207a65726f206164647265737300000000000000000000604482015290519081900360640190fd5b816001600160a01b0316836001600160a01b03161415614466576040805162461bcd60e51b815260206004820152601160248201527f73656e646572203d206f70657261746f72000000000000000000000000000000604482015290519081900360640190fd5b6001600160a01b0382166144c1576040805162461bcd60e51b815260206004820152601860248201527f6f70657261746f72206973207a65726f20616464726573730000000000000000604482015290519081900360640190fd5b6001600160a01b03821660009081526001602052604090205460ff16156145195760405162461bcd60e51b8152600401808060200182810382526036815260200180615b926036913960400191505060405180910390fd5b6001600160a01b03838116600081815260066020908152604080832094871680845294825291829020805460ff1916861515908117909155825190815291517f17307eab39ab6107e8899845ad3d59bd9653f200f220920489ca2b5937696c319281900390910190a3505050565b6000808511801561459c575063ffffffff8511155b6145ed576040805162461bcd60e51b815260206004820152600e60248201527f696e76616c696420737570706c79000000000000000000000000000000000000604482015290519081900360640190fd5b61ffff8083169084166108000264ffffffffff8616628000000260018814614616576000614624565b6b8000000000000000000000005b6001600160a01b038a166c010000000000000000000000000201010101905095945050505050565b6bffffffff80000000000007ff1983168161479957600081815260086020526040902054156146c2576040805162461bcd60e51b815260206004820152600f60248201527f696420616c726561647920757365640000000000000000000000000000000000604482015290519081900360640190fd5b6000818152600860205260409020899055600460ff88161061472b576040805162461bcd60e51b815260206004820152600b60248201527f726172697479203e3d2034000000000000000000000000000000000000000000604482015290519081900360640190fd5b6040805160018082528183019092526060916020820181803883390190505090508760400260f81b8160008151811061476057fe5b60200101906001600160f81b031916908160001a9053506000828152600960209081526040909120825161479692840190615a1e565b50505b8760011415614801576001600160a01b038516600081815260036020908152604080832080546001019055878352600490915280822083905551869291907fddf252ad1be2c89b69c2b068fc378daa952ba7f163c4a11628f55a4df523b3ef908290a4614874565b60008061480d866130a9565b6001600160a01b0389166000908152600560209081526040808320858452909152902054919350915061484990828c600263ffffffff61513116565b6001600160a01b03881660009081526005602090815260408083209583529490529290922091909155505b60408051858152602081018a905281516001600160a01b0380891693600093918b16927fc3d58168c5ae7397731d063d5bbf3d657854427343f4c083240f7aacaa2d0f629281900390910190a46148d386600087878c886000806137f2565b614924576040805162461bcd60e51b815260206004820152601160248201527f7472616e736665722072656a6563746564000000000000000000000000000000604482015290519081900360640190fd5b505050505050505050565b6060600080865111614988576040805162461bcd60e51b815260206004820152601460248201527f737570706c6965732e6c656e677468203d3d2030000000000000000000000000604482015290519081900360640190fd5b855161080010156149e0576040805162461bcd60e51b815260206004820152600d60248201527f746f6f2062696720626174636800000000000000000000000000000000000000604482015290519081900360640190fd5b6149eb8787866155dd565b809250819350505060006bffffffff80000000000007ff1983600081518110614a1057fe5b6020026020010151169050600860008281526020019081526020016000205460001c600014614a86576040805162461bcd60e51b815260206004820152600f60248201527f696420616c726561647920757365640000000000000000000000000000000000604482015290519081900360640190fd5b6000818152600860209081526040808320879055600982529091208751614aaf92890190615a1e565b50509550959350505050565b60005b8161ffff168551038161ffff161015614ae557614add81868686615742565b600801614abe565b61ffff821615614b0657614b068261ffff168651038361ffff16868661584c565b5050505050565b836001600160a01b031660006001600160a01b0316866001600160a01b03167f4a39dc06d4c0dbc64b70af90fd698a233a518aa5d07e595d983b8c0526c8f7fb8686604051808060200180602001838103835285818151815260200191508051906020019060200280838360005b83811015614b93578181015183820152602001614b7b565b50505050905001838103825284818151815260200191508051906020019060200280838360005b83811015614bd2578181015183820152602001614bba565b5050505090500194505050505060405180910390a4614bf68560008686868661404c565b614b06576040805162461bcd60e51b815260206004820152601160248201527f7472616e736665722072656a6563746564000000000000000000000000000000604482015290519081900360640190fd5b614d1b816040516024018080602001828103825283818151815260200191508051906020019080838360005b83811015614c8b578181015183820152602001614c73565b50505050905090810190601f168015614cb85780820380516001836020036101000a031916815260200191505b5060408051601f198184030181529190526020810180517bffffffffffffffffffffffffffffffffffffffffffffffffffffffff167f41304fac000000000000000000000000000000000000000000000000000000001790529250614d1e915050565b50565b80516a636f6e736f6c652e6c6f67602083016000808483855afa5050505050565b6060808690506060869050606086905060608690506060869050606081518351855187518951010101016040519080825280601f01601f191660200182016040528015614d93576020820181803883390190505b509050806000805b8851811015614dec57888181518110614db057fe5b602001015160f81c60f81b838380600101945081518110614dcd57fe5b60200101906001600160f81b031916908160001a905350600101614d9b565b5060005b8751811015614e4157878181518110614e0557fe5b602001015160f81c60f81b838380600101945081518110614e2257fe5b60200101906001600160f81b031916908160001a905350600101614df0565b5060005b8651811015614e9657868181518110614e5a57fe5b602001015160f81c60f81b838380600101945081518110614e7757fe5b60200101906001600160f81b031916908160001a905350600101614e45565b5060005b8551811015614eeb57858181518110614eaf57fe5b602001015160f81c60f81b838380600101945081518110614ecc57fe5b60200101906001600160f81b031916908160001a905350600101614e9a565b5060005b8451811015614f4057848181518110614f0457fe5b602001015160f81c60f81b838380600101945081518110614f2157fe5b60200101906001600160f81b031916908160001a905350600101614eef565b50909d9c50505050505050505050505050565b614f5c81613097565b6001600160a01b0316826001600160a01b031614614fad576040805162461bcd60e51b81526020600482015260096024820152683737ba1037bbb732b960b91b604482015290519081900360640190fd5b60008181526004602090815260408083207401000000000000000000000000000000000000000090556001600160a01b0385168084526003909252808320805460001901905551839291907fddf252ad1be2c89b69c2b068fc378daa952ba7f163c4a11628f55a4df523b3ef908390a4604080518281526001602082015281516000926001600160a01b0386811693908816927fc3d58168c5ae7397731d063d5bbf3d657854427343f4c083240f7aacaa2d0f62929181900390910190a4505050565b60008061507c846130a9565b6001600160a01b038716600090815260056020908152604080832085845290915290205491935091506150bc908263ffffffff8087169060019061513116565b6001600160a01b038087166000818152600560209081526040808320888452825280832095909555845189815263ffffffff8916918101919091528451919492938b16927fc3d58168c5ae7397731d063d5bbf3d657854427343f4c083240f7aacaa2d0f6292918290030190a4505050505050565b6000808083600281111561514157fe5b1415615174576151518686613130565b905061516d8686615168848863ffffffff61590116565b615959565b9150615254565b600183600281111561518257fe5b14156151e8576151928686613130565b9050838110156151d35760405162461bcd60e51b8152600401808060200182810382526022815260200180615bf46022913960400191505060405180910390fd5b61516d8686615168848863ffffffff6159c116565b60028360028111156151f657fe5b14156152075761516d868686615959565b6040805162461bcd60e51b815260206004820152601160248201527f496e76616c6964206f7065726174696f6e000000000000000000000000000000604482015290519081900360640190fd5b50949350505050565b60007fc5d2460186f7233c927e7db2dcc703c0e500b653ca82273b7bfad8045d85a470823f80158015906132465750141592915050565b604080517f4e2312e0000000000000000000000000000000000000000000000000000000006024808301919091528251808303909101815260449091018252602081810180517bffffffffffffffffffffffffffffffffffffffffffffffffffffffff167f01ffc9a7000000000000000000000000000000000000000000000000000000001781528251935160008082529485948594909392908183858b612710fa955080519450505050609e5a1161534957fe5b8280156153535750815b95945050505050565b6040517f150b7a02000000000000000000000000000000000000000000000000000000008082526001600160a01b03878116600484019081528782166024850152604484018690526080606485019081528551608486015285516000959389169363150b7a02938c938c938b938b93929160a49091019060208501908083838f5b838110156153f55781810151838201526020016153dd565b50505050905090810190601f1680156154225780820380516001836020036101000a031916815260200191505b5095505050505050602060405180830381600087803b15801561544457600080fd5b505af1158015615458573d6000803e3d6000fd5b505050506040513d602081101561546e57600080fd5b50516001600160e01b031916149695505050505050565b600080615491846130a9565b6001600160a01b0387166000908152600560209081526040808320858452909152902054919350915083906154cc908363ffffffff61313016565b1015614b065760405162461bcd60e51b8152600401808060200182810382526022815260200180615bf46022913960400191505060405180910390fd5b60608161554a575060408051808201909152600181527f300000000000000000000000000000000000000000000000000000000000000060208201526110a9565b8160005b811561556257600101600a8204915061554e565b6060816040519080825280601f01601f19166020018201604052801561558f576020820181803883390190505b50905060001982015b851561525457600a860660300160f81b828280600190039350815181106155bb57fe5b60200101906001600160f81b031916908160001a905350600a86049550615598565b60606000808451905060608161ffff16604051908082528060200260200182016040528015615616578160200160208202803883390190505b5090506000805b8361ffff168161ffff1610156156d55761ffff821661566157878161ffff168151811061564657fe5b60200260200101516001141561565c5780840391505b6156cd565b878161ffff168151811061567157fe5b60200260200101516001146156cd576040805162461bcd60e51b815260206004820152601e60248201527f4e465473206e65656420746f206265207075742061742074686520656e640000604482015290519081900360640190fd5b60010161561d565b5080830360005b8461ffff168161ffff161015615733576157108a8a8361ffff168151811061570057fe5b60200260200101518a8585614587565b848261ffff168151811061572057fe5b60209081029190910101526001016156dc565b50919890975095505050505050565b6000818561ffff168151811061575457fe5b6020026020010151905060008061576a836130a9565b6001600160a01b03871660009081526005602090815260408083208584529091528120549294509092505b6008811080156157ab57508751818a61ffff1601105b1561581a576000818a61ffff1601905060018982815181106157c957fe5b6020026020010151111561580b576158048285018a83815181106157e957fe5b6020026020010151600286615131909392919063ffffffff16565b9250615811565b5061581a565b50600101615795565b506001600160a01b03909516600090815260056020908152604080832094835293905291909120939093555050505050565b60005b8363ffffffff168161ffff1610156158d55760008286830161ffff168151811061587557fe5b6020908102919091018101516000818152600490925260408083206001600160a01b038816908190559051919350839290917fddf252ad1be2c89b69c2b068fc378daa952ba7f163c4a11628f55a4df523b3ef908290a45060010161584f565b50506001600160a01b03166000908152600360205260409020805463ffffffff90921691909101905550565b81810182811015610fa1576040805162461bcd60e51b815260206004820152600860248201527f6f766572666c6f77000000000000000000000000000000000000000000000000604482015290519081900360640190fd5b6000640100000000821061599e5760405162461bcd60e51b8152600401808060200182810382526023815260200180615b006023913960400191505060405180910390fd5b5063ffffffff600183016020026101000390811b1984169082901b179392505050565b600082821115615a18576040805162461bcd60e51b815260206004820152600860248201527f756e6465666c6f77000000000000000000000000000000000000000000000000604482015290519081900360640190fd5b50900390565b828054600181600116156101000203166002900490600052602060002090601f016020900481019282601f10615a5f57805160ff1916838001178555615a8c565b82800160010185558215615a8c579182015b82811115615a8c578251825591602001919060010190615a71565b50615a98929150615a9c565b5090565b6111a391905b80821115615a985760008155600101615aa256fe63616e6e6f74207472616e73666572206e667420696620616d6f756e74206e6f742031496e636f6e73697374656e74206172726179206c656e677468206265747765656e2061726773416d6f756e7420746f20777269746520696e2062696e20697320746f6f206c617267656f6e6c7920626f756e63657241646d696e2063616e206368616e676520697473656c666f6e6c7920626f756e63657241646d696e2063616e20736574757020626f756e636572736e6f20636f6c6c656374696f6e2065766572206d696e74656420666f72207468617420746f6b656e7375706572206f70657261746f722063616e2774206861766520746865697220617070726f76616c466f72416c6c206368616e6765646f6e6c792061646d696e20697320616c6c6f77656420746f20616464207375706572206f70657261746f727363616e277420737562737472616374206d6f7265207468616e2074686572652069736f6e6c792061646d696e2063616e207365747570206d6574615472616e73616374696f6e50726f636573736f7273a265627a7a7230582031aee2fccfae440425bf7cc5fa849c56c4432ed222d084c3b18c46db3e2d1fb364736f6c63430005090032",
  "linkReferences": {},
  "deployedLinkReferences": {}
}