{
  "_format": "hh-sol-artifact-1",
  "contractName": "ReferrableSale",
  "sourceName": "contracts/v2/contracts_common/BaseWithStorage/ReferrableSale.sol",
  "abi": [
    {
      "constant": false,
      "inputs": [
        {
          "name": "_referrer",
          "type": "address"
        },
        {
          "name": "_customReferralPercentage",
          "type": "uint256"
        }
      ],
      "name": "setCustomReferral",
      "outputs": [],
      "payable": false,
      "stateMutability": "nonpayable",
      "type": "function"
    },
    {
      "constant": true,
      "inputs": [],
      "name": "defaultReferralPercentage",
      "outputs": [
        {
          "name": "",
          "type": "uint256"
        }
      ],
      "payable": false,
      "stateMutability": "view",
      "type": "function"
    },
    {
      "constant": true,
      "inputs": [
        {
          "name": "",
          "type": "address"
        }
      ],
      "name": "customReferralPercentages",
      "outputs": [
        {
          "name": "",
          "type": "uint256"
        }
      ],
      "payable": false,
      "stateMutability": "view",
      "type": "function"
    },
    {
      "constant": true,
      "inputs": [],
      "name": "owner",
      "outputs": [
        {
          "name": "",
          "type": "address"
        }
      ],
      "payable": false,
      "stateMutability": "view",
      "type": "function"
    },
    {
      "constant": false,
      "inputs": [
        {
          "name": "_defaultReferralPercentage",
          "type": "uint256"
        }
      ],
      "name": "setDefaultReferral",
      "outputs": [],
      "payable": false,
      "stateMutability": "nonpayable",
      "type": "function"
    },
    {
      "constant": false,
      "inputs": [
        {
          "name": "_newOwner",
          "type": "address"
        }
      ],
      "name": "transferOwnership",
      "outputs": [],
      "payable": false,
      "stateMutability": "nonpayable",
      "type": "function"
    },
    {
      "anonymous": false,
      "inputs": [
        {
          "indexed": false,
          "name": "percentage",
          "type": "uint256"
        }
      ],
      "name": "DefaultReferralSet",
      "type": "event"
    },
    {
      "anonymous": false,
      "inputs": [
        {
          "indexed": true,
          "name": "referrer",
          "type": "address"
        },
        {
          "indexed": false,
          "name": "percentage",
          "type": "uint256"
        }
      ],
      "name": "CustomReferralSet",
      "type": "event"
    },
    {
      "anonymous": false,
      "inputs": [
        {
          "indexed": true,
          "name": "previousOwner",
          "type": "address"
        },
        {
          "indexed": true,
          "name": "newOwner",
          "type": "address"
        }
      ],
      "name": "OwnershipTransferred",
      "type": "event"
    }
  ],
  "bytecode": "0x6080604052600080546001600160a01b0319163317905561047c806100256000396000f3fe608060405234801561001057600080fd5b50600436106100725760003560e01c80638da5cb5b116100505780638da5cb5b146100e5578063a427b11b14610109578063f2fde38b1461012657610072565b80632f3d80d51461007757806371119030146100a5578063778fc99c146100bf575b600080fd5b6100a36004803603604081101561008d57600080fd5b506001600160a01b03813516906020013561014c565b005b6100ad61024e565b60408051918252519081900360200190f35b6100ad600480360360208110156100d557600080fd5b50356001600160a01b0316610254565b6100ed610266565b604080516001600160a01b039092168252519081900360200190f35b6100a36004803603602081101561011f57600080fd5b5035610275565b6100a36004803603602081101561013c57600080fd5b50356001600160a01b0316610348565b6000546001600160a01b0316331461016357600080fd5b61271081106101a35760405162461bcd60e51b81526004018080602001828103825260268152602001806104226026913960400191505060405180910390fd5b6001600160a01b0382166000908152600260205260409020548114156101fa5760405162461bcd60e51b81526004018080602001828103825260308152602001806103f26030913960400191505060405180910390fd5b6001600160a01b038216600081815260026020908152604091829020849055815184815291517f15e1d4a46b89dcc844510d60687674a21af1bdbd734baa871c1fc38f796c5e1f9281900390910190a25050565b60015481565b60026020526000908152604090205481565b6000546001600160a01b031681565b6000546001600160a01b0316331461028c57600080fd5b61271081106102cc5760405162461bcd60e51b81526004018080602001828103825260268152602001806104226026913960400191505060405180910390fd5b60015481141561030d5760405162461bcd60e51b81526004018080602001828103825260308152602001806103f26030913960400191505060405180910390fd5b60018190556040805182815290517f5c0e6b703d8594844873d744295427118a2293ca9484978d3a96052cbda0b97f9181900360200190a150565b6000546001600160a01b0316331461035f57600080fd5b6103688161036b565b50565b6001600160a01b03811661037e57600080fd5b600080546040516001600160a01b03808516939216917f8be0079c531659141344cd1fd0a4f28419497f9722a3daafe3b4186f6b6457e091a3600080547fffffffffffffffffffffffff0000000000000000000000000000000000000000166001600160a01b039290921691909117905556fe4e657720726566657272616c206d75737420626520646966666572656e742066726f6d207468652070726576696f7573526566657272616c206d757374206265206c657373207468616e203130302070657263656e74a265627a7a72305820b0365a37fc8377ed12caac1945522588696f1fd9213b4875ab3a1d3371495bbf64736f6c63430005090032",
  "linkReferences": {},
  "deployedLinkReferences": {}
}