{
  "_format": "hh-sol-artifact-1",
  "contractName": "Withdrawable",
  "sourceName": "contracts/v2/contracts_common/BaseWithStorage/Withdrawable.sol",
  "abi": [
    {
      "constant": false,
      "inputs": [
        {
          "name": "_token",
          "type": "address"
        },
        {
          "name": "_destination",
          "type": "address"
        }
      ],
      "name": "withdrawToken",
      "outputs": [],
      "payable": false,
      "stateMutability": "nonpayable",
      "type": "function"
    },
    {
      "constant": true,
      "inputs": [],
      "name": "owner",
      "outputs": [
        {
          "name": "",
          "type": "address"
        }
      ],
      "payable": false,
      "stateMutability": "view",
      "type": "function"
    },
    {
      "constant": false,
      "inputs": [
        {
          "name": "_destination",
          "type": "address"
        }
      ],
      "name": "withdrawEther",
      "outputs": [],
      "payable": false,
      "stateMutability": "nonpayable",
      "type": "function"
    },
    {
      "constant": false,
      "inputs": [
        {
          "name": "_newOwner",
          "type": "address"
        }
      ],
      "name": "transferOwnership",
      "outputs": [],
      "payable": false,
      "stateMutability": "nonpayable",
      "type": "function"
    },
    {
      "anonymous": false,
      "inputs": [
        {
          "indexed": true,
          "name": "previousOwner",
          "type": "address"
        },
        {
          "indexed": true,
          "name": "newOwner",
          "type": "address"
        }
      ],
      "name": "OwnershipTransferred",
      "type": "event"
    }
  ],
  "bytecode": "0x6080604052600080546001600160a01b031916331790556103da806100256000396000f3fe608060405234801561001057600080fd5b506004361061004c5760003560e01c80633aeac4e1146100515780638da5cb5b14610081578063af933b57146100a5578063f2fde38b146100cb575b600080fd5b61007f6004803603604081101561006757600080fd5b506001600160a01b03813581169160200135166100f1565b005b6100896102a0565b604080516001600160a01b039092168252519081900360200190f35b61007f600480360360208110156100bb57600080fd5b50356001600160a01b03166102af565b61007f600480360360208110156100e157600080fd5b50356001600160a01b03166102fc565b6000546001600160a01b0316331461010857600080fd5b604080517f70a0823100000000000000000000000000000000000000000000000000000000815230600482015290516001600160a01b0384169163a9059cbb91849184916370a0823191602480820192602092909190829003018186803b15801561017257600080fd5b505afa158015610186573d6000803e3d6000fd5b505050506040513d602081101561019c57600080fd5b5051604080517fffffffff0000000000000000000000000000000000000000000000000000000060e086901b1681526001600160a01b03909316600484015260248301919091525160448083019260209291908290030181600087803b15801561020557600080fd5b505af1158015610219573d6000803e3d6000fd5b505050506040513d602081101561022f57600080fd5b505161029c57604080517f08c379a000000000000000000000000000000000000000000000000000000000815260206004820152600f60248201527f5472616e73666572206661696c65640000000000000000000000000000000000604482015290519081900360640190fd5b5050565b6000546001600160a01b031681565b6000546001600160a01b031633146102c657600080fd5b6040516001600160a01b03821690303180156108fc02916000818181858888f1935050505015801561029c573d6000803e3d6000fd5b6000546001600160a01b0316331461031357600080fd5b61031c8161031f565b50565b6001600160a01b03811661033257600080fd5b600080546040516001600160a01b03808516939216917f8be0079c531659141344cd1fd0a4f28419497f9722a3daafe3b4186f6b6457e091a3600080547fffffffffffffffffffffffff0000000000000000000000000000000000000000166001600160a01b039290921691909117905556fea265627a7a72305820908af1e4c982e80bead430c345799856dfbfa86cd740772f5b9a9d2ccc1b047464736f6c63430005090032",
  "linkReferences": {},
  "deployedLinkReferences": {}
}