{
  "_format": "hh-sol-artifact-1",
  "contractName": "SuperOperators",
  "sourceName": "contracts/v2/contracts_common/BaseWithStorage/SuperOperators.sol",
  "abi": [
    {
      "constant": true,
      "inputs": [
        {
          "name": "who",
          "type": "address"
        }
      ],
      "name": "isSuperOperator",
      "outputs": [
        {
          "name": "",
          "type": "bool"
        }
      ],
      "payable": false,
      "stateMutability": "view",
      "type": "function"
    },
    {
      "constant": true,
      "inputs": [],
      "name": "getAdmin",
      "outputs": [
        {
          "name": "",
          "type": "address"
        }
      ],
      "payable": false,
      "stateMutability": "view",
      "type": "function"
    },
    {
      "constant": false,
      "inputs": [
        {
          "name": "newAdmin",
          "type": "address"
        }
      ],
      "name": "changeAdmin",
      "outputs": [],
      "payable": false,
      "stateMutability": "nonpayable",
      "type": "function"
    },
    {
      "constant": false,
      "inputs": [
        {
          "name": "superOperator",
          "type": "address"
        },
        {
          "name": "enabled",
          "type": "bool"
        }
      ],
      "name": "setSuperOperator",
      "outputs": [],
      "payable": false,
      "stateMutability": "nonpayable",
      "type": "function"
    },
    {
      "anonymous": false,
      "inputs": [
        {
          "indexed": false,
          "name": "superOperator",
          "type": "address"
        },
        {
          "indexed": false,
          "name": "enabled",
          "type": "bool"
        }
      ],
      "name": "SuperOperator",
      "type": "event"
    },
    {
      "anonymous": false,
      "inputs": [
        {
          "indexed": false,
          "name": "oldAdmin",
          "type": "address"
        },
        {
          "indexed": false,
          "name": "newAdmin",
          "type": "address"
        }
      ],
      "name": "AdminChanged",
      "type": "event"
    }
  ],
  "bytecode": "0x608060405234801561001057600080fd5b50610373806100206000396000f3fe608060405234801561001057600080fd5b506004361061004c5760003560e01c8063654b748a146100515780636e9960c31461008b5780638f283970146100af578063ac9fe421146100d7575b600080fd5b6100776004803603602081101561006757600080fd5b50356001600160a01b0316610105565b604080519115158252519081900360200190f35b610093610123565b604080516001600160a01b039092168252519081900360200190f35b6100d5600480360360208110156100c557600080fd5b50356001600160a01b0316610132565b005b6100d5600480360360408110156100ed57600080fd5b506001600160a01b038135169060200135151561022d565b6001600160a01b031660009081526001602052604090205460ff1690565b6000546001600160a01b031690565b6000546001600160a01b031633146101ab57604080517f08c379a000000000000000000000000000000000000000000000000000000000815260206004820152601b60248201527f6f6e6c792061646d696e2063616e206368616e67652061646d696e0000000000604482015290519081900360640190fd5b600054604080516001600160a01b039283168152918316602083015280517f7e644d79422f17c01e4894b5f4f588d331ebfa28653d42ae832dc59e38c9798f9281900390910190a1600080547fffffffffffffffffffffffff0000000000000000000000000000000000000000166001600160a01b0392909216919091179055565b6000546001600160a01b03163314610290576040517f08c379a000000000000000000000000000000000000000000000000000000000815260040180806020018281038252602c815260200180610313602c913960400191505060405180910390fd5b6001600160a01b03821660008181526001602090815260409182902080547fffffffffffffffffffffffffffffffffffffffffffffffffffffffffffffff001685151590811790915582519384529083015280517f44f92d27abdf4cfb6a7d712c3af68f3be086d4ca747ab802c36f67d6790060d89281900390910190a1505056fe6f6e6c792061646d696e20697320616c6c6f77656420746f20616464207375706572206f70657261746f7273a265627a7a723058209ade91bfd0d38d15574e810618547edf5c5a1a875d558d8bd42cb3e53198a3ba64736f6c63430005090032",
  "linkReferences": {},
  "deployedLinkReferences": {}
}