{
  "_format": "hh-sol-artifact-1",
  "contractName": "GenesisBouncer",
  "sourceName": "contracts/v2/Asset/GenesisBouncer.sol",
  "abi": [
    {
      "constant": true,
      "inputs": [],
      "name": "getAdmin",
      "outputs": [
        {
          "name": "",
          "type": "address"
        }
      ],
      "payable": false,
      "stateMutability": "view",
      "type": "function"
    },
    {
      "constant": false,
      "inputs": [
        {
          "name": "creator",
          "type": "address"
        },
        {
          "name": "packId",
          "type": "uint40"
        },
        {
          "name": "hash",
          "type": "bytes32"
        },
        {
          "name": "supply",
          "type": "uint32"
        },
        {
          "name": "rarity",
          "type": "uint8"
        },
        {
          "name": "owner",
          "type": "address"
        }
      ],
      "name": "mintFor",
      "outputs": [
        {
          "name": "tokenId",
          "type": "uint256"
        }
      ],
      "payable": false,
      "stateMutability": "nonpayable",
      "type": "function"
    },
    {
      "constant": false,
      "inputs": [
        {
          "name": "creator",
          "type": "address"
        },
        {
          "name": "packId",
          "type": "uint40"
        },
        {
          "name": "hash",
          "type": "bytes32"
        },
        {
          "name": "supplies",
          "type": "uint256[]"
        },
        {
          "name": "rarityPack",
          "type": "bytes"
        },
        {
          "name": "owner",
          "type": "address"
        }
      ],
      "name": "mintMultipleFor",
      "outputs": [
        {
          "name": "ids",
          "type": "uint256[]"
        }
      ],
      "payable": false,
      "stateMutability": "nonpayable",
      "type": "function"
    },
    {
      "constant": false,
      "inputs": [
        {
          "name": "newAdmin",
          "type": "address"
        }
      ],
      "name": "changeAdmin",
      "outputs": [],
      "payable": false,
      "stateMutability": "nonpayable",
      "type": "function"
    },
    {
      "constant": false,
      "inputs": [
        {
          "name": "minter",
          "type": "address"
        },
        {
          "name": "allowed",
          "type": "bool"
        }
      ],
      "name": "setMinter",
      "outputs": [],
      "payable": false,
      "stateMutability": "nonpayable",
      "type": "function"
    },
    {
      "inputs": [
        {
          "name": "asset",
          "type": "address"
        },
        {
          "name": "genesisAdmin",
          "type": "address"
        },
        {
          "name": "firstMinter",
          "type": "address"
        }
      ],
      "payable": false,
      "stateMutability": "nonpayable",
      "type": "constructor"
    },
    {
      "anonymous": false,
      "inputs": [
        {
          "indexed": false,
          "name": "minter",
          "type": "address"
        },
        {
          "indexed": false,
          "name": "allowed",
          "type": "bool"
        }
      ],
      "name": "MinterUpdated",
      "type": "event"
    },
    {
      "anonymous": false,
      "inputs": [
        {
          "indexed": false,
          "name": "oldAdmin",
          "type": "address"
        },
        {
          "indexed": false,
          "name": "newAdmin",
          "type": "address"
        }
      ],
      "name": "AdminChanged",
      "type": "event"
    }
  ],
  "bytecode": "0x608060405234801561001057600080fd5b506040516109c63803806109c68339818101604052606081101561003357600080fd5b5080516020820151604090920151600180546001600160a01b038085166001600160a01b031992831617835560008054918716919092161790559192916100849082906001600160e01b0361008c16565b5050506100f0565b6001600160a01b038216600081815260026020908152604091829020805460ff191685151590811790915582519384529083015280517fb21afb9ce9be0a676f8f317ff0ca072fb89a4f8ce2d1b6fe80f8755c14f1cb199281900390910190a15050565b6108c7806100ff6000396000f3fe608060405234801561001057600080fd5b50600436106100675760003560e01c80638cb753ca116100505780638cb753ca146100f85780638f283970146102a0578063cf456ae7146102c857610067565b80636e9960c31461006c578063814d947014610090575b600080fd5b6100746102f6565b604080516001600160a01b039092168252519081900360200190f35b6100e6600480360360c08110156100a657600080fd5b506001600160a01b03813581169164ffffffffff6020820135169160408201359163ffffffff6060820135169160ff6080830135169160a0013516610305565b60408051918252519081900360200190f35b610250600480360360c081101561010e57600080fd5b6001600160a01b038235169164ffffffffff602082013516916040820135919081019060808101606082013564010000000081111561014c57600080fd5b82018360208201111561015e57600080fd5b8035906020019184602083028401116401000000008311171561018057600080fd5b91908080602002602001604051908101604052809392919081815260200183836020028082843760009201919091525092959493602081019350359150506401000000008111156101d057600080fd5b8201836020820111156101e257600080fd5b8035906020019184600183028401116401000000008311171561020457600080fd5b91908080601f016020809104026020016040519081016040528093929190818152602001838380828437600092019190915250929550505090356001600160a01b031691506104539050565b60408051602080825283518183015283519192839290830191858101910280838360005b8381101561028c578181015183820152602001610274565b505050509050019250505060405180910390f35b6102c6600480360360208110156102b657600080fd5b50356001600160a01b03166106c2565b005b6102c6600480360360408110156102de57600080fd5b506001600160a01b03813516906020013515156107a3565b6000546001600160a01b031690565b3360009081526002602052604081205460ff16610369576040805162461bcd60e51b815260206004820152600e60248201527f6e6f7420617574686f72697a6564000000000000000000000000000000000000604482015290519081900360640190fd5b600154604080517fcfb5a71f0000000000000000000000000000000000000000000000000000000081526001600160a01b038a8116600483015264ffffffffff8a1660248301526044820189905263ffffffff8816606483015260ff8716608483015285811660a4830152600060e4830181905261010060c48401526101048301819052925193169263cfb5a71f9261014480840193602093929083900390910190829087803b15801561041c57600080fd5b505af1158015610430573d6000803e3d6000fd5b505050506040513d602081101561044657600080fd5b5051979650505050505050565b3360009081526002602052604090205460609060ff166104ba576040805162461bcd60e51b815260206004820152600e60248201527f6e6f7420617574686f72697a6564000000000000000000000000000000000000604482015290519081900360640190fd5b6001546040517ff0bc00d80000000000000000000000000000000000000000000000000000000081526001600160a01b038981166004830190815264ffffffffff8a1660248401526044830189905285821660a484015260e060648401908152885160e48501528851929094169363f0bc00d8938c938c938c938c938c938c939291608481019160c482019161010401906020808a01910280838360005b83811015610570578181015183820152602001610558565b50505050905001848103835286818151815260200191508051906020019080838360005b838110156105ac578181015183820152602001610594565b50505050905090810190601f1680156105d95780820380516001836020036101000a031916815260200191505b508481038252600081526020016020019950505050505050505050600060405180830381600087803b15801561060e57600080fd5b505af1158015610622573d6000803e3d6000fd5b505050506040513d6000823e601f3d9081017fffffffffffffffffffffffffffffffffffffffffffffffffffffffffffffffe0168201604052602081101561066957600080fd5b81019080805164010000000081111561068157600080fd5b8201602081018481111561069457600080fd5b81518560208202830111640100000000821117156106b157600080fd5b50909b9a5050505050505050505050565b6000546001600160a01b03163314610721576040805162461bcd60e51b815260206004820152601b60248201527f6f6e6c792061646d696e2063616e206368616e67652061646d696e0000000000604482015290519081900360640190fd5b600054604080516001600160a01b039283168152918316602083015280517f7e644d79422f17c01e4894b5f4f588d331ebfa28653d42ae832dc59e38c9798f9281900390910190a1600080547fffffffffffffffffffffffff0000000000000000000000000000000000000000166001600160a01b0392909216919091179055565b6000546001600160a01b03163314610802576040805162461bcd60e51b815260206004820152601e60248201527f6f6e6c792061646d696e2063616e20616c6c6f63617465206d696e7465720000604482015290519081900360640190fd5b61080c8282610810565b5050565b6001600160a01b03821660008181526002602090815260409182902080547fffffffffffffffffffffffffffffffffffffffffffffffffffffffffffffff001685151590811790915582519384529083015280517fb21afb9ce9be0a676f8f317ff0ca072fb89a4f8ce2d1b6fe80f8755c14f1cb199281900390910190a1505056fea265627a7a723058200bcdb6945c7aa5804daf6ddc42221e37a7d18b793a881c38d91a43690446eb9964736f6c63430005090032",
  "linkReferences": {},
  "deployedLinkReferences": {}
}