{
  "_format": "hh-sol-artifact-1",
  "contractName": "PausableWithAdmin",
  "sourceName": "contracts/v2/contracts_common/BaseWithStorage/PausableWithAdmin.sol",
  "abi": [
    {
      "constant": false,
      "inputs": [],
      "name": "unpause",
      "outputs": [],
      "payable": false,
      "stateMutability": "nonpayable",
      "type": "function"
    },
    {
      "constant": true,
      "inputs": [],
      "name": "paused",
      "outputs": [
        {
          "name": "",
          "type": "bool"
        }
      ],
      "payable": false,
      "stateMutability": "view",
      "type": "function"
    },
    {
      "constant": true,
      "inputs": [],
      "name": "getAdmin",
      "outputs": [
        {
          "name": "",
          "type": "address"
        }
      ],
      "payable": false,
      "stateMutability": "view",
      "type": "function"
    },
    {
      "constant": false,
      "inputs": [],
      "name": "pause",
      "outputs": [],
      "payable": false,
      "stateMutability": "nonpayable",
      "type": "function"
    },
    {
      "constant": false,
      "inputs": [
        {
          "name": "newAdmin",
          "type": "address"
        }
      ],
      "name": "changeAdmin",
      "outputs": [],
      "payable": false,
      "stateMutability": "nonpayable",
      "type": "function"
    },
    {
      "anonymous": false,
      "inputs": [],
      "name": "Pause",
      "type": "event"
    },
    {
      "anonymous": false,
      "inputs": [],
      "name": "Unpause",
      "type": "event"
    },
    {
      "anonymous": false,
      "inputs": [
        {
          "indexed": false,
          "name": "oldAdmin",
          "type": "address"
        },
        {
          "indexed": false,
          "name": "newAdmin",
          "type": "address"
        }
      ],
      "name": "AdminChanged",
      "type": "event"
    }
  ],
  "bytecode": "0x60806040526000805460ff60a01b1916905534801561001d57600080fd5b506104148061002d6000396000f3fe608060405234801561001057600080fd5b50600436106100675760003560e01c80636e9960c3116100505780636e9960c3146100925780638456cb59146100c35780638f283970146100cb57610067565b80633f4ba83a1461006c5780635c975abb14610076575b600080fd5b6100746100fe565b005b61007e6101d1565b604080519115158252519081900360200190f35b61009a6101e1565b6040805173ffffffffffffffffffffffffffffffffffffffff9092168252519081900360200190f35b6100746101fd565b610074600480360360208110156100e157600080fd5b503573ffffffffffffffffffffffffffffffffffffffff166102d7565b60005473ffffffffffffffffffffffffffffffffffffffff16331461016a576040805162461bcd60e51b815260206004820152601260248201527f6f6e6c792061646d696e20616c6c6f7765640000000000000000000000000000604482015290519081900360640190fd5b600054600160a01b900460ff1661018057600080fd5b600080547fffffffffffffffffffffff00ffffffffffffffffffffffffffffffffffffffff1681556040517f7805862f689e2f13df9f062ff482ad3ad112aca9e0847911ed832e158c525b339190a1565b600054600160a01b900460ff1681565b60005473ffffffffffffffffffffffffffffffffffffffff1690565b60005473ffffffffffffffffffffffffffffffffffffffff163314610269576040805162461bcd60e51b815260206004820152601260248201527f6f6e6c792061646d696e20616c6c6f7765640000000000000000000000000000604482015290519081900360640190fd5b600054600160a01b900460ff161561028057600080fd5b600080547fffffffffffffffffffffff00ffffffffffffffffffffffffffffffffffffffff16600160a01b1781556040517f6985a02210a168e66602d3235cb6db0e70f92b3ba4d376a33c0f3d9434bff6259190a1565b60005473ffffffffffffffffffffffffffffffffffffffff163314610343576040805162461bcd60e51b815260206004820152601b60248201527f6f6e6c792061646d696e2063616e206368616e67652061646d696e0000000000604482015290519081900360640190fd5b6000546040805173ffffffffffffffffffffffffffffffffffffffff9283168152918316602083015280517f7e644d79422f17c01e4894b5f4f588d331ebfa28653d42ae832dc59e38c9798f9281900390910190a1600080547fffffffffffffffffffffffff00000000000000000000000000000000000000001673ffffffffffffffffffffffffffffffffffffffff9290921691909117905556fea265627a7a72305820a4b84573854fea573ac5e04a45a4bf04d3e2d013c6a6e84f7b2cac4e2f6ea75564736f6c63430005090032",
  "linkReferences": {},
  "deployedLinkReferences": {}
}