{
  "_format": "hh-sol-artifact-1",
  "contractName": "ERC1155ERC721Test",
  "sourceName": "contracts/v2/Asset/ERC1155ERC721Test.sol",
  "abi": [
    {
      "constant": true,
      "inputs": [
        {
          "name": "owner",
          "type": "address"
        },
        {
          "name": "id",
          "type": "uint256"
        }
      ],
      "name": "balanceOf",
      "outputs": [
        {
          "name": "",
          "type": "uint256"
        }
      ],
      "payable": false,
      "stateMutability": "view",
      "type": "function"
    },
    {
      "constant": true,
      "inputs": [
        {
          "name": "id",
          "type": "bytes4"
        }
      ],
      "name": "supportsInterface",
      "outputs": [
        {
          "name": "",
          "type": "bool"
        }
      ],
      "payable": false,
      "stateMutability": "view",
      "type": "function"
    },
    {
      "constant": false,
      "inputs": [
        {
          "name": "newBouncerAdmin",
          "type": "address"
        }
      ],
      "name": "changeBouncerAdmin",
      "outputs": [],
      "payable": false,
      "stateMutability": "nonpayable",
      "type": "function"
    },
    {
      "constant": true,
      "inputs": [],
      "name": "name",
      "outputs": [
        {
          "name": "_name",
          "type": "string"
        }
      ],
      "payable": false,
      "stateMutability": "pure",
      "type": "function"
    },
    {
      "constant": true,
      "inputs": [
        {
          "name": "id",
          "type": "uint256"
        }
      ],
      "name": "getApproved",
      "outputs": [
        {
          "name": "operator",
          "type": "address"
        }
      ],
      "payable": false,
      "stateMutability": "view",
      "type": "function"
    },
    {
      "constant": false,
      "inputs": [
        {
          "name": "operator",
          "type": "address"
        },
        {
          "name": "id",
          "type": "uint256"
        }
      ],
      "name": "approve",
      "outputs": [],
      "payable": false,
      "stateMutability": "nonpayable",
      "type": "function"
    },
    {
      "constant": true,
      "inputs": [
        {
          "name": "id",
          "type": "uint256"
        }
      ],
      "name": "uri",
      "outputs": [
        {
          "name": "",
          "type": "string"
        }
      ],
      "payable": false,
      "stateMutability": "view",
      "type": "function"
    },
    {
      "constant": false,
      "inputs": [
        {
          "name": "from",
          "type": "address"
        },
        {
          "name": "id",
          "type": "uint256"
        },
        {
          "name": "amount",
          "type": "uint256"
        }
      ],
      "name": "burnFrom",
      "outputs": [],
      "payable": false,
      "stateMutability": "nonpayable",
      "type": "function"
    },
    {
      "constant": false,
      "inputs": [
        {
          "name": "from",
          "type": "address"
        },
        {
          "name": "to",
          "type": "address"
        },
        {
          "name": "id",
          "type": "uint256"
        }
      ],
      "name": "transferFrom",
      "outputs": [],
      "payable": false,
      "stateMutability": "nonpayable",
      "type": "function"
    },
    {
      "constant": false,
      "inputs": [
        {
          "name": "sender",
          "type": "address"
        },
        {
          "name": "operator",
          "type": "address"
        },
        {
          "name": "id",
          "type": "uint256"
        }
      ],
      "name": "approveFor",
      "outputs": [],
      "payable": false,
      "stateMutability": "nonpayable",
      "type": "function"
    },
    {
      "constant": true,
      "inputs": [
        {
          "name": "id",
          "type": "uint256"
        }
      ],
      "name": "collectionIndexOf",
      "outputs": [
        {
          "name": "",
          "type": "uint256"
        }
      ],
      "payable": false,
      "stateMutability": "view",
      "type": "function"
    },
    {
      "constant": false,
      "inputs": [
        {
          "name": "from",
          "type": "address"
        },
        {
          "name": "to",
          "type": "address"
        },
        {
          "name": "ids",
          "type": "uint256[]"
        },
        {
          "name": "values",
          "type": "uint256[]"
        },
        {
          "name": "data",
          "type": "bytes"
        }
      ],
      "name": "safeBatchTransferFrom",
      "outputs": [],
      "payable": false,
      "stateMutability": "nonpayable",
      "type": "function"
    },
    {
      "constant": false,
      "inputs": [
        {
          "name": "from",
          "type": "address"
        },
        {
          "name": "to",
          "type": "address"
        },
        {
          "name": "id",
          "type": "uint256"
        }
      ],
      "name": "safeTransferFrom",
      "outputs": [],
      "payable": false,
      "stateMutability": "nonpayable",
      "type": "function"
    },
    {
      "constant": false,
      "inputs": [
        {
          "name": "id",
          "type": "uint256"
        },
        {
          "name": "to",
          "type": "address"
        }
      ],
      "name": "extractERC721",
      "outputs": [
        {
          "name": "newId",
          "type": "uint256"
        }
      ],
      "payable": false,
      "stateMutability": "nonpayable",
      "type": "function"
    },
    {
      "constant": true,
      "inputs": [
        {
          "name": "who",
          "type": "address"
        }
      ],
      "name": "isBouncer",
      "outputs": [
        {
          "name": "",
          "type": "bool"
        }
      ],
      "payable": false,
      "stateMutability": "view",
      "type": "function"
    },
    {
      "constant": true,
      "inputs": [
        {
          "name": "owners",
          "type": "address[]"
        },
        {
          "name": "ids",
          "type": "uint256[]"
        }
      ],
      "name": "balanceOfBatch",
      "outputs": [
        {
          "name": "",
          "type": "uint256[]"
        }
      ],
      "payable": false,
      "stateMutability": "view",
      "type": "function"
    },
    {
      "constant": true,
      "inputs": [
        {
          "name": "id",
          "type": "uint256"
        }
      ],
      "name": "creatorOf",
      "outputs": [
        {
          "name": "",
          "type": "address"
        }
      ],
      "payable": false,
      "stateMutability": "view",
      "type": "function"
    },
    {
      "constant": true,
      "inputs": [
        {
          "name": "id",
          "type": "uint256"
        }
      ],
      "name": "ownerOf",
      "outputs": [
        {
          "name": "owner",
          "type": "address"
        }
      ],
      "payable": false,
      "stateMutability": "view",
      "type": "function"
    },
    {
      "constant": true,
      "inputs": [
        {
          "name": "who",
          "type": "address"
        }
      ],
      "name": "isSuperOperator",
      "outputs": [
        {
          "name": "",
          "type": "bool"
        }
      ],
      "payable": false,
      "stateMutability": "view",
      "type": "function"
    },
    {
      "constant": true,
      "inputs": [],
      "name": "getAdmin",
      "outputs": [
        {
          "name": "",
          "type": "address"
        }
      ],
      "payable": false,
      "stateMutability": "view",
      "type": "function"
    },
    {
      "constant": true,
      "inputs": [
        {
          "name": "owner",
          "type": "address"
        }
      ],
      "name": "balanceOf",
      "outputs": [
        {
          "name": "balance",
          "type": "uint256"
        }
      ],
      "payable": false,
      "stateMutability": "view",
      "type": "function"
    },
    {
      "constant": false,
      "inputs": [
        {
          "name": "metaTransactionProcessor",
          "type": "address"
        },
        {
          "name": "enabled",
          "type": "bool"
        }
      ],
      "name": "setMetaTransactionProcessor",
      "outputs": [],
      "payable": false,
      "stateMutability": "nonpayable",
      "type": "function"
    },
    {
      "constant": true,
      "inputs": [
        {
          "name": "id",
          "type": "uint256"
        }
      ],
      "name": "rarity",
      "outputs": [
        {
          "name": "",
          "type": "uint256"
        }
      ],
      "payable": false,
      "stateMutability": "view",
      "type": "function"
    },
    {
      "constant": false,
      "inputs": [
        {
          "name": "newAdmin",
          "type": "address"
        }
      ],
      "name": "changeAdmin",
      "outputs": [],
      "payable": false,
      "stateMutability": "nonpayable",
      "type": "function"
    },
    {
      "constant": true,
      "inputs": [],
      "name": "symbol",
      "outputs": [
        {
          "name": "_symbol",
          "type": "string"
        }
      ],
      "payable": false,
      "stateMutability": "pure",
      "type": "function"
    },
    {
      "constant": true,
      "inputs": [],
      "name": "getBouncerAdmin",
      "outputs": [
        {
          "name": "",
          "type": "address"
        }
      ],
      "payable": false,
      "stateMutability": "view",
      "type": "function"
    },
    {
      "constant": false,
      "inputs": [
        {
          "name": "operator",
          "type": "address"
        },
        {
          "name": "approved",
          "type": "bool"
        }
      ],
      "name": "setApprovalForAll",
      "outputs": [],
      "payable": false,
      "stateMutability": "nonpayable",
      "type": "function"
    },
    {
      "constant": false,
      "inputs": [
        {
          "name": "superOperator",
          "type": "address"
        },
        {
          "name": "enabled",
          "type": "bool"
        }
      ],
      "name": "setSuperOperator",
      "outputs": [],
      "payable": false,
      "stateMutability": "nonpayable",
      "type": "function"
    },
    {
      "constant": false,
      "inputs": [
        {
          "name": "id",
          "type": "uint256"
        },
        {
          "name": "amount",
          "type": "uint256"
        }
      ],
      "name": "burn",
      "outputs": [],
      "payable": false,
      "stateMutability": "nonpayable",
      "type": "function"
    },
    {
      "constant": false,
      "inputs": [
        {
          "name": "sender",
          "type": "address"
        },
        {
          "name": "original",
          "type": "address"
        },
        {
          "name": "to",
          "type": "address"
        }
      ],
      "name": "transferCreatorship",
      "outputs": [],
      "payable": false,
      "stateMutability": "nonpayable",
      "type": "function"
    },
    {
      "constant": false,
      "inputs": [
        {
          "name": "from",
          "type": "address"
        },
        {
          "name": "to",
          "type": "address"
        },
        {
          "name": "id",
          "type": "uint256"
        },
        {
          "name": "data",
          "type": "bytes"
        }
      ],
      "name": "safeTransferFrom",
      "outputs": [],
      "payable": false,
      "stateMutability": "nonpayable",
      "type": "function"
    },
    {
      "constant": false,
      "inputs": [
        {
          "name": "bouncer",
          "type": "address"
        },
        {
          "name": "enabled",
          "type": "bool"
        }
      ],
      "name": "setBouncer",
      "outputs": [],
      "payable": false,
      "stateMutability": "nonpayable",
      "type": "function"
    },
    {
      "constant": true,
      "inputs": [
        {
          "name": "id",
          "type": "uint256"
        }
      ],
      "name": "isCollection",
      "outputs": [
        {
          "name": "",
          "type": "bool"
        }
      ],
      "payable": false,
      "stateMutability": "view",
      "type": "function"
    },
    {
      "constant": false,
      "inputs": [
        {
          "name": "creator",
          "type": "address"
        },
        {
          "name": "packId",
          "type": "uint40"
        },
        {
          "name": "hash",
          "type": "bytes32"
        },
        {
          "name": "supply",
          "type": "uint256"
        },
        {
          "name": "rarity",
          "type": "uint8"
        },
        {
          "name": "owner",
          "type": "address"
        },
        {
          "name": "data",
          "type": "bytes"
        }
      ],
      "name": "mint",
      "outputs": [
        {
          "name": "id",
          "type": "uint256"
        }
      ],
      "payable": false,
      "stateMutability": "nonpayable",
      "type": "function"
    },
    {
      "constant": true,
      "inputs": [
        {
          "name": "id",
          "type": "uint256"
        }
      ],
      "name": "collectionOf",
      "outputs": [
        {
          "name": "",
          "type": "uint256"
        }
      ],
      "payable": false,
      "stateMutability": "view",
      "type": "function"
    },
    {
      "constant": true,
      "inputs": [
        {
          "name": "id",
          "type": "uint256"
        }
      ],
      "name": "tokenURI",
      "outputs": [
        {
          "name": "",
          "type": "string"
        }
      ],
      "payable": false,
      "stateMutability": "view",
      "type": "function"
    },
    {
      "constant": true,
      "inputs": [
        {
          "name": "id",
          "type": "uint256"
        }
      ],
      "name": "wasEverMinted",
      "outputs": [
        {
          "name": "",
          "type": "bool"
        }
      ],
      "payable": false,
      "stateMutability": "view",
      "type": "function"
    },
    {
      "constant": true,
      "inputs": [
        {
          "name": "who",
          "type": "address"
        }
      ],
      "name": "isMetaTransactionProcessor",
      "outputs": [
        {
          "name": "",
          "type": "bool"
        }
      ],
      "payable": false,
      "stateMutability": "view",
      "type": "function"
    },
    {
      "constant": true,
      "inputs": [
        {
          "name": "owner",
          "type": "address"
        },
        {
          "name": "operator",
          "type": "address"
        }
      ],
      "name": "isApprovedForAll",
      "outputs": [
        {
          "name": "isOperator",
          "type": "bool"
        }
      ],
      "payable": false,
      "stateMutability": "view",
      "type": "function"
    },
    {
      "constant": false,
      "inputs": [
        {
          "name": "from",
          "type": "address"
        },
        {
          "name": "id",
          "type": "uint256"
        },
        {
          "name": "packId",
          "type": "uint40"
        },
        {
          "name": "hash",
          "type": "bytes32"
        },
        {
          "name": "newRarity",
          "type": "uint8"
        },
        {
          "name": "to",
          "type": "address"
        },
        {
          "name": "data",
          "type": "bytes"
        }
      ],
      "name": "updateERC721",
      "outputs": [
        {
          "name": "",
          "type": "uint256"
        }
      ],
      "payable": false,
      "stateMutability": "nonpayable",
      "type": "function"
    },
    {
      "constant": false,
      "inputs": [
        {
          "name": "sender",
          "type": "address"
        },
        {
          "name": "operator",
          "type": "address"
        },
        {
          "name": "approved",
          "type": "bool"
        }
      ],
      "name": "setApprovalForAllFor",
      "outputs": [],
      "payable": false,
      "stateMutability": "nonpayable",
      "type": "function"
    },
    {
      "constant": false,
      "inputs": [
        {
          "name": "creator",
          "type": "address"
        },
        {
          "name": "packId",
          "type": "uint40"
        },
        {
          "name": "hash",
          "type": "bytes32"
        },
        {
          "name": "supplies",
          "type": "uint256[]"
        },
        {
          "name": "rarityPack",
          "type": "bytes"
        },
        {
          "name": "owner",
          "type": "address"
        },
        {
          "name": "data",
          "type": "bytes"
        }
      ],
      "name": "mintMultiple",
      "outputs": [
        {
          "name": "ids",
          "type": "uint256[]"
        }
      ],
      "payable": false,
      "stateMutability": "nonpayable",
      "type": "function"
    },
    {
      "constant": false,
      "inputs": [
        {
          "name": "from",
          "type": "address"
        },
        {
          "name": "to",
          "type": "address"
        },
        {
          "name": "id",
          "type": "uint256"
        },
        {
          "name": "value",
          "type": "uint256"
        },
        {
          "name": "data",
          "type": "bytes"
        }
      ],
      "name": "safeTransferFrom",
      "outputs": [],
      "payable": false,
      "stateMutability": "nonpayable",
      "type": "function"
    },
    {
      "constant": false,
      "inputs": [
        {
          "name": "sender",
          "type": "address"
        },
        {
          "name": "id",
          "type": "uint256"
        },
        {
          "name": "to",
          "type": "address"
        }
      ],
      "name": "extractERC721From",
      "outputs": [
        {
          "name": "newId",
          "type": "uint256"
        }
      ],
      "payable": false,
      "stateMutability": "nonpayable",
      "type": "function"
    },
    {
      "inputs": [
        {
          "name": "metaTransactionContract",
          "type": "address"
        },
        {
          "name": "admin",
          "type": "address"
        },
        {
          "name": "bouncerAdmin",
          "type": "address"
        }
      ],
      "payable": false,
      "stateMutability": "nonpayable",
      "type": "constructor"
    },
    {
      "anonymous": false,
      "inputs": [
        {
          "indexed": true,
          "name": "original",
          "type": "address"
        },
        {
          "indexed": true,
          "name": "from",
          "type": "address"
        },
        {
          "indexed": true,
          "name": "to",
          "type": "address"
        }
      ],
      "name": "CreatorshipTransfer",
      "type": "event"
    },
    {
      "anonymous": false,
      "inputs": [
        {
          "indexed": false,
          "name": "oldBouncerAdmin",
          "type": "address"
        },
        {
          "indexed": false,
          "name": "newBouncerAdmin",
          "type": "address"
        }
      ],
      "name": "BouncerAdminChanged",
      "type": "event"
    },
    {
      "anonymous": false,
      "inputs": [
        {
          "indexed": false,
          "name": "bouncer",
          "type": "address"
        },
        {
          "indexed": false,
          "name": "enabled",
          "type": "bool"
        }
      ],
      "name": "Bouncer",
      "type": "event"
    },
    {
      "anonymous": false,
      "inputs": [
        {
          "indexed": false,
          "name": "metaTransactionProcessor",
          "type": "address"
        },
        {
          "indexed": false,
          "name": "enabled",
          "type": "bool"
        }
      ],
      "name": "MetaTransactionProcessor",
      "type": "event"
    },
    {
      "anonymous": false,
      "inputs": [
        {
          "indexed": true,
          "name": "fromId",
          "type": "uint256"
        },
        {
          "indexed": false,
          "name": "toId",
          "type": "uint256"
        }
      ],
      "name": "Extraction",
      "type": "event"
    },
    {
      "anonymous": false,
      "inputs": [
        {
          "indexed": true,
          "name": "fromId",
          "type": "uint256"
        },
        {
          "indexed": false,
          "name": "toId",
          "type": "uint256"
        }
      ],
      "name": "AssetUpdate",
      "type": "event"
    },
    {
      "anonymous": false,
      "inputs": [
        {
          "indexed": true,
          "name": "_from",
          "type": "address"
        },
        {
          "indexed": true,
          "name": "_to",
          "type": "address"
        },
        {
          "indexed": true,
          "name": "_tokenId",
          "type": "uint256"
        }
      ],
      "name": "Transfer",
      "type": "event"
    },
    {
      "anonymous": false,
      "inputs": [
        {
          "indexed": true,
          "name": "_owner",
          "type": "address"
        },
        {
          "indexed": true,
          "name": "_approved",
          "type": "address"
        },
        {
          "indexed": true,
          "name": "_tokenId",
          "type": "uint256"
        }
      ],
      "name": "Approval",
      "type": "event"
    },
    {
      "anonymous": false,
      "inputs": [
        {
          "indexed": true,
          "name": "_owner",
          "type": "address"
        },
        {
          "indexed": true,
          "name": "_operator",
          "type": "address"
        },
        {
          "indexed": false,
          "name": "_approved",
          "type": "bool"
        }
      ],
      "name": "ApprovalForAll",
      "type": "event"
    },
    {
      "anonymous": false,
      "inputs": [
        {
          "indexed": true,
          "name": "operator",
          "type": "address"
        },
        {
          "indexed": true,
          "name": "from",
          "type": "address"
        },
        {
          "indexed": true,
          "name": "to",
          "type": "address"
        },
        {
          "indexed": false,
          "name": "id",
          "type": "uint256"
        },
        {
          "indexed": false,
          "name": "value",
          "type": "uint256"
        }
      ],
      "name": "TransferSingle",
      "type": "event"
    },
    {
      "anonymous": false,
      "inputs": [
        {
          "indexed": true,
          "name": "operator",
          "type": "address"
        },
        {
          "indexed": true,
          "name": "from",
          "type": "address"
        },
        {
          "indexed": true,
          "name": "to",
          "type": "address"
        },
        {
          "indexed": false,
          "name": "ids",
          "type": "uint256[]"
        },
        {
          "indexed": false,
          "name": "values",
          "type": "uint256[]"
        }
      ],
      "name": "TransferBatch",
      "type": "event"
    },
    {
      "anonymous": false,
      "inputs": [
        {
          "indexed": false,
          "name": "value",
          "type": "string"
        },
        {
          "indexed": true,
          "name": "id",
          "type": "uint256"
        }
      ],
      "name": "URI",
      "type": "event"
    },
    {
      "anonymous": false,
      "inputs": [
        {
          "indexed": false,
          "name": "superOperator",
          "type": "address"
        },
        {
          "indexed": false,
          "name": "enabled",
          "type": "bool"
        }
      ],
      "name": "SuperOperator",
      "type": "event"
    },
    {
      "anonymous": false,
      "inputs": [
        {
          "indexed": false,
          "name": "oldAdmin",
          "type": "address"
        },
        {
          "indexed": false,
          "name": "newAdmin",
          "type": "address"
        }
      ],
      "name": "AdminChanged",
      "type": "event"
    }
  ],
  "bytecode": "0x60806040523480156200001157600080fd5b5060405162005d4438038062005d44833981810160405260608110156200003757600080fd5b5080516020808301516040938401516001600160a01b038085166000818152600c8652878120805460ff1916600190811790915581548487166001600160a01b031991821617909255600d80549486169490921693909317905586519081529384015284519394919390927fb21eb88b4e33b3f1281830a7178d74d8aa73220416215726b68ae23d539515cb92908290030190a1505050615c6680620000de6000396000f3fe608060405234801561001057600080fd5b50600436106102f35760003560e01c80638b58c56911610191578063c50a4eb9116100e3578063e985e9c511610097578063f0bc00d811610071578063f0bc00d814610d2a578063f242432a14610e6e578063ff23be5314610f03576102f3565b8063e985e9c514610c19578063eb8928e114610c47578063eeb5a5d114610cf2576102f3565b8063c87b56dd116100c8578063c87b56dd14610bb9578063d402756e14610bd6578063dc5074af14610bf3576102f3565b8063c50a4eb914610af1578063c7778baa14610b9c576102f3565b8063ac9fe42111610145578063b88d4fde1161011f578063b88d4fde146109e0578063b9b75ebc14610aa6578063bd9ff41b14610ad4576102f3565b8063ac9fe42114610957578063b390c0ab14610985578063b666923c146109a8576102f3565b806395d89b411161017657806395d89b41146109195780639bc88b9c14610921578063a22cb46514610929576102f3565b80638b58c569146108d65780638f283970146108f3576102f3565b80632eb2c2d61161024a578063589a1743116101fe5780636e9960c3116101d85780636e9960c31461087a57806370a08231146108825780638a04af6a146108a8576102f3565b8063589a17431461081a5780636352211e14610837578063654b748a14610854576102f3565b80634af85d121161022f5780634af85d12146106b65780634c4d07e7146106e25780634e1273f414610708576102f3565b80632eb2c2d61461055357806342842e0e14610680576102f3565b8063095ea7b3116102ac57806323b872dd1161028657806323b872dd146104ca5780632b991746146105005780632e712b4614610536576102f3565b8063095ea7b31461044f5780630e89341c1461047b578063124d91e514610498576102f3565b8063049476df116102dd578063049476df1461037157806306fdde0314610399578063081812fc14610416576102f3565b8062fdd58e146102f857806301ffc9a714610336575b600080fd5b6103246004803603604081101561030e57600080fd5b506001600160a01b038135169060200135610f39565b60408051918252519081900360200190f35b61035d6004803603602081101561034c57600080fd5b50356001600160e01b031916610fc9565b604080519115158252519081900360200190f35b6103976004803603602081101561038757600080fd5b50356001600160a01b03166110d0565b005b6103a1611190565b6040805160208082528351818301528351919283929083019185019080838360005b838110156103db5781810151838201526020016103c3565b50505050905090810190601f1680156104085780820380516001836020036101000a031916815260200191505b509250505060405180910390f35b6104336004803603602081101561042c57600080fd5b50356111c8565b604080516001600160a01b039092168252519081900360200190f35b6103976004803603604081101561046557600080fd5b506001600160a01b03813516906020013561124c565b6103a16004803603602081101561049157600080fd5b50356113c2565b610397600480360360608110156104ae57600080fd5b506001600160a01b038135169060208101359060400135611447565b610397600480360360608110156104e057600080fd5b506001600160a01b03813581169160208101359091169060400135611571565b6103976004803603606081101561051657600080fd5b506001600160a01b0381358116916020810135909116906040013561166a565b6103246004803603602081101561054c57600080fd5b503561184d565b610397600480360360a081101561056957600080fd5b6001600160a01b03823581169260208101359091169181019060608101604082013564010000000081111561059d57600080fd5b8201836020820111156105af57600080fd5b803590602001918460208302840111640100000000831117156105d157600080fd5b9193909290916020810190356401000000008111156105ef57600080fd5b82018360208201111561060157600080fd5b8035906020019184602083028401116401000000008311171561062357600080fd5b91939092909160208101903564010000000081111561064157600080fd5b82018360208201111561065357600080fd5b8035906020019184600183028401116401000000008311171561067557600080fd5b509092509050611866565b6103976004803603606081101561069657600080fd5b506001600160a01b03813581169160208101359091169060400135611c9b565b610324600480360360408110156106cc57600080fd5b50803590602001356001600160a01b0316611cb6565b61035d600480360360208110156106f857600080fd5b50356001600160a01b0316611ccb565b6107ca6004803603604081101561071e57600080fd5b81019060208101813564010000000081111561073957600080fd5b82018360208201111561074b57600080fd5b8035906020019184602083028401116401000000008311171561076d57600080fd5b91939092909160208101903564010000000081111561078b57600080fd5b82018360208201111561079d57600080fd5b803590602001918460208302840111640100000000831117156107bf57600080fd5b509092509050611ce9565b60408051602080825283518183015283519192839290830191858101910280838360005b838110156108065781810151838201526020016107ee565b505050509050019250505060405180910390f35b6104336004803603602081101561083057600080fd5b5035611dc3565b6104336004803603602081101561084d57600080fd5b5035611e60565b61035d6004803603602081101561086a57600080fd5b50356001600160a01b0316611ec8565b610433611ee6565b6103246004803603602081101561089857600080fd5b50356001600160a01b0316611ef5565b610397600480360360408110156108be57600080fd5b506001600160a01b0381351690602001351515611f6e565b610324600480360360208110156108ec57600080fd5b503561201b565b6103976004803603602081101561090957600080fd5b50356001600160a01b031661216a565b6103a1612240565b610433612277565b6103976004803603604081101561093f57600080fd5b506001600160a01b0381351690602001351515612286565b6103976004803603604081101561096d57600080fd5b506001600160a01b0381351690602001351515612295565b6103976004803603604081101561099b57600080fd5b5080359060200135612342565b610397600480360360608110156109be57600080fd5b506001600160a01b03813581169160208101358216916040909101351661234d565b610397600480360360808110156109f657600080fd5b6001600160a01b03823581169260208101359091169160408201359190810190608081016060820135640100000000811115610a3157600080fd5b820183602082011115610a4357600080fd5b80359060200191846001830284011164010000000083111715610a6557600080fd5b91908080601f016020809104026020016040519081016040528093929190818152602001838380828437600092019190915250929550612662945050505050565b61039760048036036040811015610abc57600080fd5b506001600160a01b0381351690602001351515612751565b61035d60048036036020811015610aea57600080fd5b50356127fe565b610324600480360360e0811015610b0757600080fd5b6001600160a01b03823581169264ffffffffff6020820135169260408201359260608301359260ff6080820135169260a08201359092169181019060e0810160c0820135640100000000811115610b5d57600080fd5b820183602082011115610b6f57600080fd5b80359060200191846001830284011164010000000083111715610b9157600080fd5b509092509050612819565b61032460048036036020811015610bb257600080fd5b50356129a1565b6103a160048036036020811015610bcf57600080fd5b5035612a5d565b61035d60048036036020811015610bec57600080fd5b5035612ac6565b61035d60048036036020811015610c0957600080fd5b50356001600160a01b0316612b2b565b61035d60048036036040811015610c2f57600080fd5b506001600160a01b0381358116916020013516612b49565b610324600480360360e0811015610c5d57600080fd5b6001600160a01b03823581169260208101359264ffffffffff6040830135169260608301359260ff6080820135169260a08201359092169181019060e0810160c0820135640100000000811115610cb357600080fd5b820183602082011115610cc557600080fd5b80359060200191846001830284011164010000000083111715610ce757600080fd5b509092509050612c51565b61039760048036036060811015610d0857600080fd5b506001600160a01b038135811691602081013590911690604001351515612e50565b6107ca600480360360e0811015610d4057600080fd5b6001600160a01b038235169164ffffffffff6020820135169160408201359190810190608081016060820135640100000000811115610d7e57600080fd5b820183602082011115610d9057600080fd5b80359060200191846020830284011164010000000083111715610db257600080fd5b919390929091602081019035640100000000811115610dd057600080fd5b820183602082011115610de257600080fd5b80359060200191846001830284011164010000000083111715610e0457600080fd5b919390926001600160a01b0383351692604081019060200135640100000000811115610e2f57600080fd5b820183602082011115610e4157600080fd5b80359060200191846001830284011164010000000083111715610e6357600080fd5b509092509050612eec565b610397600480360360a0811015610e8457600080fd5b6001600160a01b03823581169260208101359091169160408201359160608101359181019060a081016080820135640100000000811115610ec457600080fd5b820183602082011115610ed657600080fd5b80359060200191846001830284011164010000000083111715610ef857600080fd5b50909250905061314d565b61032460048036036060811015610f1957600080fd5b506001600160a01b0381358116916020810135916040909101351661327d565b60006001605f1b821615610f7957826001600160a01b0316610f5a83613374565b6001600160a01b03161415610f7157506001610fc3565b506000610fc3565b600080610f8584613386565b6001600160a01b03871660009081526004602090815260408083208584529091529020549193509150610fbe908263ffffffff61339716565b925050505b92915050565b60007f01ffc9a7000000000000000000000000000000000000000000000000000000006001600160e01b03198316148061102c57507fd9b67a26000000000000000000000000000000000000000000000000000000006001600160e01b03198316145b8061106057507f80ac58cd000000000000000000000000000000000000000000000000000000006001600160e01b03198316145b8061109457507f5b5e139f000000000000000000000000000000000000000000000000000000006001600160e01b03198316145b806110c857507f0e89341c000000000000000000000000000000000000000000000000000000006001600160e01b03198316145b90505b919050565b600d546001600160a01b031633146111195760405162461bcd60e51b8152600401808060200182810382526023815260200180615b116023913960400191505060405180910390fd5b600d54604080516001600160a01b039283168152918316602083015280517f1bab6ababbec5519512e9ee16964953ec0f72839126138285cac1f1136bd642e9281900390910190a1600d805473ffffffffffffffffffffffffffffffffffffffff19166001600160a01b0392909216919091179055565b60408051808201909152601081527f53616e64626f782773204153534554730000000000000000000000000000000060208201525b90565b6000806111d483613374565b6001600160a01b03161415611230576040805162461bcd60e51b815260206004820152601260248201527f4e465420646f6573206e6f742065786973740000000000000000000000000000604482015290519081900360640190fd5b506000908152600660205260409020546001600160a01b031690565b600061125782613374565b90506001600160a01b0381166112b4576040805162461bcd60e51b815260206004820152601260248201527f4e465420646f6573206e6f742065786973740000000000000000000000000000604482015290519081900360640190fd5b6001600160a01b0381163314806112da57503360009081526001602052604090205460ff165b8061130857506001600160a01b038116600090815260056020908152604080832033845290915290205460ff165b611359576040805162461bcd60e51b815260206004820152600e60248201527f6e6f7420617574686f72697a6564000000000000000000000000000000000000604482015290519081900360640190fd5b600082815260066020526040808220805473ffffffffffffffffffffffffffffffffffffffff19166001600160a01b0387811691821790925591518593918516917f8c5be1e5ebec7d5bd14f71427d1e84f3dd0314c0f7b2291e5b200ac8c7c3b92591a4505050565b60606113cd82612ac6565b61141e576040805162461bcd60e51b815260206004820152601660248201527f746f6b656e20776173206e65766572206d696e74656400000000000000000000604482015290519081900360640190fd5b6bffffffff80000000000007ff1982166000908152600760205260409020546110c890836133b1565b6001600160a01b0383166114a2576040805162461bcd60e51b815260206004820152601460248201527f66726f6d206973207a65726f2061646472657373000000000000000000000000604482015290519081900360640190fd5b336001600160a01b03841614806114c85750336000908152600c602052604090205460ff165b806114e257503360009081526001602052604090205460ff165b8061151057506001600160a01b038316600090815260056020908152604080832033845290915290205460ff165b611561576040805162461bcd60e51b815260206004820152601560248201527f72657175697265206d65746120617070726f76616c0000000000000000000000604482015290519081900360640190fd5b61156c838383613519565b505050565b826001600160a01b031661158482613374565b6001600160a01b0316146115cb576040805162461bcd60e51b81526020600482015260096024820152683737ba1037bbb732b960b91b604482015290519081900360640190fd5b6115d88383836001613639565b336000908152600c60205260409020546116199060ff166115f957336115fb565b835b84848460016040518060200160405280600081525060016000613a7b565b61156c576040805162461bcd60e51b815260206004820152601960248201527f65726331313535207472616e736665722072656a656374656400000000000000604482015290519081900360640190fd5b600061167582613374565b90506001600160a01b0384166116d2576040805162461bcd60e51b815260206004820152601660248201527f73656e646572206973207a65726f206164647265737300000000000000000000604482015290519081900360640190fd5b336001600160a01b03851614806116f85750336000908152600c602052604090205460ff165b8061171257503360009081526001602052604090205460ff165b8061174057506001600160a01b038416600090815260056020908152604080832033845290915290205460ff165b611791576040805162461bcd60e51b815260206004820152601160248201527f72657175697265206f70657261746f7273000000000000000000000000000000604482015290519081900360640190fd5b836001600160a01b0316816001600160a01b0316146117e3576040805162461bcd60e51b81526020600482015260096024820152683737ba1037bbb732b960b91b604482015290519081900360640190fd5b600082815260066020526040808220805473ffffffffffffffffffffffffffffffffffffffff19166001600160a01b0387811691821790925591518593918516917f8c5be1e5ebec7d5bd14f71427d1e84f3dd0314c0f7b2291e5b200ac8c7c3b92591a450505050565b6000611858826129a1565b5050603f1c63ffffffff1690565b8483146118a45760405162461bcd60e51b8152600401808060200182810382526026815260200180615ac86026913960400191505060405180910390fd5b6001600160a01b0387166118ff576040805162461bcd60e51b815260206004820152601b60248201527f64657374696e6174696f6e206973207a65726f20616464726573730000000000604482015290519081900360640190fd5b6001600160a01b03881661195a576040805162461bcd60e51b815260206004820152601460248201527f66726f6d206973207a65726f2061646472657373000000000000000000000000604482015290519081900360640190fd5b60006001600160a01b03891633148061198257503360009081526001602052604090205460ff165b806119b057506001600160a01b038916600090815260056020908152604080832033845290915290205460ff165b806119ca5750336000908152600c602052604090205460ff165b9050611a40898989898080602002602001604051908101604052809392919081815260200183836020028082843760009201919091525050604080516020808d0282810182019093528c82529093508c92508b91829185019084908082843760009201919091525060019250889150613c279050565b611ab1898989898080602002602001604051908101604052809392919081815260200183836020028082843760009201919091525050604080516020808d0282810182019093528c82529093508c92508b91829185019084908082843760009201829052509250889150613c279050565b336000908152600c60205260409020546001600160a01b03808a1691908b169060ff16611ade5733611ae0565b8a5b6001600160a01b03167f4a39dc06d4c0dbc64b70af90fd698a233a518aa5d07e595d983b8c0526c8f7fb8a8a8a8a6040518080602001806020018381038352878782818152602001925060200280828437600083820152601f01601f19169091018481038352858152602090810191508690860280828437600083820152604051601f909101601f19169092018290039850909650505050505050a4336000908152600c6020526040902054611c3f9060ff16611b9d5733611b9f565b895b8a8a8a8a8080602002602001604051908101604052809392919081815260200183836020028082843760009201919091525050604080516020808e0282810182019093528d82529093508d92508c91829185019084908082843760009201919091525050604080516020601f8d018190048102820181019092528b815292508b91508a908190840183828082843760009201919091525061421592505050565b611c90576040805162461bcd60e51b815260206004820152601960248201527f65726331313535207472616e736665722072656a656374656400000000000000604482015290519081900360640190fd5b505050505050505050565b61156c83838360405180602001604052806000815250612662565b6000611cc433338585614405565b9392505050565b6001600160a01b03166000908152600b602052604090205460ff1690565b6060838214611d295760405162461bcd60e51b8152600401808060200182810382526026815260200180615ac86026913960400191505060405180910390fd5b604080518381526020808502820101909152606090838015611d55578160200160208202803883390190505b50905060005b83811015611db957611d9a878783818110611d7257fe5b905060200201356001600160a01b0316868684818110611d8e57fe5b90506020020135610f39565b828281518110611da657fe5b6020908102919091010152600101611d5b565b5095945050505050565b6000611dce82612ac6565b611e1f576040805162461bcd60e51b815260206004820152601660248201527f746f6b656e20776173206e65766572206d696e74656400000000000000000000604482015290519081900360640190fd5b6c0100000000000000000000000082046001600160a01b038181166000908152600a6020526040902054168015611e595791506110cb9050565b5092915050565b6000611e6b82613374565b90506001600160a01b0381166110cb576040805162461bcd60e51b815260206004820152601260248201527f4e465420646f6573206e6f742065786973740000000000000000000000000000604482015290519081900360640190fd5b6001600160a01b031660009081526001602052604090205460ff1690565b6000546001600160a01b031690565b60006001600160a01b038216611f52576040805162461bcd60e51b815260206004820152601560248201527f6f776e6572206973207a65726f20616464726573730000000000000000000000604482015290519081900360640190fd5b506001600160a01b031660009081526002602052604090205490565b6000546001600160a01b03163314611fb75760405162461bcd60e51b815260040180806020018281038252602e815260200180615c04602e913960400191505060405180910390fd5b6001600160a01b0382166000818152600c6020908152604091829020805460ff191685151590811790915582519384529083015280517fb21eb88b4e33b3f1281830a7178d74d8aa73220416215726b68ae23d539515cb9281900390910190a15050565b600061202682612ac6565b612077576040805162461bcd60e51b815260206004820152601660248201527f746f6b656e20776173206e65766572206d696e74656400000000000000000000604482015290519081900360640190fd5b6bffffffff80000000000007ff198216600090815260086020526040902080546107ff8416906002600019610100600184161502019091160460048204106120c4576000925050506110cb565b600082600483048154600181600116156101000203166002900481106120e657fe5b8154600116156121055790600052602060002090602091828204019190065b9054901a7f01000000000000000000000000000000000000000000000000000000000000000260f81c905060026003808416900381029060049060ff80841690910a16838161215057fe5b0460ff168161215b57fe5b0660ff169450505050506110cb565b6000546001600160a01b031633146121c9576040805162461bcd60e51b815260206004820152601b60248201527f6f6e6c792061646d696e2063616e206368616e67652061646d696e0000000000604482015290519081900360640190fd5b600054604080516001600160a01b039283168152918316602083015280517f7e644d79422f17c01e4894b5f4f588d331ebfa28653d42ae832dc59e38c9798f9281900390910190a16000805473ffffffffffffffffffffffffffffffffffffffff19166001600160a01b0392909216919091179055565b60408051808201909152600581527f4153534554000000000000000000000000000000000000000000000000000000602082015290565b600d546001600160a01b031690565b6122913383836145ac565b5050565b6000546001600160a01b031633146122de5760405162461bcd60e51b815260040180806020018281038252602c815260200180615bb6602c913960400191505060405180910390fd5b6001600160a01b038216600081815260016020908152604091829020805460ff191685151590811790915582519384529083015280517f44f92d27abdf4cfb6a7d712c3af68f3be086d4ca747ab802c36f67d6790060d89281900390910190a15050565b612291338383613519565b336001600160a01b03841614806123735750336000908152600c602052604090205460ff165b8061238d57503360009081526001602052604090205460ff165b6123de576040805162461bcd60e51b815260206004820152601560248201527f72657175697265206d65746120617070726f76616c0000000000000000000000604482015290519081900360640190fd5b6001600160a01b038316612439576040805162461bcd60e51b815260206004820152601660248201527f73656e646572206973207a65726f206164647265737300000000000000000000604482015290519081900360640190fd5b6001600160a01b038116612494576040805162461bcd60e51b815260206004820152601b60248201527f64657374696e6174696f6e206973207a65726f20616464726573730000000000604482015290519081900360640190fd5b6001600160a01b038083166000908152600a602052604090205416806124b75750815b816001600160a01b0316816001600160a01b0316141561251e576040805162461bcd60e51b815260206004820152600d60248201527f63757272656e74203d3d20746f00000000000000000000000000000000000000604482015290519081900360640190fd5b836001600160a01b0316816001600160a01b031614612584576040805162461bcd60e51b815260206004820152601160248201527f63757272656e7420213d2073656e646572000000000000000000000000000000604482015290519081900360640190fd5b826001600160a01b0316826001600160a01b031614156125d6576001600160a01b0383166000908152600a60205260409020805473ffffffffffffffffffffffffffffffffffffffff19169055612612565b6001600160a01b038381166000908152600a60205260409020805473ffffffffffffffffffffffffffffffffffffffff19169184169190911790555b816001600160a01b0316816001600160a01b0316846001600160a01b03167f1a7f4b0ff7e2dc5eb0864ecd842062dd36fa2daafefc7a017476807ccd73600d60405160405180910390a450505050565b836001600160a01b031661267583613374565b6001600160a01b0316146126bc576040805162461bcd60e51b81526020600482015260096024820152683737ba1037bbb732b960b91b604482015290519081900360640190fd5b6126c98484846001613639565b336000908152600c60205260409020546126fa9060ff166126ea57336126ec565b845b858585600186600180613a7b565b61274b576040805162461bcd60e51b815260206004820181905260248201527f6572633732312f65726331313535207472616e736665722072656a6563746564604482015290519081900360640190fd5b50505050565b600d546001600160a01b0316331461279a5760405162461bcd60e51b8152600401808060200182810382526024815260200180615b346024913960400191505060405180910390fd5b6001600160a01b0382166000818152600b6020908152604091829020805460ff191685151590811790915582519384529083015280517f5ecd928ac22825e06273a3e8db8118dd7fe11bd2637ecfe4bfa25154948bd85f9281900390910190a15050565b60006bffffffff8000000000000000198216611cc481612ac6565b60008661286d576040805162461bcd60e51b815260206004820152600c60248201527f68617368206973207a65726f0000000000000000000000000000000000000000604482015290519081900360640190fd5b336000908152600b602052604090205460ff166128d1576040805162461bcd60e51b815260206004820152601c60248201527f6f6e6c7920626f756e63657220616c6c6f77656420746f206d696e7400000000604482015290519081900360640190fd5b6001600160a01b03841661292c576040805162461bcd60e51b815260206004820152601b60248201527f64657374696e6174696f6e206973207a65726f20616464726573730000000000604482015290519081900360640190fd5b61294e89878a89600114612941576001612944565b60005b60ff16600061478f565b905061299587878733888689898080601f0160208091040260200160405190810160405280939291908181526020018383808284376000920182905250925061484c915050565b98975050505050505050565b6000806129ad83613374565b6001600160a01b03161415612a09576040805162461bcd60e51b815260206004820152601260248201527f4e465420646f6573206e6f742065786973740000000000000000000000000000604482015290519081900360640190fd5b6bffffffff8000000000000000198216612a2281612ac6565b6110c85760405162461bcd60e51b8152600401808060200182810382526028815260200180615b586028913960400191505060405180910390fd5b60606000612a6a83613374565b6001600160a01b0316141561141e576040805162461bcd60e51b815260206004820152601260248201527f4e465420646f6573206e6f742065786973740000000000000000000000000000604482015290519081900360640190fd5b60006001605f1b821615612aeb575060008181526003602052604090205415156110cb565b610800627ff8008316046107ff8316108015612b2457506bffffffff80000000000007ff19821660009081526007602052604090205415155b90506110cb565b6001600160a01b03166000908152600c602052604090205460ff1690565b60006001600160a01b038316612ba6576040805162461bcd60e51b815260206004820152601560248201527f6f776e6572206973207a65726f20616464726573730000000000000000000000604482015290519081900360640190fd5b6001600160a01b038216612c01576040805162461bcd60e51b815260206004820152601860248201527f6f70657261746f72206973207a65726f20616464726573730000000000000000604482015290519081900360640190fd5b6001600160a01b0380841660009081526005602090815260408083209386168352929052205460ff1680611cc45750506001600160a01b031660009081526001602052604090205460ff16919050565b600085612ca5576040805162461bcd60e51b815260206004820152600c60248201527f68617368206973207a65726f0000000000000000000000000000000000000000604482015290519081900360640190fd5b336000908152600b602052604090205460ff16612cf35760405162461bcd60e51b8152600401808060200182810382526027815260200180615a7e6027913960400191505060405180910390fd5b6001600160a01b038416612d4e576040805162461bcd60e51b815260206004820152601b60248201527f64657374696e6174696f6e206973207a65726f20616464726573730000000000604482015290519081900360640190fd5b6001600160a01b038916612da9576040805162461bcd60e51b815260206004820152601460248201527f66726f6d206973207a65726f2061646472657373000000000000000000000000604482015290519081900360640190fd5b612db4338a8a614b3c565b6000612dc58a60018a60008061478f565b9050612e0d876001883389868a8a8080601f0160208091040260200160405190810160405280939291908181526020018383808284376000920182905250925061484c915050565b6040805182815290518a917f848e40d125c35dfb2c55bc4bf9aebe36a2a1c53c8e8ab1a53d5a4bc855d64981919081900360200190a29998505050505050505050565b336001600160a01b0384161480612e765750336000908152600c602052604090205460ff165b80612e9057503360009081526001602052604090205460ff165b612ee1576040805162461bcd60e51b815260206004820152601560248201527f72657175697265206d65746120617070726f76616c0000000000000000000000604482015290519081900360640190fd5b61156c8383836145ac565b606088612f40576040805162461bcd60e51b815260206004820152600c60248201527f68617368206973207a65726f0000000000000000000000000000000000000000604482015290519081900360640190fd5b336000908152600b602052604090205460ff16612fa4576040805162461bcd60e51b815260206004820152601c60248201527f6f6e6c7920626f756e63657220616c6c6f77656420746f206d696e7400000000604482015290519081900360640190fd5b6001600160a01b038416612fff576040805162461bcd60e51b815260206004820152601b60248201527f64657374696e6174696f6e206973207a65726f20616464726573730000000000604482015290519081900360640190fd5b60006130828c8a8a8080602002602001604051908101604052809392919081815260200183836020028082843760009201919091525050604080516020601f8e018190048102820181019092528c815292508c91508b9081908401838280828437600081840152601f19601f820116905080830192505050505050508e8e614c59565b80925081935050506130cb898980806020026020016040519081016040528093929190818152602001838360200280828437600092019190915250899250869150859050614de5565b61313e3386848c8c8080602002602001604051908101604052809392919081815260200183836020028082843760009201919091525050604080516020601f8d018190048102820181019092528b815292508b91508a9081908401838280828437600092019190915250614e3792505050565b509a9950505050505050505050565b6001605f1b8416156131b357856001600160a01b031661316c85613374565b6001600160a01b0316146131b3576040805162461bcd60e51b81526020600482015260096024820152683737ba1037bbb732b960b91b604482015290519081900360640190fd5b6131bf86868686613639565b336000908152600c60205260409020546132249060ff166131e057336131e2565b865b8787878787878080601f01602080910402602001604051908101604052809392919081815260200183838082843760009201829052509250829150613a7b9050565b613275576040805162461bcd60e51b815260206004820152601960248201527f65726331313535207472616e736665722072656a656374656400000000000000604482015290519081900360640190fd5b505050505050565b6000336001600160a01b03851614806132a55750336000908152600c602052604090205460ff165b806132bf57503360009081526001602052604090205460ff165b806132ed57506001600160a01b038416600090815260056020908152604080832033845290915290205460ff165b61333e576040805162461bcd60e51b815260206004820152601560248201527f72657175697265206d65746120617070726f76616c0000000000000000000000604482015290519081900360640190fd5b336000908152600c602052604081205460ff1661335b573361335d565b845b905061336b81868686614405565b95945050505050565b60009081526003602052604090205490565b610100602082020491600790911690565b600181016020026101000382901c63ffffffff1692915050565b60606133bc83614f71565b6133c96107ff84166150a5565b60405160200180807f697066733a2f2f62616679626569000000000000000000000000000000000000815250600e0183805190602001908083835b602083106134235780518252601f199092019160209182019101613404565b6001836020036101000a038019825116818451168082178552505050505050905001807f2f0000000000000000000000000000000000000000000000000000000000000081525060010182805190602001908083835b602083106134985780518252601f199092019160209182019101613479565b5181516020939093036101000a60001901801990911692169190911790527f2e6a736f6e000000000000000000000000000000000000000000000000000000920191825250604080518083037fffffffffffffffffffffffffffffffffffffffffffffffffffffffffffffffe5018152600590920190529695505050505050565b6001605f1b8216156135a9578060011461357a576040805162461bcd60e51b815260206004820152601560248201527f63616e206f6e6c79206275726e206f6e65204e46540000000000000000000000604482015290519081900360640190fd5b336000908152600c60205260409020546135a49060ff1661359b573361359d565b835b8484614b3c565b61156c565b6000811180156135bd575063ffffffff8111155b61360e576040805162461bcd60e51b815260206004820152600e60248201527f696e76616c696420616d6f756e74000000000000000000000000000000000000604482015290519081900360640190fd5b336000908152600c602052604090205461156c9060ff1661362f5733613631565b835b84848461519a565b6001600160a01b038316613694576040805162461bcd60e51b815260206004820152601b60248201527f64657374696e6174696f6e206973207a65726f20616464726573730000000000604482015290519081900360640190fd5b6001600160a01b0384166136ef576040805162461bcd60e51b815260206004820152601460248201527f66726f6d206973207a65726f2061646472657373000000000000000000000000604482015290519081900360640190fd5b60006001600160a01b03851633148061371757503360009081526001602052604090205460ff165b8061374557506001600160a01b038516600090815260056020908152604080832033845290915290205460ff165b8061375f5750336000908152600c602052604090205460ff165b90506001605f1b8316156138e357808061378f57506000838152600660205260409020546001600160a01b031633145b6137e0576040805162461bcd60e51b815260206004820152601560248201527f4f70657261746f72206e6f7420617070726f7665640000000000000000000000604482015290519081900360640190fd5b81156138de57816001146138255760405162461bcd60e51b8152600401808060200182810382526023815260200180615aa56023913960400191505060405180910390fd5b6001600160a01b03808616600090815260026020908152604080832080546000190190558784168084528184208054600101905587845260038352818420556006909152902054161561389c576000838152600660205260409020805473ffffffffffffffffffffffffffffffffffffffff191690555b82846001600160a01b0316866001600160a01b03167fddf252ad1be2c89b69c2b068fc378daa952ba7f163c4a11628f55a4df523b3ef60405160405180910390a45b6139fd565b80613935576040805162461bcd60e51b815260206004820152601560248201527f4f70657261746f72206e6f7420617070726f7665640000000000000000000000604482015290519081900360640190fd5b81156139fd5760008061394785613386565b6001600160a01b03891660009081526004602090815260408083208584529091529020549193509150613983908286600163ffffffff61525b16565b6001600160a01b038089166000908152600460208181526040808420888552825280842095909555928a1682528252828120858252909152908120546139d2918390879063ffffffff61525b16565b6001600160a01b03871660009081526004602090815260408083209583529490529290922091909155505b336000908152600c60205260409020546001600160a01b03808616919087169060ff16613a2a5733613a2c565b865b6001600160a01b03167fc3d58168c5ae7397731d063d5bbf3d657854427343f4c083240f7aacaa2d0f628686604051808381526020018281526020019250505060405180910390a45050505050565b6000613a8f876001600160a01b031661537e565b613a9b57506001612995565b8215613ad057613aaa876153b5565b613ad0578115613ac857613ac1898989898861547b565b9050612995565b506001612995565b63f23a6e6160e01b7bffffffffffffffffffffffffffffffffffffffffffffffffffffffff1916876001600160a01b031663f23a6e618b8b8a8a8a6040518663ffffffff1660e01b815260040180866001600160a01b03166001600160a01b03168152602001856001600160a01b03166001600160a01b0316815260200184815260200183815260200180602001828103825283818151815260200191508051906020019080838360005b83811015613b93578181015183820152602001613b7b565b50505050905090810190601f168015613bc05780820380516001836020036101000a031916815260200191505b509650505050505050602060405180830381600087803b158015613be357600080fd5b505af1158015613bf7573d6000803e3d6000fd5b505050506040513d6020811015613c0d57600080fd5b50516001600160e01b031916149998505050505050505050565b60006001836002811115613c3757fe5b14613c425785613c44565b865b8551909150600080808080805b8681101561417b5760006001605f1b8d8381518110613c6c57fe5b60200260200101511611156140265760018a6002811115613c8957fe5b1415613d27578880613cd65750336001600160a01b0316600660008e8481518110613cb057fe5b6020908102919091018101518252810191909152604001600020546001600160a01b0316145b613d27576040805162461bcd60e51b815260206004820152601560248201527f4f70657261746f72206e6f7420617070726f7665640000000000000000000000604482015290519081900360640190fd5b60008b8281518110613d3557fe5b60200260200101511115614021576001918201918a6002811115613d5557fe5b1415613f0b578a8181518110613d6757fe5b6020026020010151600114613dad5760405162461bcd60e51b8152600401808060200182810382526023815260200180615aa56023913960400191505060405180910390fd5b8c6001600160a01b03168e6001600160a01b03161415613e75578d6001600160a01b0316613ded8d8381518110613de057fe5b6020026020010151613374565b6001600160a01b031614613e48576040805162461bcd60e51b815260206004820152601260248201527f6e6f74206f776e657220696e2062617463680000000000000000000000000000604482015290519081900360640190fd5b6000600360008e8481518110613e5a57fe5b60200260200101518152602001908152602001600020819055505b60006001600160a01b0316600660008e8481518110613e9057fe5b6020908102919091018101518252810191909152604001600020546001600160a01b031614613f06576000600660008e8481518110613ecb57fe5b6020026020010151815260200190815260200160002060006101000a8154816001600160a01b0302191690836001600160a01b031602179055505b614021565b8c6001600160a01b03168e6001600160a01b031614613f98578d6001600160a01b0316613f3d8d8381518110613de057fe5b6001600160a01b031614613f98576040805162461bcd60e51b815260206004820152601260248201527f6e6f74206f776e657220696e2062617463680000000000000000000000000000604482015290519081900360640190fd5b8c6001600160a01b0316600360008e8481518110613fb257fe5b60200260200101518152602001908152602001600020819055508b8181518110613fd857fe5b60200260200101518d6001600160a01b03168f6001600160a01b03167fddf252ad1be2c89b69c2b068fc378daa952ba7f163c4a11628f55a4df523b3ef60405160405180910390a45b614173565b88614078576040805162461bcd60e51b815260206004820152601560248201527f4f70657261746f72206e6f7420617070726f7665640000000000000000000000604482015290519081900360640190fd5b60008b828151811061408657fe5b60200260200101511115614173576140b08c82815181106140a357fe5b6020026020010151613386565b90965094508261410b576001600160a01b03881660009081526004602090815260408083208984529091529020548b51879450614104919087908e90859081106140f657fe5b60200260200101518d61525b565b9350614173565b828614614146576001600160a01b03881660009081526004602090815260408083209583529490528381209490945585845291909220549184915b614170858c838151811061415657fe5b60200260200101518c8761525b909392919063ffffffff16565b93505b600101613c51565b5080156141d957600189600281111561419057fe5b14156141ba576001600160a01b0387166000908152600260205260409020805482900390556141d9565b6001600160a01b03871660009081526002602052604090208054820190555b8415614206576001600160a01b038716600090815260046020908152604080832088845290915290208390555b50505050505050505050505050565b6000614229856001600160a01b031661537e565b614235575060016143fb565b6000856001600160a01b031663bc197c8189898888886040518663ffffffff1660e01b815260040180866001600160a01b03166001600160a01b03168152602001856001600160a01b03166001600160a01b03168152602001806020018060200180602001848103845287818151815260200191508051906020019060200280838360005b838110156142d25781810151838201526020016142ba565b50505050905001848103835286818151815260200191508051906020019060200280838360005b838110156143115781810151838201526020016142f9565b50505050905001848103825285818151815260200191508051906020019080838360005b8381101561434d578181015183820152602001614335565b50505050905090810190601f16801561437a5780820380516001836020036101000a031916815260200191505b5098505050505050505050602060405180830381600087803b15801561439f57600080fd5b505af11580156143b3573d6000803e3d6000fd5b505050506040513d60208110156143c957600080fd5b50516001600160e01b0319167fbc197c8100000000000000000000000000000000000000000000000000000000149150505b9695505050505050565b60006001600160a01b038216614462576040805162461bcd60e51b815260206004820152601b60248201527f64657374696e6174696f6e206973207a65726f20616464726573730000000000604482015290519081900360640190fd5b6001605f1b8316156144bb576040805162461bcd60e51b815260206004820152601460248201527f4e6f7420616e204552433131353520546f6b656e000000000000000000000000604482015290519081900360640190fd5b50600082815260096020526040902080547fffffffffffffffffffffffffffffffffffffffffffffffffffffffff000000008116600163ffffffff928316818101909316919091179092556001605f1b6780000000000000008202850101916145299087908790879061519a565b61456d600760006bffffffff80000000000007ff1987168152602001908152602001600020546001600089878760405180602001604052806000815250600161484c565b60408051838152905185917faa923cda6d3360ee3cd49c083ac1fe5e062a5739b82a32d597a65168c0c6926c919081900360200190a250949350505050565b6001600160a01b038316614607576040805162461bcd60e51b815260206004820152601660248201527f73656e646572206973207a65726f206164647265737300000000000000000000604482015290519081900360640190fd5b816001600160a01b0316836001600160a01b0316141561466e576040805162461bcd60e51b815260206004820152601160248201527f73656e646572203d206f70657261746f72000000000000000000000000000000604482015290519081900360640190fd5b6001600160a01b0382166146c9576040805162461bcd60e51b815260206004820152601860248201527f6f70657261746f72206973207a65726f20616464726573730000000000000000604482015290519081900360640190fd5b6001600160a01b03821660009081526001602052604090205460ff16156147215760405162461bcd60e51b8152600401808060200182810382526036815260200180615b806036913960400191505060405180910390fd5b6001600160a01b03838116600081815260056020908152604080832094871680845294825291829020805460ff1916861515908117909155825190815291517f17307eab39ab6107e8899845ad3d59bd9653f200f220920489ca2b5937696c319281900390910190a3505050565b600080851180156147a4575063ffffffff8511155b6147f5576040805162461bcd60e51b815260206004820152600e60248201527f696e76616c696420737570706c79000000000000000000000000000000000000604482015290519081900360640190fd5b61ffff8083169084166108000264ffffffffff861662800000026001881461481e576000614824565b6001605f1b5b6001600160a01b038a166c010000000000000000000000000201010101905095945050505050565b6bffffffff80000000000007ff198316816149b157600081815260076020526040902054156148c2576040805162461bcd60e51b815260206004820152600f60248201527f696420616c726561647920757365640000000000000000000000000000000000604482015290519081900360640190fd5b6000818152600760205260409020899055600460ff88161061492b576040805162461bcd60e51b815260206004820152600b60248201527f726172697479203e3d2034000000000000000000000000000000000000000000604482015290519081900360640190fd5b6040805160018082528183019092526060916020820181803883390190505090508760400260f81b8160008151811061496057fe5b60200101907effffffffffffffffffffffffffffffffffffffffffffffffffffffffffffff1916908160001a905350600082815260086020908152604090912082516149ae928401906159e5565b50505b8760011415614a19576001600160a01b038516600081815260026020908152604080832080546001019055878352600390915280822083905551869291907fddf252ad1be2c89b69c2b068fc378daa952ba7f163c4a11628f55a4df523b3ef908290a4614a8c565b600080614a2586613386565b6001600160a01b03891660009081526004602090815260408083208584529091529020549193509150614a6190828c600263ffffffff61525b16565b6001600160a01b03881660009081526004602090815260408083209583529490529290922091909155505b60408051858152602081018a905281516001600160a01b0380891693600093918b16927fc3d58168c5ae7397731d063d5bbf3d657854427343f4c083240f7aacaa2d0f629281900390910190a4614aeb86600087878c88600080613a7b565b611c90576040805162461bcd60e51b815260206004820152601160248201527f7472616e736665722072656a6563746564000000000000000000000000000000604482015290519081900360640190fd5b614b4581613374565b6001600160a01b0316826001600160a01b031614614b96576040805162461bcd60e51b81526020600482015260096024820152683737ba1037bbb732b960b91b604482015290519081900360640190fd5b60008181526003602090815260408083207401000000000000000000000000000000000000000090556001600160a01b0385168084526002909252808320805460001901905551839291907fddf252ad1be2c89b69c2b068fc378daa952ba7f163c4a11628f55a4df523b3ef908390a4604080518281526001602082015281516000926001600160a01b0386811693908816927fc3d58168c5ae7397731d063d5bbf3d657854427343f4c083240f7aacaa2d0f62929181900390910190a4505050565b6060600080865111614cb2576040805162461bcd60e51b815260206004820152601460248201527f737570706c6965732e6c656e677468203d3d2030000000000000000000000000604482015290519081900360640190fd5b85516108001015614d0a576040805162461bcd60e51b815260206004820152600d60248201527f746f6f2062696720626174636800000000000000000000000000000000000000604482015290519081900360640190fd5b614d158787866155a4565b809250819350505060006bffffffff80000000000007ff1983600081518110614d3a57fe5b6020026020010151169050600760008281526020019081526020016000205460001c600014614db0576040805162461bcd60e51b815260206004820152600f60248201527f696420616c726561647920757365640000000000000000000000000000000000604482015290519081900360640190fd5b6000818152600760209081526040808320879055600882529091208751614dd9928901906159e5565b50509550959350505050565b60005b8161ffff168551038161ffff161015614e0f57614e0781868686615709565b600801614de8565b61ffff821615614e3057614e308261ffff168651038361ffff168686615813565b5050505050565b836001600160a01b031660006001600160a01b0316866001600160a01b03167f4a39dc06d4c0dbc64b70af90fd698a233a518aa5d07e595d983b8c0526c8f7fb8686604051808060200180602001838103835285818151815260200191508051906020019060200280838360005b83811015614ebd578181015183820152602001614ea5565b50505050905001838103825284818151815260200191508051906020019060200280838360005b83811015614efc578181015183820152602001614ee4565b5050505090500194505050505060405180910390a4614f2085600086868686614215565b614e30576040805162461bcd60e51b815260206004820152601160248201527f7472616e736665722072656a6563746564000000000000000000000000000000604482015290519081900360640190fd5b60408051603480825260608281019093528391839082602082018180388339509192507f6162636465666768696a6b6c6d6e6f707172737475767778797a323334353637915050601c600285901b1660208110614fca57fe5b1a60f81b81836001900393508381518110614fe157fe5b60200101907effffffffffffffffffffffffffffffffffffffffffffffffffffffffffffff1916908160001a9053506008830492505b811561509d577f6162636465666768696a6b6c6d6e6f707172737475767778797a323334353637602084066020811061504c57fe5b1a60f81b8183600190039350838151811061506357fe5b60200101907effffffffffffffffffffffffffffffffffffffffffffffffffffffffffffff1916908160001a905350602083049250615017565b949350505050565b6060816150e6575060408051808201909152600181527f300000000000000000000000000000000000000000000000000000000000000060208201526110cb565b8160005b81156150fe57600101600a820491506150ea565b6060816040519080825280601f01601f19166020018201604052801561512b576020820181803883390190505b50905060001982015b851561519157600a860660300160f81b8282806001900393508151811061515757fe5b60200101907effffffffffffffffffffffffffffffffffffffffffffffffffffffffffffff1916908160001a905350600a86049550615134565b50949350505050565b6000806151a684613386565b6001600160a01b038716600090815260046020908152604080832085845290915290205491935091506151e6908263ffffffff8087169060019061525b16565b6001600160a01b038087166000818152600460209081526040808320888452825280832095909555845189815263ffffffff8916918101919091528451919492938b16927fc3d58168c5ae7397731d063d5bbf3d657854427343f4c083240f7aacaa2d0f6292918290030190a4505050505050565b6000808083600281111561526b57fe5b141561529e5761527b8686613397565b90506152978686615292848863ffffffff6158c816565b615920565b9150615191565b60018360028111156152ac57fe5b1415615312576152bc8686613397565b9050838110156152fd5760405162461bcd60e51b8152600401808060200182810382526022815260200180615be26022913960400191505060405180910390fd5b6152978686615292848863ffffffff61598816565b600283600281111561532057fe5b141561533157615297868686615920565b6040805162461bcd60e51b815260206004820152601160248201527f496e76616c6964206f7065726174696f6e000000000000000000000000000000604482015290519081900360640190fd5b60007fc5d2460186f7233c927e7db2dcc703c0e500b653ca82273b7bfad8045d85a470823f801580159061509d5750141592915050565b604080517f4e2312e0000000000000000000000000000000000000000000000000000000006024808301919091528251808303909101815260449091018252602081810180517bffffffffffffffffffffffffffffffffffffffffffffffffffffffff167f01ffc9a7000000000000000000000000000000000000000000000000000000001781528251935160008082529485948594909392908183858b612710fa955080519450505050609e5a1161546a57fe5b82801561336b575090949350505050565b6040517f150b7a02000000000000000000000000000000000000000000000000000000008082526001600160a01b03878116600484019081528782166024850152604484018690526080606485019081528551608486015285516000959389169363150b7a02938c938c938b938b93929160a49091019060208501908083838f5b838110156155145781810151838201526020016154fc565b50505050905090810190601f1680156155415780820380516001836020036101000a031916815260200191505b5095505050505050602060405180830381600087803b15801561556357600080fd5b505af1158015615577573d6000803e3d6000fd5b505050506040513d602081101561558d57600080fd5b50516001600160e01b031916149695505050505050565b60606000808451905060608161ffff166040519080825280602002602001820160405280156155dd578160200160208202803883390190505b5090506000805b8361ffff168161ffff16101561569c5761ffff821661562857878161ffff168151811061560d57fe5b6020026020010151600114156156235780840391505b615694565b878161ffff168151811061563857fe5b6020026020010151600114615694576040805162461bcd60e51b815260206004820152601e60248201527f4e465473206e65656420746f206265207075742061742074686520656e640000604482015290519081900360640190fd5b6001016155e4565b5080830360005b8461ffff168161ffff1610156156fa576156d78a8a8361ffff16815181106156c757fe5b60200260200101518a858561478f565b848261ffff16815181106156e757fe5b60209081029190910101526001016156a3565b50919890975095505050505050565b6000818561ffff168151811061571b57fe5b6020026020010151905060008061573183613386565b6001600160a01b03871660009081526004602090815260408083208584529091528120549294509092505b60088110801561577257508751818a61ffff1601105b156157e1576000818a61ffff16019050600189828151811061579057fe5b602002602001015111156157d2576157cb8285018a83815181106157b057fe5b602002602001015160028661525b909392919063ffffffff16565b92506157d8565b506157e1565b5060010161575c565b506001600160a01b03909516600090815260046020908152604080832094835293905291909120939093555050505050565b60005b8363ffffffff168161ffff16101561589c5760008286830161ffff168151811061583c57fe5b6020908102919091018101516000818152600390925260408083206001600160a01b038816908190559051919350839290917fddf252ad1be2c89b69c2b068fc378daa952ba7f163c4a11628f55a4df523b3ef908290a450600101615816565b50506001600160a01b03166000908152600260205260409020805463ffffffff90921691909101905550565b81810182811015610fc3576040805162461bcd60e51b815260206004820152600860248201527f6f766572666c6f77000000000000000000000000000000000000000000000000604482015290519081900360640190fd5b600064010000000082106159655760405162461bcd60e51b8152600401808060200182810382526023815260200180615aee6023913960400191505060405180910390fd5b5063ffffffff600183016020026101000390811b1984169082901b179392505050565b6000828211156159df576040805162461bcd60e51b815260206004820152600860248201527f756e6465666c6f77000000000000000000000000000000000000000000000000604482015290519081900360640190fd5b50900390565b828054600181600116156101000203166002900490600052602060002090601f016020900481019282601f10615a2657805160ff1916838001178555615a53565b82800160010185558215615a53579182015b82811115615a53578251825591602001919060010190615a38565b50615a5f929150615a63565b5090565b6111c591905b80821115615a5f5760008155600101615a6956fe6f6e6c7920626f756e63657220616c6c6f77656420746f206d696e74207669612075706461746563616e6e6f74207472616e73666572206e667420696620616d6f756e74206e6f742031496e636f6e73697374656e74206172726179206c656e677468206265747765656e2061726773416d6f756e7420746f20777269746520696e2062696e20697320746f6f206c617267656f6e6c7920626f756e63657241646d696e2063616e206368616e676520697473656c666f6e6c7920626f756e63657241646d696e2063616e20736574757020626f756e636572736e6f20636f6c6c656374696f6e2065766572206d696e74656420666f72207468617420746f6b656e7375706572206f70657261746f722063616e2774206861766520746865697220617070726f76616c466f72416c6c206368616e6765646f6e6c792061646d696e20697320616c6c6f77656420746f20616464207375706572206f70657261746f727363616e277420737562737472616374206d6f7265207468616e2074686572652069736f6e6c792061646d696e2063616e207365747570206d6574615472616e73616374696f6e50726f636573736f7273a265627a7a72305820277487a1da898d39b32dab6a2044e5017f5f967f1713bfcfbdb458dc7a296f1f64736f6c63430005090032",
  "linkReferences": {},
  "deployedLinkReferences": {}
}