{
  "_format": "hh-sol-artifact-1",
  "contractName": "CommonMinter",
  "sourceName": "contracts/v2/Asset/CommonMinter.sol",
  "abi": [
    {
      "constant": false,
      "inputs": [
        {
          "name": "newFee",
          "type": "uint256"
        }
      ],
      "name": "setFeePerCopy",
      "outputs": [],
      "payable": false,
      "stateMutability": "nonpayable",
      "type": "function"
    },
    {
      "constant": false,
      "inputs": [
        {
          "name": "creator",
          "type": "address"
        },
        {
          "name": "packId",
          "type": "uint40"
        },
        {
          "name": "hash",
          "type": "bytes32"
        },
        {
          "name": "supply",
          "type": "uint32"
        },
        {
          "name": "owner",
          "type": "address"
        },
        {
          "name": "data",
          "type": "bytes"
        },
        {
          "name": "feePerCopy",
          "type": "uint256"
        }
      ],
      "name": "mintFor",
      "outputs": [
        {
          "name": "id",
          "type": "uint256"
        }
      ],
      "payable": false,
      "stateMutability": "nonpayable",
      "type": "function"
    },
    {
      "constant": true,
      "inputs": [],
      "name": "getAdmin",
      "outputs": [
        {
          "name": "",
          "type": "address"
        }
      ],
      "payable": false,
      "stateMutability": "view",
      "type": "function"
    },
    {
      "constant": false,
      "inputs": [
        {
          "name": "creator",
          "type": "address"
        },
        {
          "name": "packId",
          "type": "uint40"
        },
        {
          "name": "hash",
          "type": "bytes32"
        },
        {
          "name": "supplies",
          "type": "uint256[]"
        },
        {
          "name": "owner",
          "type": "address"
        },
        {
          "name": "data",
          "type": "bytes"
        },
        {
          "name": "feePerCopy",
          "type": "uint256"
        }
      ],
      "name": "mintMultipleFor",
      "outputs": [
        {
          "name": "ids",
          "type": "uint256[]"
        }
      ],
      "payable": false,
      "stateMutability": "nonpayable",
      "type": "function"
    },
    {
      "constant": false,
      "inputs": [
        {
          "name": "metaTransactionProcessor",
          "type": "address"
        },
        {
          "name": "enabled",
          "type": "bool"
        }
      ],
      "name": "setMetaTransactionProcessor",
      "outputs": [],
      "payable": false,
      "stateMutability": "nonpayable",
      "type": "function"
    },
    {
      "constant": false,
      "inputs": [
        {
          "name": "newAdmin",
          "type": "address"
        }
      ],
      "name": "changeAdmin",
      "outputs": [],
      "payable": false,
      "stateMutability": "nonpayable",
      "type": "function"
    },
    {
      "constant": true,
      "inputs": [
        {
          "name": "who",
          "type": "address"
        }
      ],
      "name": "isMetaTransactionProcessor",
      "outputs": [
        {
          "name": "",
          "type": "bool"
        }
      ],
      "payable": false,
      "stateMutability": "view",
      "type": "function"
    },
    {
      "constant": false,
      "inputs": [
        {
          "name": "newFeeReceiver",
          "type": "address"
        }
      ],
      "name": "setFeeReceiver",
      "outputs": [],
      "payable": false,
      "stateMutability": "nonpayable",
      "type": "function"
    },
    {
      "inputs": [
        {
          "name": "asset",
          "type": "address"
        },
        {
          "name": "sand",
          "type": "address"
        },
        {
          "name": "feePerCopy",
          "type": "uint256"
        },
        {
          "name": "admin",
          "type": "address"
        },
        {
          "name": "feeReceiver",
          "type": "address"
        }
      ],
      "payable": false,
      "stateMutability": "nonpayable",
      "type": "constructor"
    },
    {
      "anonymous": false,
      "inputs": [
        {
          "indexed": false,
          "name": "metaTransactionProcessor",
          "type": "address"
        },
        {
          "indexed": false,
          "name": "enabled",
          "type": "bool"
        }
      ],
      "name": "MetaTransactionProcessor",
      "type": "event"
    },
    {
      "anonymous": false,
      "inputs": [
        {
          "indexed": false,
          "name": "oldAdmin",
          "type": "address"
        },
        {
          "indexed": false,
          "name": "newAdmin",
          "type": "address"
        }
      ],
      "name": "AdminChanged",
      "type": "event"
    }
  ],
  "bytecode": "0x608060405234801561001057600080fd5b50604051610faf380380610faf833981810160405260a081101561003357600080fd5b508051602082015160408301516060840151608090940151600680546001600160a01b038086166001600160a01b031992831617909255600380548388169083161790556002849055600080548389169083161790556005805492841692909116919091179055929391929091906100b58460016001600160e01b036100bf16565b5050505050610123565b6001600160a01b038216600081815260016020908152604091829020805460ff191685151590811790915582519384529083015280517fb21eb88b4e33b3f1281830a7178d74d8aa73220416215726b68ae23d539515cb9281900390910190a15050565b610e7d806101326000396000f3fe608060405234801561001057600080fd5b50600436106100885760003560e01c80638a04af6a1161005b5780638a04af6a146102cc5780638f283970146102fa578063dc5074af14610320578063efdcd9741461035a57610088565b8063389254051461008d5780634b552d41146100ac5780636e9960c314610166578063791bf4fc1461018a575b600080fd5b6100aa600480360360208110156100a357600080fd5b5035610380565b005b610154600480360360e08110156100c257600080fd5b6001600160a01b03823581169264ffffffffff6020820135169260408201359263ffffffff6060840135169260808101359091169181019060c0810160a082013564010000000081111561011557600080fd5b82018360208201111561012757600080fd5b8035906020019184600183028401116401000000008311171561014957600080fd5b9193509150356103e4565b60408051918252519081900360200190f35b61016e6106ea565b604080516001600160a01b039092168252519081900360200190f35b61027c600480360360e08110156101a057600080fd5b6001600160a01b038235169164ffffffffff60208201351691604082013591908101906080810160608201356401000000008111156101de57600080fd5b8201836020820111156101f057600080fd5b8035906020019184602083028401116401000000008311171561021257600080fd5b919390926001600160a01b038335169260408101906020013564010000000081111561023d57600080fd5b82018360208201111561024f57600080fd5b8035906020019184600183028401116401000000008311171561027157600080fd5b9193509150356106f9565b60408051602080825283518183015283519192839290830191858101910280838360005b838110156102b85781810151838201526020016102a0565b505050509050019250505060405180910390f35b6100aa600480360360408110156102e257600080fd5b506001600160a01b0381351690602001351515610acf565b6100aa6004803603602081101561031057600080fd5b50356001600160a01b0316610b26565b6103466004803603602081101561033657600080fd5b50356001600160a01b0316610c07565b604080519115158252519081900360200190f35b6100aa6004803603602081101561037057600080fd5b50356001600160a01b0316610c25565b6000546001600160a01b031633146103df576040805162461bcd60e51b815260206004820152601d60248201527f6f6e6c792061646d696e20616c6c6f77656420746f2073657420666565000000604482015290519081900360640190fd5b600255565b60006001600160a01b03891633148061040c57503360009081526001602052604090205460ff165b61045d576040805162461bcd60e51b815260206004820152600e60248201527f6e6f7420617574686f72697a6564000000000000000000000000000000000000604482015290519081900360640190fd5b60025482146104b3576040805162461bcd60e51b815260206004820152600b60248201527f696e76616c696420666565000000000000000000000000000000000000000000604482015290519081900360640190fd5b6006546005546001600160a01b03918216916323b872dd918c91166104e263ffffffff808c16908890610ca816565b6040518463ffffffff1660e01b815260040180846001600160a01b03166001600160a01b03168152602001836001600160a01b03166001600160a01b031681526020018281526020019350505050602060405180830381600087803b15801561054a57600080fd5b505af115801561055e573d6000803e3d6000fd5b505050506040513d602081101561057457600080fd5b50516105c7576040805162461bcd60e51b815260206004820152601760248201527f6661696c656420746f207472616e736665722053414e44000000000000000000604482015290519081900360640190fd5b6003546040517fcfb5a71f0000000000000000000000000000000000000000000000000000000081526001600160a01b038b81166004830190815264ffffffffff8c166024840152604483018b905263ffffffff8a16606484015260006084840181905289831660a485015260e4840181905261010060c485019081526101048501899052929094169363cfb5a71f938e938e938e938e9390928e928e928e9286929161012401858580828437600081840152601f19601f8201169050808301925050509a5050505050505050505050602060405180830381600087803b1580156106b157600080fd5b505af11580156106c5573d6000803e3d6000fd5b505050506040513d60208110156106db57600080fd5b50519998505050505050505050565b6000546001600160a01b031690565b60606001600160a01b038a1633148061072157503360009081526001602052604090205460ff165b610772576040805162461bcd60e51b815260206004820152600e60248201527f6e6f7420617574686f72697a6564000000000000000000000000000000000000604482015290519081900360640190fd5b60025482146107c8576040805162461bcd60e51b815260206004820152600b60248201527f696e76616c696420666565000000000000000000000000000000000000000000604482015290519081900360640190fd5b600086815b81811015610804576107fa8a8a838181106107e457fe5b9050602002013584610d1e90919063ffffffff16565b92506001016107cd565b506006546005546001600160a01b03918216916323b872dd918f9116610830868963ffffffff610ca816565b6040518463ffffffff1660e01b815260040180846001600160a01b03166001600160a01b03168152602001836001600160a01b03166001600160a01b031681526020018281526020019350505050602060405180830381600087803b15801561089857600080fd5b505af11580156108ac573d6000803e3d6000fd5b505050506040513d60208110156108c257600080fd5b5051610915576040805162461bcd60e51b815260206004820152601760248201527f6661696c656420746f207472616e736665722053414e44000000000000000000604482015290519081900360640190fd5b600360009054906101000a90046001600160a01b03166001600160a01b031663f0bc00d88d8d8d8d8d8d8d8d6040518963ffffffff1660e01b815260040180896001600160a01b03166001600160a01b031681526020018864ffffffffff1664ffffffffff1681526020018781526020018060200180602001866001600160a01b03166001600160a01b031681526020018060200184810384528989828181526020019250602002808284376000838201819052601f909101601f19169092018681038086529281526040928301845291820187905250606001868680828437600081840152601f19601f8201169050808301925050509b505050505050505050505050600060405180830381600087803b158015610a3357600080fd5b505af1158015610a47573d6000803e3d6000fd5b505050506040513d6000823e601f3d908101601f191682016040526020811015610a7057600080fd5b810190808051640100000000811115610a8857600080fd5b82016020810184811115610a9b57600080fd5b8151856020820283011164010000000082111715610ab857600080fd5b509096505050505050509998505050505050505050565b6000546001600160a01b03163314610b185760405162461bcd60e51b815260040180806020018281038252602e815260200180610e1b602e913960400191505060405180910390fd5b610b228282610d76565b5050565b6000546001600160a01b03163314610b85576040805162461bcd60e51b815260206004820152601b60248201527f6f6e6c792061646d696e2063616e206368616e67652061646d696e0000000000604482015290519081900360640190fd5b600054604080516001600160a01b039283168152918316602083015280517f7e644d79422f17c01e4894b5f4f588d331ebfa28653d42ae832dc59e38c9798f9281900390910190a1600080547fffffffffffffffffffffffff0000000000000000000000000000000000000000166001600160a01b0392909216919091179055565b6001600160a01b031660009081526001602052604090205460ff1690565b6000546001600160a01b03163314610c6e5760405162461bcd60e51b8152600401808060200182810382526022815260200180610df96022913960400191505060405180910390fd5b600580547fffffffffffffffffffffffff0000000000000000000000000000000000000000166001600160a01b0392909216919091179055565b600082610cb757506000610d18565b5081810281838281610cc557fe5b0414610d18576040805162461bcd60e51b815260206004820152600860248201527f6f766572666c6f77000000000000000000000000000000000000000000000000604482015290519081900360640190fd5b92915050565b81810182811015610d18576040805162461bcd60e51b815260206004820152600860248201527f6f766572666c6f77000000000000000000000000000000000000000000000000604482015290519081900360640190fd5b6001600160a01b03821660008181526001602090815260409182902080547fffffffffffffffffffffffffffffffffffffffffffffffffffffffffffffff001685151590811790915582519384529083015280517fb21eb88b4e33b3f1281830a7178d74d8aa73220416215726b68ae23d539515cb9281900390910190a1505056fe6f6e6c792061646d696e2063616e206368616e6765207468652072656365697665726f6e6c792061646d696e2063616e207365747570206d6574615472616e73616374696f6e50726f636573736f7273a265627a7a7230582015f1b44f9ef7ba3d897c937c2c465c4375c593cc80d2ce797d48e77b0ee2b80364736f6c63430005090032",
  "linkReferences": {},
  "deployedLinkReferences": {}
}