{
  "_format": "hh-sol-artifact-1",
  "contractName": "ERC1155ERC721",
  "sourceName": "contracts/v2/Asset/ERC1155ERC721.sol",
  "abi": [
    {
      "constant": true,
      "inputs": [
        {
          "name": "owner",
          "type": "address"
        },
        {
          "name": "id",
          "type": "uint256"
        }
      ],
      "name": "balanceOf",
      "outputs": [
        {
          "name": "",
          "type": "uint256"
        }
      ],
      "payable": false,
      "stateMutability": "view",
      "type": "function"
    },
    {
      "constant": true,
      "inputs": [
        {
          "name": "id",
          "type": "bytes4"
        }
      ],
      "name": "supportsInterface",
      "outputs": [
        {
          "name": "",
          "type": "bool"
        }
      ],
      "payable": false,
      "stateMutability": "view",
      "type": "function"
    },
    {
      "constant": false,
      "inputs": [
        {
          "name": "newBouncerAdmin",
          "type": "address"
        }
      ],
      "name": "changeBouncerAdmin",
      "outputs": [],
      "payable": false,
      "stateMutability": "nonpayable",
      "type": "function"
    },
    {
      "constant": true,
      "inputs": [],
      "name": "name",
      "outputs": [
        {
          "name": "_name",
          "type": "string"
        }
      ],
      "payable": false,
      "stateMutability": "pure",
      "type": "function"
    },
    {
      "constant": true,
      "inputs": [
        {
          "name": "id",
          "type": "uint256"
        }
      ],
      "name": "getApproved",
      "outputs": [
        {
          "name": "operator",
          "type": "address"
        }
      ],
      "payable": false,
      "stateMutability": "view",
      "type": "function"
    },
    {
      "constant": false,
      "inputs": [
        {
          "name": "operator",
          "type": "address"
        },
        {
          "name": "id",
          "type": "uint256"
        }
      ],
      "name": "approve",
      "outputs": [],
      "payable": false,
      "stateMutability": "nonpayable",
      "type": "function"
    },
    {
      "constant": true,
      "inputs": [
        {
          "name": "id",
          "type": "uint256"
        }
      ],
      "name": "uri",
      "outputs": [
        {
          "name": "",
          "type": "string"
        }
      ],
      "payable": false,
      "stateMutability": "view",
      "type": "function"
    },
    {
      "constant": false,
      "inputs": [
        {
          "name": "from",
          "type": "address"
        },
        {
          "name": "id",
          "type": "uint256"
        },
        {
          "name": "amount",
          "type": "uint256"
        }
      ],
      "name": "burnFrom",
      "outputs": [],
      "payable": false,
      "stateMutability": "nonpayable",
      "type": "function"
    },
    {
      "constant": false,
      "inputs": [
        {
          "name": "metaTransactionContract",
          "type": "address"
        },
        {
          "name": "admin",
          "type": "address"
        },
        {
          "name": "bouncerAdmin",
          "type": "address"
        }
      ],
      "name": "init",
      "outputs": [],
      "payable": false,
      "stateMutability": "nonpayable",
      "type": "function"
    },
    {
      "constant": false,
      "inputs": [
        {
          "name": "from",
          "type": "address"
        },
        {
          "name": "to",
          "type": "address"
        },
        {
          "name": "id",
          "type": "uint256"
        }
      ],
      "name": "transferFrom",
      "outputs": [],
      "payable": false,
      "stateMutability": "nonpayable",
      "type": "function"
    },
    {
      "constant": false,
      "inputs": [
        {
          "name": "sender",
          "type": "address"
        },
        {
          "name": "operator",
          "type": "address"
        },
        {
          "name": "id",
          "type": "uint256"
        }
      ],
      "name": "approveFor",
      "outputs": [],
      "payable": false,
      "stateMutability": "nonpayable",
      "type": "function"
    },
    {
      "constant": true,
      "inputs": [
        {
          "name": "id",
          "type": "uint256"
        }
      ],
      "name": "collectionIndexOf",
      "outputs": [
        {
          "name": "",
          "type": "uint256"
        }
      ],
      "payable": false,
      "stateMutability": "view",
      "type": "function"
    },
    {
      "constant": false,
      "inputs": [
        {
          "name": "from",
          "type": "address"
        },
        {
          "name": "to",
          "type": "address"
        },
        {
          "name": "ids",
          "type": "uint256[]"
        },
        {
          "name": "values",
          "type": "uint256[]"
        },
        {
          "name": "data",
          "type": "bytes"
        }
      ],
      "name": "safeBatchTransferFrom",
      "outputs": [],
      "payable": false,
      "stateMutability": "nonpayable",
      "type": "function"
    },
    {
      "constant": false,
      "inputs": [
        {
          "name": "from",
          "type": "address"
        },
        {
          "name": "to",
          "type": "address"
        },
        {
          "name": "id",
          "type": "uint256"
        }
      ],
      "name": "safeTransferFrom",
      "outputs": [],
      "payable": false,
      "stateMutability": "nonpayable",
      "type": "function"
    },
    {
      "constant": true,
      "inputs": [
        {
          "name": "who",
          "type": "address"
        }
      ],
      "name": "isBouncer",
      "outputs": [
        {
          "name": "",
          "type": "bool"
        }
      ],
      "payable": false,
      "stateMutability": "view",
      "type": "function"
    },
    {
      "constant": true,
      "inputs": [
        {
          "name": "owners",
          "type": "address[]"
        },
        {
          "name": "ids",
          "type": "uint256[]"
        }
      ],
      "name": "balanceOfBatch",
      "outputs": [
        {
          "name": "",
          "type": "uint256[]"
        }
      ],
      "payable": false,
      "stateMutability": "view",
      "type": "function"
    },
    {
      "constant": true,
      "inputs": [
        {
          "name": "id",
          "type": "uint256"
        }
      ],
      "name": "creatorOf",
      "outputs": [
        {
          "name": "",
          "type": "address"
        }
      ],
      "payable": false,
      "stateMutability": "view",
      "type": "function"
    },
    {
      "constant": true,
      "inputs": [
        {
          "name": "id",
          "type": "uint256"
        }
      ],
      "name": "uri2",
      "outputs": [
        {
          "name": "",
          "type": "string"
        }
      ],
      "payable": false,
      "stateMutability": "view",
      "type": "function"
    },
    {
      "constant": true,
      "inputs": [
        {
          "name": "id",
          "type": "uint256"
        }
      ],
      "name": "ownerOf",
      "outputs": [
        {
          "name": "owner",
          "type": "address"
        }
      ],
      "payable": false,
      "stateMutability": "view",
      "type": "function"
    },
    {
      "constant": true,
      "inputs": [
        {
          "name": "who",
          "type": "address"
        }
      ],
      "name": "isSuperOperator",
      "outputs": [
        {
          "name": "",
          "type": "bool"
        }
      ],
      "payable": false,
      "stateMutability": "view",
      "type": "function"
    },
    {
      "constant": true,
      "inputs": [],
      "name": "getAdmin",
      "outputs": [
        {
          "name": "",
          "type": "address"
        }
      ],
      "payable": false,
      "stateMutability": "view",
      "type": "function"
    },
    {
      "constant": true,
      "inputs": [
        {
          "name": "owner",
          "type": "address"
        }
      ],
      "name": "balanceOf",
      "outputs": [
        {
          "name": "balance",
          "type": "uint256"
        }
      ],
      "payable": false,
      "stateMutability": "view",
      "type": "function"
    },
    {
      "constant": false,
      "inputs": [
        {
          "name": "metaTransactionProcessor",
          "type": "address"
        },
        {
          "name": "enabled",
          "type": "bool"
        }
      ],
      "name": "setMetaTransactionProcessor",
      "outputs": [],
      "payable": false,
      "stateMutability": "nonpayable",
      "type": "function"
    },
    {
      "constant": true,
      "inputs": [
        {
          "name": "id",
          "type": "uint256"
        }
      ],
      "name": "rarity",
      "outputs": [
        {
          "name": "",
          "type": "uint256"
        }
      ],
      "payable": false,
      "stateMutability": "view",
      "type": "function"
    },
    {
      "constant": false,
      "inputs": [
        {
          "name": "newAdmin",
          "type": "address"
        }
      ],
      "name": "changeAdmin",
      "outputs": [],
      "payable": false,
      "stateMutability": "nonpayable",
      "type": "function"
    },
    {
      "constant": false,
      "inputs": [
        {
          "name": "creator",
          "type": "address"
        },
        {
          "name": "packId",
          "type": "uint40"
        },
        {
          "name": "numFTs",
          "type": "uint16"
        }
      ],
      "name": "isPackIdUsed",
      "outputs": [
        {
          "name": "",
          "type": "bool"
        }
      ],
      "payable": false,
      "stateMutability": "nonpayable",
      "type": "function"
    },
    {
      "constant": true,
      "inputs": [],
      "name": "symbol",
      "outputs": [
        {
          "name": "_symbol",
          "type": "string"
        }
      ],
      "payable": false,
      "stateMutability": "pure",
      "type": "function"
    },
    {
      "constant": true,
      "inputs": [],
      "name": "getBouncerAdmin",
      "outputs": [
        {
          "name": "",
          "type": "address"
        }
      ],
      "payable": false,
      "stateMutability": "view",
      "type": "function"
    },
    {
      "constant": false,
      "inputs": [
        {
          "name": "operator",
          "type": "address"
        },
        {
          "name": "approved",
          "type": "bool"
        }
      ],
      "name": "setApprovalForAll",
      "outputs": [],
      "payable": false,
      "stateMutability": "nonpayable",
      "type": "function"
    },
    {
      "constant": true,
      "inputs": [
        {
          "name": "",
          "type": "uint256"
        }
      ],
      "name": "_metadataHash",
      "outputs": [
        {
          "name": "",
          "type": "bytes32"
        }
      ],
      "payable": false,
      "stateMutability": "view",
      "type": "function"
    },
    {
      "constant": false,
      "inputs": [
        {
          "name": "superOperator",
          "type": "address"
        },
        {
          "name": "enabled",
          "type": "bool"
        }
      ],
      "name": "setSuperOperator",
      "outputs": [],
      "payable": false,
      "stateMutability": "nonpayable",
      "type": "function"
    },
    {
      "constant": false,
      "inputs": [
        {
          "name": "id",
          "type": "uint256"
        },
        {
          "name": "amount",
          "type": "uint256"
        }
      ],
      "name": "burn",
      "outputs": [],
      "payable": false,
      "stateMutability": "nonpayable",
      "type": "function"
    },
    {
      "constant": false,
      "inputs": [
        {
          "name": "sender",
          "type": "address"
        },
        {
          "name": "original",
          "type": "address"
        },
        {
          "name": "to",
          "type": "address"
        }
      ],
      "name": "transferCreatorship",
      "outputs": [],
      "payable": false,
      "stateMutability": "nonpayable",
      "type": "function"
    },
    {
      "constant": false,
      "inputs": [
        {
          "name": "from",
          "type": "address"
        },
        {
          "name": "to",
          "type": "address"
        },
        {
          "name": "id",
          "type": "uint256"
        },
        {
          "name": "data",
          "type": "bytes"
        }
      ],
      "name": "safeTransferFrom",
      "outputs": [],
      "payable": false,
      "stateMutability": "nonpayable",
      "type": "function"
    },
    {
      "constant": false,
      "inputs": [
        {
          "name": "bouncer",
          "type": "address"
        },
        {
          "name": "enabled",
          "type": "bool"
        }
      ],
      "name": "setBouncer",
      "outputs": [],
      "payable": false,
      "stateMutability": "nonpayable",
      "type": "function"
    },
    {
      "constant": true,
      "inputs": [
        {
          "name": "id",
          "type": "uint256"
        }
      ],
      "name": "isCollection",
      "outputs": [
        {
          "name": "",
          "type": "bool"
        }
      ],
      "payable": false,
      "stateMutability": "view",
      "type": "function"
    },
    {
      "constant": true,
      "inputs": [
        {
          "name": "id",
          "type": "uint256"
        }
      ],
      "name": "collectionOf",
      "outputs": [
        {
          "name": "",
          "type": "uint256"
        }
      ],
      "payable": false,
      "stateMutability": "view",
      "type": "function"
    },
    {
      "constant": true,
      "inputs": [
        {
          "name": "id",
          "type": "uint256"
        }
      ],
      "name": "tokenURI",
      "outputs": [
        {
          "name": "",
          "type": "string"
        }
      ],
      "payable": false,
      "stateMutability": "view",
      "type": "function"
    },
    {
      "constant": false,
      "inputs": [
        {
          "name": "creator",
          "type": "address"
        },
        {
          "name": "packId",
          "type": "uint40"
        },
        {
          "name": "hash",
          "type": "bytes32"
        },
        {
          "name": "supply",
          "type": "uint256"
        },
        {
          "name": "rarity",
          "type": "uint8"
        },
        {
          "name": "owner",
          "type": "address"
        },
        {
          "name": "data",
          "type": "bytes"
        },
        {
          "name": "xxx",
          "type": "uint8"
        }
      ],
      "name": "mint",
      "outputs": [
        {
          "name": "id",
          "type": "uint256"
        }
      ],
      "payable": false,
      "stateMutability": "nonpayable",
      "type": "function"
    },
    {
      "constant": true,
      "inputs": [
        {
          "name": "id",
          "type": "uint256"
        }
      ],
      "name": "wasEverMinted",
      "outputs": [
        {
          "name": "",
          "type": "bool"
        }
      ],
      "payable": false,
      "stateMutability": "view",
      "type": "function"
    },
    {
      "constant": true,
      "inputs": [
        {
          "name": "who",
          "type": "address"
        }
      ],
      "name": "isMetaTransactionProcessor",
      "outputs": [
        {
          "name": "",
          "type": "bool"
        }
      ],
      "payable": false,
      "stateMutability": "view",
      "type": "function"
    },
    {
      "constant": true,
      "inputs": [
        {
          "name": "owner",
          "type": "address"
        },
        {
          "name": "operator",
          "type": "address"
        }
      ],
      "name": "isApprovedForAll",
      "outputs": [
        {
          "name": "isOperator",
          "type": "bool"
        }
      ],
      "payable": false,
      "stateMutability": "view",
      "type": "function"
    },
    {
      "constant": false,
      "inputs": [
        {
          "name": "sender",
          "type": "address"
        },
        {
          "name": "operator",
          "type": "address"
        },
        {
          "name": "approved",
          "type": "bool"
        }
      ],
      "name": "setApprovalForAllFor",
      "outputs": [],
      "payable": false,
      "stateMutability": "nonpayable",
      "type": "function"
    },
    {
      "constant": false,
      "inputs": [
        {
          "name": "creator",
          "type": "address"
        },
        {
          "name": "packId",
          "type": "uint40"
        },
        {
          "name": "hash",
          "type": "bytes32"
        },
        {
          "name": "supplies",
          "type": "uint256[]"
        },
        {
          "name": "rarityPack",
          "type": "bytes"
        },
        {
          "name": "owner",
          "type": "address"
        },
        {
          "name": "data",
          "type": "bytes"
        }
      ],
      "name": "mintMultiple",
      "outputs": [
        {
          "name": "ids",
          "type": "uint256[]"
        }
      ],
      "payable": false,
      "stateMutability": "nonpayable",
      "type": "function"
    },
    {
      "constant": false,
      "inputs": [
        {
          "name": "from",
          "type": "address"
        },
        {
          "name": "to",
          "type": "address"
        },
        {
          "name": "id",
          "type": "uint256"
        },
        {
          "name": "value",
          "type": "uint256"
        },
        {
          "name": "data",
          "type": "bytes"
        }
      ],
      "name": "safeTransferFrom",
      "outputs": [],
      "payable": false,
      "stateMutability": "nonpayable",
      "type": "function"
    },
    {
      "anonymous": false,
      "inputs": [
        {
          "indexed": true,
          "name": "original",
          "type": "address"
        },
        {
          "indexed": true,
          "name": "from",
          "type": "address"
        },
        {
          "indexed": true,
          "name": "to",
          "type": "address"
        }
      ],
      "name": "CreatorshipTransfer",
      "type": "event"
    },
    {
      "anonymous": false,
      "inputs": [],
      "name": "DebugEvent",
      "type": "event"
    },
    {
      "anonymous": false,
      "inputs": [
        {
          "indexed": false,
          "name": "oldBouncerAdmin",
          "type": "address"
        },
        {
          "indexed": false,
          "name": "newBouncerAdmin",
          "type": "address"
        }
      ],
      "name": "BouncerAdminChanged",
      "type": "event"
    },
    {
      "anonymous": false,
      "inputs": [
        {
          "indexed": false,
          "name": "bouncer",
          "type": "address"
        },
        {
          "indexed": false,
          "name": "enabled",
          "type": "bool"
        }
      ],
      "name": "Bouncer",
      "type": "event"
    },
    {
      "anonymous": false,
      "inputs": [
        {
          "indexed": false,
          "name": "metaTransactionProcessor",
          "type": "address"
        },
        {
          "indexed": false,
          "name": "enabled",
          "type": "bool"
        }
      ],
      "name": "MetaTransactionProcessor",
      "type": "event"
    },
    {
      "anonymous": false,
      "inputs": [
        {
          "indexed": true,
          "name": "fromId",
          "type": "uint256"
        },
        {
          "indexed": false,
          "name": "toId",
          "type": "uint256"
        }
      ],
      "name": "Extraction",
      "type": "event"
    },
    {
      "anonymous": false,
      "inputs": [
        {
          "indexed": true,
          "name": "fromId",
          "type": "uint256"
        },
        {
          "indexed": false,
          "name": "toId",
          "type": "uint256"
        }
      ],
      "name": "AssetUpdate",
      "type": "event"
    },
    {
      "anonymous": false,
      "inputs": [
        {
          "indexed": true,
          "name": "_from",
          "type": "address"
        },
        {
          "indexed": true,
          "name": "_to",
          "type": "address"
        },
        {
          "indexed": true,
          "name": "_tokenId",
          "type": "uint256"
        }
      ],
      "name": "Transfer",
      "type": "event"
    },
    {
      "anonymous": false,
      "inputs": [
        {
          "indexed": true,
          "name": "_owner",
          "type": "address"
        },
        {
          "indexed": true,
          "name": "_approved",
          "type": "address"
        },
        {
          "indexed": true,
          "name": "_tokenId",
          "type": "uint256"
        }
      ],
      "name": "Approval",
      "type": "event"
    },
    {
      "anonymous": false,
      "inputs": [
        {
          "indexed": true,
          "name": "_owner",
          "type": "address"
        },
        {
          "indexed": true,
          "name": "_operator",
          "type": "address"
        },
        {
          "indexed": false,
          "name": "_approved",
          "type": "bool"
        }
      ],
      "name": "ApprovalForAll",
      "type": "event"
    },
    {
      "anonymous": false,
      "inputs": [
        {
          "indexed": true,
          "name": "operator",
          "type": "address"
        },
        {
          "indexed": true,
          "name": "from",
          "type": "address"
        },
        {
          "indexed": true,
          "name": "to",
          "type": "address"
        },
        {
          "indexed": false,
          "name": "id",
          "type": "uint256"
        },
        {
          "indexed": false,
          "name": "value",
          "type": "uint256"
        }
      ],
      "name": "TransferSingle",
      "type": "event"
    },
    {
      "anonymous": false,
      "inputs": [
        {
          "indexed": true,
          "name": "operator",
          "type": "address"
        },
        {
          "indexed": true,
          "name": "from",
          "type": "address"
        },
        {
          "indexed": true,
          "name": "to",
          "type": "address"
        },
        {
          "indexed": false,
          "name": "ids",
          "type": "uint256[]"
        },
        {
          "indexed": false,
          "name": "values",
          "type": "uint256[]"
        }
      ],
      "name": "TransferBatch",
      "type": "event"
    },
    {
      "anonymous": false,
      "inputs": [
        {
          "indexed": false,
          "name": "value",
          "type": "string"
        },
        {
          "indexed": true,
          "name": "id",
          "type": "uint256"
        }
      ],
      "name": "URI",
      "type": "event"
    },
    {
      "anonymous": false,
      "inputs": [
        {
          "indexed": false,
          "name": "superOperator",
          "type": "address"
        },
        {
          "indexed": false,
          "name": "enabled",
          "type": "bool"
        }
      ],
      "name": "SuperOperator",
      "type": "event"
    },
    {
      "anonymous": false,
      "inputs": [
        {
          "indexed": false,
          "name": "oldAdmin",
          "type": "address"
        },
        {
          "indexed": false,
          "name": "newAdmin",
          "type": "address"
        }
      ],
      "name": "AdminChanged",
      "type": "event"
    }
  ],
  "bytecode": "0x60806040526002805464ffffffffff1916905534801561001e57600080fd5b50615a0c806200002f6000396000f3fe608060405234801561001057600080fd5b50600436106102fe5760003560e01c80638a04af6a1161019c578063b88d4fde116100ee578063d402756e11610097578063eeb5a5d111610071578063eeb5a5d114610cd9578063f0bc00d814610d11578063f242432a14610e55576102fe565b8063d402756e14610c68578063dc5074af14610c85578063e985e9c514610cab576102fe565b8063c7778baa116100c8578063c7778baa14610b7f578063c87b56dd14610b9c578063cfb5a71f14610bb9576102fe565b8063b88d4fde14610a6e578063b9b75ebc14610b34578063bd9ff41b14610b62576102fe565b80639bc88b9c11610150578063ac9fe4211161012a578063ac9fe421146109e5578063b390c0ab14610a13578063b666923c14610a36576102fe565b80639bc88b9c14610992578063a22cb4651461099a578063a2c7162f146109c8576102fe565b80638f283970116101815780638f283970146109275780639470f3cb1461094d57806395d89b411461098a576102fe565b80638a04af6a146108dc5780638b58c5691461090a576102fe565b80632e712b4611610255578063589a174311610209578063654b748a116101e3578063654b748a146108885780636e9960c3146108ae57806370a08231146108b6576102fe565b8063589a1743146108315780635c85a5441461084e5780636352211e1461086b576102fe565b806342842e0e1161023a57806342842e0e146106c35780634c4d07e7146106f95780634e1273f41461071f576102fe565b80632e712b46146105795780632eb2c2d614610596576102fe565b8063095ea7b3116102b7578063184b955911610291578063184b9559146104d557806323b872dd1461050d5780632b99174614610543576102fe565b8063095ea7b31461045a5780630e89341c14610486578063124d91e5146104a3576102fe565b8063049476df116102e8578063049476df1461037c57806306fdde03146103a4578063081812fc14610421576102fe565b8062fdd58e1461030357806301ffc9a714610341575b600080fd5b61032f6004803603604081101561031957600080fd5b506001600160a01b038135169060200135610eea565b60408051918252519081900360200190f35b6103686004803603602081101561035757600080fd5b50356001600160e01b031916610f8b565b604080519115158252519081900360200190f35b6103a26004803603602081101561039257600080fd5b50356001600160a01b0316611092565b005b6103ac611152565b6040805160208082528351818301528351919283929083019185019080838360005b838110156103e65781810151838201526020016103ce565b50505050905090810190601f1680156104135780820380516001836020036101000a031916815260200191505b509250505060405180910390f35b61043e6004803603602081101561043757600080fd5b503561118a565b604080516001600160a01b039092168252519081900360200190f35b6103a26004803603604081101561047057600080fd5b506001600160a01b03813516906020013561120e565b6103ac6004803603602081101561049c57600080fd5b5035611384565b6103a2600480360360608110156104b957600080fd5b506001600160a01b038135169060208101359060400135611409565b6103a2600480360360608110156104eb57600080fd5b506001600160a01b03813581169160208101358216916040909101351661152e565b6103a26004803603606081101561052357600080fd5b506001600160a01b03813581169160208101359091169060400135611533565b6103a26004803603606081101561055957600080fd5b506001600160a01b03813581169160208101359091169060400135611623565b61032f6004803603602081101561058f57600080fd5b5035611806565b6103a2600480360360a08110156105ac57600080fd5b6001600160a01b0382358116926020810135909116918101906060810160408201356401000000008111156105e057600080fd5b8201836020820111156105f257600080fd5b8035906020019184602083028401116401000000008311171561061457600080fd5b91939092909160208101903564010000000081111561063257600080fd5b82018360208201111561064457600080fd5b8035906020019184602083028401116401000000008311171561066657600080fd5b91939092909160208101903564010000000081111561068457600080fd5b82018360208201111561069657600080fd5b803590602001918460018302840111640100000000831117156106b857600080fd5b50909250905061181f565b6103a2600480360360608110156106d957600080fd5b506001600160a01b03813581169160208101359091169060400135611bbf565b6103686004803603602081101561070f57600080fd5b50356001600160a01b0316611bda565b6107e16004803603604081101561073557600080fd5b81019060208101813564010000000081111561075057600080fd5b82018360208201111561076257600080fd5b8035906020019184602083028401116401000000008311171561078457600080fd5b9193909290916020810190356401000000008111156107a257600080fd5b8201836020820111156107b457600080fd5b803590602001918460208302840111640100000000831117156107d657600080fd5b509092509050611bf8565b60408051602080825283518183015283519192839290830191858101910280838360005b8381101561081d578181015183820152602001610805565b505050509050019250505060405180910390f35b61043e6004803603602081101561084757600080fd5b5035611cd2565b6103ac6004803603602081101561086457600080fd5b5035611d6f565b61043e6004803603602081101561088157600080fd5b5035611df3565b6103686004803603602081101561089e57600080fd5b50356001600160a01b0316611e5b565b61043e611e79565b61032f600480360360208110156108cc57600080fd5b50356001600160a01b0316611e88565b6103a2600480360360408110156108f257600080fd5b506001600160a01b0381351690602001351515611f01565b61032f6004803603602081101561092057600080fd5b5035611fae565b6103a26004803603602081101561093d57600080fd5b50356001600160a01b03166120fd565b6103686004803603606081101561096357600080fd5b5080356001600160a01b031690602081013564ffffffffff16906040013561ffff166121d3565b6103ac61221c565b61043e612253565b6103a2600480360360408110156109b057600080fd5b506001600160a01b0381351690602001351515612262565b61032f600480360360208110156109de57600080fd5b5035612271565b6103a2600480360360408110156109fb57600080fd5b506001600160a01b0381351690602001351515612283565b6103a260048036036040811015610a2957600080fd5b5080359060200135612330565b6103a260048036036060811015610a4c57600080fd5b506001600160a01b03813581169160208101358216916040909101351661233b565b6103a260048036036080811015610a8457600080fd5b6001600160a01b03823581169260208101359091169160408201359190810190608081016060820135640100000000811115610abf57600080fd5b820183602082011115610ad157600080fd5b80359060200191846001830284011164010000000083111715610af357600080fd5b91908080601f016020809104026020016040519081016040528093929190818152602001838380828437600092019190915250929550612650945050505050565b6103a260048036036040811015610b4a57600080fd5b506001600160a01b038135169060200135151561270d565b61036860048036036020811015610b7857600080fd5b50356127ba565b61032f60048036036020811015610b9557600080fd5b50356127dc565b6103ac60048036036020811015610bb257600080fd5b5035612898565b61032f6004803603610100811015610bd057600080fd5b6001600160a01b03823581169264ffffffffff6020820135169260408201359260608301359260ff6080820135169260a08201359092169181019060e0810160c0820135640100000000811115610c2657600080fd5b820183602082011115610c3857600080fd5b80359060200191846001830284011164010000000083111715610c5a57600080fd5b91935091503560ff16612901565b61036860048036036020811015610c7e57600080fd5b5035612a61565b61036860048036036020811015610c9b57600080fd5b50356001600160a01b0316612ace565b61036860048036036040811015610cc157600080fd5b506001600160a01b0381358116916020013516612aec565b6103a260048036036060811015610cef57600080fd5b506001600160a01b038135811691602081013590911690604001351515612bf4565b6107e1600480360360e0811015610d2757600080fd5b6001600160a01b038235169164ffffffffff6020820135169160408201359190810190608081016060820135640100000000811115610d6557600080fd5b820183602082011115610d7757600080fd5b80359060200191846020830284011164010000000083111715610d9957600080fd5b919390929091602081019035640100000000811115610db757600080fd5b820183602082011115610dc957600080fd5b80359060200191846001830284011164010000000083111715610deb57600080fd5b919390926001600160a01b0383351692604081019060200135640100000000811115610e1657600080fd5b820183602082011115610e2857600080fd5b80359060200191846001830284011164010000000083111715610e4a57600080fd5b509092509050612c90565b6103a2600480360360a0811015610e6b57600080fd5b6001600160a01b03823581169260208101359091169160408201359160608101359181019060a081016080820135640100000000811115610eab57600080fd5b820183602082011115610ebd57600080fd5b80359060200191846001830284011164010000000083111715610edf57600080fd5b509092509050612ef1565b60006b800000000000000000000000821615610f3257826001600160a01b0316610f138361301b565b6001600160a01b03161415610f2a57506001610f85565b506000610f85565b600080610f3e8461302d565b91509150610f4c828261303e565b6001600160a01b0385166000908152600560209081526040808320858452909152902054610f80908263ffffffff6130b416565b925050505b92915050565b60007f01ffc9a7000000000000000000000000000000000000000000000000000000006001600160e01b031983161480610fee57507fd9b67a26000000000000000000000000000000000000000000000000000000006001600160e01b03198316145b8061102257507f80ac58cd000000000000000000000000000000000000000000000000000000006001600160e01b03198316145b8061105657507f5b5e139f000000000000000000000000000000000000000000000000000000006001600160e01b03198316145b8061108a57507f0e89341c000000000000000000000000000000000000000000000000000000006001600160e01b03198316145b90505b919050565b600e546001600160a01b031633146110db5760405162461bcd60e51b81526004018080602001828103825260238152602001806158b76023913960400191505060405180910390fd5b600e54604080516001600160a01b039283168152918316602083015280517f1bab6ababbec5519512e9ee16964953ec0f72839126138285cac1f1136bd642e9281900390910190a1600e805473ffffffffffffffffffffffffffffffffffffffff19166001600160a01b0392909216919091179055565b60408051808201909152600f81527f446556657273652773204153534554000000000000000000000000000000000060208201525b90565b6000806111968361301b565b6001600160a01b031614156111f2576040805162461bcd60e51b815260206004820152601260248201527f4e465420646f6573206e6f742065786973740000000000000000000000000000604482015290519081900360640190fd5b506000908152600760205260409020546001600160a01b031690565b60006112198261301b565b90506001600160a01b038116611276576040805162461bcd60e51b815260206004820152601260248201527f4e465420646f6573206e6f742065786973740000000000000000000000000000604482015290519081900360640190fd5b6001600160a01b03811633148061129c57503360009081526001602052604090205460ff165b806112ca57506001600160a01b038116600090815260066020908152604080832033845290915290205460ff165b61131b576040805162461bcd60e51b815260206004820152600e60248201527f6e6f7420617574686f72697a6564000000000000000000000000000000000000604482015290519081900360640190fd5b600082815260076020526040808220805473ffffffffffffffffffffffffffffffffffffffff19166001600160a01b0387811691821790925591518593918516917f8c5be1e5ebec7d5bd14f71427d1e84f3dd0314c0f7b2291e5b200ac8c7c3b92591a4505050565b606061138f82612a61565b6113e0576040805162461bcd60e51b815260206004820152601660248201527f746f6b656e20776173206e65766572206d696e74656400000000000000000000604482015290519081900360640190fd5b6bffffffff80000000000007ff19821660009081526008602052604090205461108a90836130ce565b6001600160a01b038316611464576040805162461bcd60e51b815260206004820152601460248201527f66726f6d206973207a65726f2061646472657373000000000000000000000000604482015290519081900360640190fd5b336001600160a01b038416148061148a5750336000908152600d602052604090205460ff165b806114a457503360009081526001602052604090205460ff165b806114d257506001600160a01b038316600090815260066020908152604080832033845290915290205460ff165b611523576040805162461bcd60e51b815260206004820152601560248201527f72657175697265206d65746120617070726f76616c0000000000000000000000604482015290519081900360640190fd5b61152e838383613236565b505050565b826001600160a01b03166115468261301b565b6001600160a01b03161461158d576040805162461bcd60e51b81526020600482015260096024820152683737ba1037bbb732b960b91b604482015290519081900360640190fd5b600061159c848484600161335e565b90506115cc816115ac57336115ae565b845b8585856001604051806020016040528060008152506001600061379e565b61161d576040805162461bcd60e51b815260206004820152601960248201527f65726331313535207472616e736665722072656a656374656400000000000000604482015290519081900360640190fd5b50505050565b600061162e8261301b565b90506001600160a01b03841661168b576040805162461bcd60e51b815260206004820152601660248201527f73656e646572206973207a65726f206164647265737300000000000000000000604482015290519081900360640190fd5b336001600160a01b03851614806116b15750336000908152600d602052604090205460ff165b806116cb57503360009081526001602052604090205460ff165b806116f957506001600160a01b038416600090815260066020908152604080832033845290915290205460ff165b61174a576040805162461bcd60e51b815260206004820152601160248201527f72657175697265206f70657261746f7273000000000000000000000000000000604482015290519081900360640190fd5b836001600160a01b0316816001600160a01b03161461179c576040805162461bcd60e51b81526020600482015260096024820152683737ba1037bbb732b960b91b604482015290519081900360640190fd5b600082815260076020526040808220805473ffffffffffffffffffffffffffffffffffffffff19166001600160a01b0387811691821790925591518593918516917f8c5be1e5ebec7d5bd14f71427d1e84f3dd0314c0f7b2291e5b200ac8c7c3b92591a450505050565b6000611811826127dc565b5050603f1c63ffffffff1690565b84831461185d5760405162461bcd60e51b815260040180806020018281038252602681526020018061586e6026913960400191505060405180910390fd5b6001600160a01b0387166118b8576040805162461bcd60e51b815260206004820152601b60248201527f64657374696e6174696f6e206973207a65726f20616464726573730000000000604482015290519081900360640190fd5b6001600160a01b038816611913576040805162461bcd60e51b815260206004820152601460248201527f66726f6d206973207a65726f2061646472657373000000000000000000000000604482015290519081900360640190fd5b336000818152600d602052604081205460ff16916001600160a01b038b16148061193a5750815b8061195457503360009081526001602052604090205460ff165b8061198257506001600160a01b038a16600090815260066020908152604080832033845290915290205460ff165b90506119f58a8a8a8a8080602002602001604051908101604052809392919081815260200183836020028082843760009201919091525050604080516020808e0282810182019093528d82529093508d92508c91829185019084908082843760009201919091525088925061398a915050565b886001600160a01b03168a6001600160a01b031683611a145733611a16565b8b5b6001600160a01b03167f4a39dc06d4c0dbc64b70af90fd698a233a518aa5d07e595d983b8c0526c8f7fb8b8b8b8b6040518080602001806020018381038352878782818152602001925060200280828437600083820152601f01601f19169091018481038352858152602090810191508690860280828437600083820152604051601f909101601f19169092018290039850909650505050505050a4611b6282611ac05733611ac2565b8a5b8b8b8b8b8080602002602001604051908101604052809392919081815260200183836020028082843760009201919091525050604080516020808f0282810182019093528e82529093508e92508d91829185019084908082843760009201919091525050604080516020601f8e018190048102820181019092528c815292508c91508b9081908401838280828437600092019190915250613ff892505050565b611bb3576040805162461bcd60e51b815260206004820152601960248201527f65726331313535207472616e736665722072656a656374656400000000000000604482015290519081900360640190fd5b50505050505050505050565b61152e83838360405180602001604052806000815250612650565b6001600160a01b03166000908152600c602052604090205460ff1690565b6060838214611c385760405162461bcd60e51b815260040180806020018281038252602681526020018061586e6026913960400191505060405180910390fd5b604080518381526020808502820101909152606090838015611c64578160200160208202803883390190505b50905060005b83811015611cc857611ca9878783818110611c8157fe5b905060200201356001600160a01b0316868684818110611c9d57fe5b90506020020135610eea565b828281518110611cb557fe5b6020908102919091010152600101611c6a565b5095945050505050565b6000611cdd82612a61565b611d2e576040805162461bcd60e51b815260206004820152601660248201527f746f6b656e20776173206e65766572206d696e74656400000000000000000000604482015290519081900360640190fd5b6c0100000000000000000000000082046001600160a01b038181166000908152600b6020526040902054168015611d6857915061108d9050565b5092915050565b6060611d7a82612a61565b611dcb576040805162461bcd60e51b815260206004820152601660248201527f746f6b656e20776173206e65766572206d696e74656400000000000000000000604482015290519081900360640190fd5b6bffffffff80000000000007ff19821660009081526008602052604090205461108a906141e8565b6000611dfe8261301b565b90506001600160a01b03811661108d576040805162461bcd60e51b815260206004820152601260248201527f4e465420646f6573206e6f742065786973740000000000000000000000000000604482015290519081900360640190fd5b6001600160a01b031660009081526001602052604090205460ff1690565b6000546001600160a01b031690565b60006001600160a01b038216611ee5576040805162461bcd60e51b815260206004820152601560248201527f6f776e6572206973207a65726f20616464726573730000000000000000000000604482015290519081900360640190fd5b506001600160a01b031660009081526003602052604090205490565b6000546001600160a01b03163314611f4a5760405162461bcd60e51b815260040180806020018281038252602e8152602001806159aa602e913960400191505060405180910390fd5b6001600160a01b0382166000818152600d6020908152604091829020805460ff191685151590811790915582519384529083015280517fb21eb88b4e33b3f1281830a7178d74d8aa73220416215726b68ae23d539515cb9281900390910190a15050565b6000611fb982612a61565b61200a576040805162461bcd60e51b815260206004820152601660248201527f746f6b656e20776173206e65766572206d696e74656400000000000000000000604482015290519081900360640190fd5b6bffffffff80000000000007ff198216600090815260096020526040902080546107ff8416906002600019610100600184161502019091160460048204106120575760009250505061108d565b6000826004830481546001816001161561010002031660029004811061207957fe5b8154600116156120985790600052602060002090602091828204019190065b9054901a7f01000000000000000000000000000000000000000000000000000000000000000260f81c905060026003808416900381029060049060ff80841690910a1683816120e357fe5b0460ff16816120ee57fe5b0660ff1694505050505061108d565b6000546001600160a01b0316331461215c576040805162461bcd60e51b815260206004820152601b60248201527f6f6e6c792061646d696e2063616e206368616e67652061646d696e0000000000604482015290519081900360640190fd5b600054604080516001600160a01b039283168152918316602083015280517f7e644d79422f17c01e4894b5f4f588d331ebfa28653d42ae832dc59e38c9798f9281900390910190a16000805473ffffffffffffffffffffffffffffffffffffffff19166001600160a01b0392909216919091179055565b6001600160a01b0383166c010000000000000000000000000264ffffffffff831662800000020161ffff8216610800020160009081526008602052604090205415159392505050565b60408051808201909152600581527f4153534554000000000000000000000000000000000000000000000000000000602082015290565b600e546001600160a01b031690565b61226d33838361431c565b5050565b60086020526000908152604090205481565b6000546001600160a01b031633146122cc5760405162461bcd60e51b815260040180806020018281038252602c81526020018061595c602c913960400191505060405180910390fd5b6001600160a01b038216600081815260016020908152604091829020805460ff191685151590811790915582519384529083015280517f44f92d27abdf4cfb6a7d712c3af68f3be086d4ca747ab802c36f67d6790060d89281900390910190a15050565b61226d338383613236565b336001600160a01b03841614806123615750336000908152600d602052604090205460ff165b8061237b57503360009081526001602052604090205460ff165b6123cc576040805162461bcd60e51b815260206004820152601560248201527f72657175697265206d65746120617070726f76616c0000000000000000000000604482015290519081900360640190fd5b6001600160a01b038316612427576040805162461bcd60e51b815260206004820152601660248201527f73656e646572206973207a65726f206164647265737300000000000000000000604482015290519081900360640190fd5b6001600160a01b038116612482576040805162461bcd60e51b815260206004820152601b60248201527f64657374696e6174696f6e206973207a65726f20616464726573730000000000604482015290519081900360640190fd5b6001600160a01b038083166000908152600b602052604090205416806124a55750815b816001600160a01b0316816001600160a01b0316141561250c576040805162461bcd60e51b815260206004820152600d60248201527f63757272656e74203d3d20746f00000000000000000000000000000000000000604482015290519081900360640190fd5b836001600160a01b0316816001600160a01b031614612572576040805162461bcd60e51b815260206004820152601160248201527f63757272656e7420213d2073656e646572000000000000000000000000000000604482015290519081900360640190fd5b826001600160a01b0316826001600160a01b031614156125c4576001600160a01b0383166000908152600b60205260409020805473ffffffffffffffffffffffffffffffffffffffff19169055612600565b6001600160a01b038381166000908152600b60205260409020805473ffffffffffffffffffffffffffffffffffffffff19169184169190911790555b816001600160a01b0316816001600160a01b0316846001600160a01b03167f1a7f4b0ff7e2dc5eb0864ecd842062dd36fa2daafefc7a017476807ccd73600d60405160405180910390a450505050565b836001600160a01b03166126638361301b565b6001600160a01b0316146126aa576040805162461bcd60e51b81526020600482015260096024820152683737ba1037bbb732b960b91b604482015290519081900360640190fd5b6126bc3385858560018660018061379e565b61161d576040805162461bcd60e51b815260206004820181905260248201527f6572633732312f65726331313535207472616e736665722072656a6563746564604482015290519081900360640190fd5b600e546001600160a01b031633146127565760405162461bcd60e51b81526004018080602001828103825260248152602001806158da6024913960400191505060405180910390fd5b6001600160a01b0382166000818152600c6020908152604091829020805460ff191685151590811790915582519384529083015280517f5ecd928ac22825e06273a3e8db8118dd7fe11bd2637ecfe4bfa25154948bd85f9281900390910190a15050565b60006bffffffff80000000000000001982166127d581612a61565b9392505050565b6000806127e88361301b565b6001600160a01b03161415612844576040805162461bcd60e51b815260206004820152601260248201527f4e465420646f6573206e6f742065786973740000000000000000000000000000604482015290519081900360640190fd5b6bffffffff800000000000000019821661285d81612a61565b61108a5760405162461bcd60e51b81526004018080602001828103825260288152602001806158fe6028913960400191505060405180910390fd5b606060006128a58361301b565b6001600160a01b031614156113e0576040805162461bcd60e51b815260206004820152601260248201527f4e465420646f6573206e6f742065786973740000000000000000000000000000604482015290519081900360640190fd5b600087612955576040805162461bcd60e51b815260206004820152600c60248201527f68617368206973207a65726f0000000000000000000000000000000000000000604482015290519081900360640190fd5b600280547fffffffffffffffffffffffffffffffffffffffffffffffffffffff00000000008116600164ffffffffff92831601918216179091556001600160a01b0386166129ea576040805162461bcd60e51b815260206004820152601b60248201527f64657374696e6174696f6e206973207a65726f20616464726573730000000000604482015290519081900360640190fd5b612a0c8b89838b6001146129ff576001612a02565b60005b60ff1660006144ff565b9150612a53898989338a878b8b8080601f016020809104026020016040519081016040528093929190818152602001838380828437600092018290525092506145c4915050565b509998505050505050505050565b60006b800000000000000000000000821615612a8e5750600081815260046020526040902054151561108d565b610800627ff8008316046107ff8316108015612ac757506bffffffff80000000000007ff19821660009081526008602052604090205415155b905061108d565b6001600160a01b03166000908152600d602052604090205460ff1690565b60006001600160a01b038316612b49576040805162461bcd60e51b815260206004820152601560248201527f6f776e6572206973207a65726f20616464726573730000000000000000000000604482015290519081900360640190fd5b6001600160a01b038216612ba4576040805162461bcd60e51b815260206004820152601860248201527f6f70657261746f72206973207a65726f20616464726573730000000000000000604482015290519081900360640190fd5b6001600160a01b0380841660009081526006602090815260408083209386168352929052205460ff16806127d55750506001600160a01b031660009081526001602052604090205460ff16919050565b336001600160a01b0384161480612c1a5750336000908152600d602052604090205460ff165b80612c3457503360009081526001602052604090205460ff165b612c85576040805162461bcd60e51b815260206004820152601560248201527f72657175697265206d65746120617070726f76616c0000000000000000000000604482015290519081900360640190fd5b61152e83838361431c565b606088612ce4576040805162461bcd60e51b815260206004820152600c60248201527f68617368206973207a65726f0000000000000000000000000000000000000000604482015290519081900360640190fd5b336000908152600c602052604090205460ff16612d48576040805162461bcd60e51b815260206004820152601c60248201527f6f6e6c7920626f756e63657220616c6c6f77656420746f206d696e7400000000604482015290519081900360640190fd5b6001600160a01b038416612da3576040805162461bcd60e51b815260206004820152601b60248201527f64657374696e6174696f6e206973207a65726f20616464726573730000000000604482015290519081900360640190fd5b6000612e268c8a8a8080602002602001604051908101604052809392919081815260200183836020028082843760009201919091525050604080516020601f8e018190048102820181019092528c815292508c91508b9081908401838280828437600081840152601f19601f820116905080830192505050505050508e8e6148bf565b8092508193505050612e6f898980806020026020016040519081016040528093929190818152602001838360200280828437600092019190915250899250869150859050614a4b565b612ee23386848c8c8080602002602001604051908101604052809392919081815260200183836020028082843760009201919091525050604080516020601f8d018190048102820181019092528b815292508b91508a9081908401838280828437600092019190915250614a9d92505050565b509a9950505050505050505050565b6b800000000000000000000000841615612f5f57856001600160a01b0316612f188561301b565b6001600160a01b031614612f5f576040805162461bcd60e51b81526020600482015260096024820152683737ba1037bbb732b960b91b604482015290519081900360640190fd5b6000612f6d8787878761335e565b9050612fc181612f7d5733612f7f565b875b8888888888888080601f0160208091040260200160405190810160405280939291908181526020018383808284376000920182905250925082915061379e9050565b613012576040805162461bcd60e51b815260206004820152601960248201527f65726331313535207472616e736665722072656a656374656400000000000000604482015290519081900360640190fd5b50505050505050565b60009081526004602052604090205490565b610100602082020491600790911690565b604080516024810184905260448082018490528251808303909101815260649091019091526020810180517bffffffffffffffffffffffffffffffffffffffffffffffffffffffff167f6c0f69800000000000000000000000000000000000000000000000000000000017905261226d90614bd7565b600181016020026101000382901c63ffffffff1692915050565b60606130d9836141e8565b6130e66107ff8416614bf8565b60405160200180807f697066733a2f2f62616679626569000000000000000000000000000000000000815250600e0183805190602001908083835b602083106131405780518252601f199092019160209182019101613121565b6001836020036101000a038019825116818451168082178552505050505050905001807f2f0000000000000000000000000000000000000000000000000000000000000081525060010182805190602001908083835b602083106131b55780518252601f199092019160209182019101613196565b5181516020939093036101000a60001901801990911692169190911790527f2e6a736f6e000000000000000000000000000000000000000000000000000000920191825250604080518083037fffffffffffffffffffffffffffffffffffffffffffffffffffffffffffffffe5018152600590920190529695505050505050565b6b8000000000000000000000008216156132ce578060011461329f576040805162461bcd60e51b815260206004820152601560248201527f63616e206f6e6c79206275726e206f6e65204e46540000000000000000000000604482015290519081900360640190fd5b336000908152600d60205260409020546132c99060ff166132c057336132c2565b835b8484614ced565b61152e565b6000811180156132e2575063ffffffff8111155b613333576040805162461bcd60e51b815260206004820152600e60248201527f696e76616c696420616d6f756e74000000000000000000000000000000000000604482015290519081900360640190fd5b336000908152600d602052604090205461152e9060ff166133545733613356565b835b848484614e0a565b60006001600160a01b0384166133bb576040805162461bcd60e51b815260206004820152601b60248201527f64657374696e6174696f6e206973207a65726f20616464726573730000000000604482015290519081900360640190fd5b6001600160a01b038516613416576040805162461bcd60e51b815260206004820152601460248201527f66726f6d206973207a65726f2061646472657373000000000000000000000000604482015290519081900360640190fd5b50336000818152600d602052604081205460ff16916001600160a01b038716148061343e5750815b8061345857503360009081526001602052604090205460ff165b8061348657506001600160a01b038616600090815260066020908152604080832033845290915290205460ff165b90506b8000000000000000000000008416156136125780806134be57506000848152600760205260409020546001600160a01b031633145b61350f576040805162461bcd60e51b815260206004820152601560248201527f4f70657261746f72206e6f7420617070726f7665640000000000000000000000604482015290519081900360640190fd5b821561360d57826001146135545760405162461bcd60e51b815260040180806020018281038252602381526020018061584b6023913960400191505060405180910390fd5b6001600160a01b0380871660009081526003602090815260408083208054600019019055888416808452818420805460010190558884526004835281842055600790915290205416156135cb576000848152600760205260409020805473ffffffffffffffffffffffffffffffffffffffff191690555b83856001600160a01b0316876001600160a01b03167fddf252ad1be2c89b69c2b068fc378daa952ba7f163c4a11628f55a4df523b3ef60405160405180910390a45b61372c565b80613664576040805162461bcd60e51b815260206004820152601560248201527f4f70657261746f72206e6f7420617070726f7665640000000000000000000000604482015290519081900360640190fd5b821561372c576000806136768661302d565b6001600160a01b038a16600090815260056020908152604080832085845290915290205491935091506136b2908287600163ffffffff614ecb16565b6001600160a01b03808a166000908152600560208181526040808420888552825280842095909555928b168252825282812085825290915290812054613701918390889063ffffffff614ecb16565b6001600160a01b03881660009081526005602090815260408083209583529490529290922091909155505b846001600160a01b0316866001600160a01b03168361374b573361374d565b875b6001600160a01b03167fc3d58168c5ae7397731d063d5bbf3d657854427343f4c083240f7aacaa2d0f628787604051808381526020018281526020019250505060405180910390a450949350505050565b60006137b2876001600160a01b0316614fee565b6137be5750600161397e565b6137fc6040518060400160405280600581526020017f5245414348000000000000000000000000000000000000000000000000000000815250615025565b82156138315761380b876150fc565b6138315781156138295761382289898989886151c4565b905061397e565b50600161397e565b63f23a6e6160e01b7bffffffffffffffffffffffffffffffffffffffffffffffffffffffff1916876001600160a01b031663f23a6e618b8b8a8a8a6040518663ffffffff1660e01b815260040180866001600160a01b03166001600160a01b03168152602001856001600160a01b03166001600160a01b0316815260200184815260200183815260200180602001828103825283818151815260200191508051906020019080838360005b838110156138f45781810151838201526020016138dc565b50505050905090810190601f1680156139215780820380516001836020036101000a031916815260200191505b509650505050505050602060405180830381600087803b15801561394457600080fd5b505af1158015613958573d6000803e3d6000fd5b505050506040513d602081101561396e57600080fd5b50516001600160e01b0319161490505b98975050505050505050565b825160008080808080805b87811015613f325760006b8000000000000000000000008c83815181106139b857fe5b6020026020010151161115613c61578880613a0e5750336001600160a01b0316600760008d84815181106139e857fe5b6020908102919091018101518252810191909152604001600020546001600160a01b0316145b613a5f576040805162461bcd60e51b815260206004820152601560248201527f4f70657261746f72206e6f7420617070726f7665640000000000000000000000604482015290519081900360640190fd5b60008a8281518110613a6d57fe5b60200260200101511115613c5c57898181518110613a8757fe5b6020026020010151600114613acd5760405162461bcd60e51b815260040180806020018281038252602381526020018061584b6023913960400191505060405180910390fd5b8c6001600160a01b0316613af38c8381518110613ae657fe5b602002602001015161301b565b6001600160a01b031614613b3a576040805162461bcd60e51b81526020600482015260096024820152683737ba1037bbb732b960b91b604482015290519081900360640190fd5b81806001019250508b6001600160a01b0316600460008d8481518110613b5c57fe5b602002602001015181526020019081526020016000208190555060006001600160a01b0316600760008d8481518110613b9157fe5b6020908102919091018101518252810191909152604001600020546001600160a01b031614613c07576000600760008d8481518110613bcc57fe5b6020026020010151815260200190815260200160002060006101000a8154816001600160a01b0302191690836001600160a01b031602179055505b8a8181518110613c1357fe5b60200260200101518c6001600160a01b03168e6001600160a01b03167fddf252ad1be2c89b69c2b068fc378daa952ba7f163c4a11628f55a4df523b3ef60405160405180910390a45b613f2a565b88613cb3576040805162461bcd60e51b815260206004820152601560248201527f4f70657261746f72206e6f7420617070726f7665640000000000000000000000604482015290519081900360640190fd5b8b6001600160a01b03168d6001600160a01b03161415613cfe57613c5c8d8c8381518110613cdd57fe5b60200260200101518c8481518110613cf157fe5b60200260200101516152ed565b60008a8281518110613d0c57fe5b60200260200101511115613f2a57613d368b8281518110613d2957fe5b602002602001015161302d565b909750955082613ddc576001600160a01b038d1660009081526005602090815260408083208a84529091529020548a51889450613d8b919088908d9085908110613d7c57fe5b60200260200101516001614ecb565b6001600160a01b038d1660009081526005602090815260408083208b84529091529020548b51919650613dd59188908d9085908110613dc657fe5b60200260200101516000614ecb565b9350613f2a565b828714613ecf5784600560008f6001600160a01b03166001600160a01b0316815260200190815260200160002060008581526020019081526020016000208190555083600560008e6001600160a01b03166001600160a01b03168152602001908152602001600020600085815260200190815260200160002081905550600560008e6001600160a01b03166001600160a01b031681526020019081526020016000206000888152602001908152602001600020549450600560008d6001600160a01b03166001600160a01b0316815260200190815260200160002060008881526020019081526020016000205493508692505b613efa868b8381518110613edf57fe5b6020026020010151600188614ecb909392919063ffffffff16565b9450613f27868b8381518110613f0c57fe5b6020026020010151600087614ecb909392919063ffffffff16565b93505b600101613995565b50600081118015613f5557508a6001600160a01b03168c6001600160a01b031614155b15613f88576001600160a01b03808d1660009081526003602052604080822080548590039055918d168152208054820190555b8515801590613fa957508a6001600160a01b03168c6001600160a01b031614155b15613fea576001600160a01b03808d1660009081526005602081815260408084208b85528252808420899055938f1683529081528282208983529052208390555b505050505050505050505050565b600061400c856001600160a01b0316614fee565b614018575060016141de565b6000856001600160a01b031663bc197c8189898888886040518663ffffffff1660e01b815260040180866001600160a01b03166001600160a01b03168152602001856001600160a01b03166001600160a01b03168152602001806020018060200180602001848103845287818151815260200191508051906020019060200280838360005b838110156140b557818101518382015260200161409d565b50505050905001848103835286818151815260200191508051906020019060200280838360005b838110156140f45781810151838201526020016140dc565b50505050905001848103825285818151815260200191508051906020019080838360005b83811015614130578181015183820152602001614118565b50505050905090810190601f16801561415d5780820380516001836020036101000a031916815260200191505b5098505050505050505050602060405180830381600087803b15801561418257600080fd5b505af1158015614196573d6000803e3d6000fd5b505050506040513d60208110156141ac57600080fd5b50516001600160e01b0319167fbc197c8100000000000000000000000000000000000000000000000000000000149150505b9695505050505050565b60408051603480825260608281019093528391839082602082018180388339509192507f6162636465666768696a6b6c6d6e6f707172737475767778797a323334353637915050601c600285901b166020811061424157fe5b1a60f81b8183600190039350838151811061425857fe5b60200101907effffffffffffffffffffffffffffffffffffffffffffffffffffffffffffff1916908160001a9053506008830492505b8115614314577f6162636465666768696a6b6c6d6e6f707172737475767778797a32333435363760208406602081106142c357fe5b1a60f81b818360019003935083815181106142da57fe5b60200101907effffffffffffffffffffffffffffffffffffffffffffffffffffffffffffff1916908160001a90535060208304925061428e565b949350505050565b6001600160a01b038316614377576040805162461bcd60e51b815260206004820152601660248201527f73656e646572206973207a65726f206164647265737300000000000000000000604482015290519081900360640190fd5b816001600160a01b0316836001600160a01b031614156143de576040805162461bcd60e51b815260206004820152601160248201527f73656e646572203d206f70657261746f72000000000000000000000000000000604482015290519081900360640190fd5b6001600160a01b038216614439576040805162461bcd60e51b815260206004820152601860248201527f6f70657261746f72206973207a65726f20616464726573730000000000000000604482015290519081900360640190fd5b6001600160a01b03821660009081526001602052604090205460ff16156144915760405162461bcd60e51b81526004018080602001828103825260368152602001806159266036913960400191505060405180910390fd5b6001600160a01b03838116600081815260066020908152604080832094871680845294825291829020805460ff1916861515908117909155825190815291517f17307eab39ab6107e8899845ad3d59bd9653f200f220920489ca2b5937696c319281900390910190a3505050565b60008085118015614514575063ffffffff8511155b614565576040805162461bcd60e51b815260206004820152600e60248201527f696e76616c696420737570706c79000000000000000000000000000000000000604482015290519081900360640190fd5b61ffff8083169084166108000264ffffffffff861662800000026001881461458e57600061459c565b6b8000000000000000000000005b6001600160a01b038a166c010000000000000000000000000201010101905095945050505050565b6bffffffff80000000000007ff19831681614729576000818152600860205260409020541561463a576040805162461bcd60e51b815260206004820152600f60248201527f696420616c726561647920757365640000000000000000000000000000000000604482015290519081900360640190fd5b6000818152600860205260409020899055600460ff8816106146a3576040805162461bcd60e51b815260206004820152600b60248201527f726172697479203e3d2034000000000000000000000000000000000000000000604482015290519081900360640190fd5b6040805160018082528183019092526060916020820181803883390190505090508760400260f81b816000815181106146d857fe5b60200101907effffffffffffffffffffffffffffffffffffffffffffffffffffffffffffff1916908160001a90535060008281526009602090815260409091208251614726928401906157b2565b50505b8760011415614791576001600160a01b038516600081815260036020908152604080832080546001019055878352600490915280822083905551869291907fddf252ad1be2c89b69c2b068fc378daa952ba7f163c4a11628f55a4df523b3ef908290a4614804565b60008061479d8661302d565b6001600160a01b038916600090815260056020908152604080832085845290915290205491935091506147d990828c600263ffffffff614ecb16565b6001600160a01b03881660009081526005602090815260408083209583529490529290922091909155505b60408051858152602081018a905281516001600160a01b0380891693600093918b16927fc3d58168c5ae7397731d063d5bbf3d657854427343f4c083240f7aacaa2d0f629281900390910190a461486386600087878c8860008061379e565b6148b4576040805162461bcd60e51b815260206004820152601160248201527f7472616e736665722072656a6563746564000000000000000000000000000000604482015290519081900360640190fd5b505050505050505050565b6060600080865111614918576040805162461bcd60e51b815260206004820152601460248201527f737570706c6965732e6c656e677468203d3d2030000000000000000000000000604482015290519081900360640190fd5b85516108001015614970576040805162461bcd60e51b815260206004820152600d60248201527f746f6f2062696720626174636800000000000000000000000000000000000000604482015290519081900360640190fd5b61497b878786615371565b809250819350505060006bffffffff80000000000007ff19836000815181106149a057fe5b6020026020010151169050600860008281526020019081526020016000205460001c600014614a16576040805162461bcd60e51b815260206004820152600f60248201527f696420616c726561647920757365640000000000000000000000000000000000604482015290519081900360640190fd5b6000818152600860209081526040808320879055600982529091208751614a3f928901906157b2565b50509550959350505050565b60005b8161ffff168551038161ffff161015614a7557614a6d818686866154d6565b600801614a4e565b61ffff821615614a9657614a968261ffff168651038361ffff1686866155e0565b5050505050565b836001600160a01b031660006001600160a01b0316866001600160a01b03167f4a39dc06d4c0dbc64b70af90fd698a233a518aa5d07e595d983b8c0526c8f7fb8686604051808060200180602001838103835285818151815260200191508051906020019060200280838360005b83811015614b23578181015183820152602001614b0b565b50505050905001838103825284818151815260200191508051906020019060200280838360005b83811015614b62578181015183820152602001614b4a565b5050505090500194505050505060405180910390a4614b8685600086868686613ff8565b614a96576040805162461bcd60e51b815260206004820152601160248201527f7472616e736665722072656a6563746564000000000000000000000000000000604482015290519081900360640190fd5b80516a636f6e736f6c652e6c6f67602083016000808483855afa5050505050565b606081614c39575060408051808201909152600181527f3000000000000000000000000000000000000000000000000000000000000000602082015261108d565b8160005b8115614c5157600101600a82049150614c3d565b6060816040519080825280601f01601f191660200182016040528015614c7e576020820181803883390190505b50905060001982015b8515614ce457600a860660300160f81b82828060019003935081518110614caa57fe5b60200101907effffffffffffffffffffffffffffffffffffffffffffffffffffffffffffff1916908160001a905350600a86049550614c87565b50949350505050565b614cf68161301b565b6001600160a01b0316826001600160a01b031614614d47576040805162461bcd60e51b81526020600482015260096024820152683737ba1037bbb732b960b91b604482015290519081900360640190fd5b60008181526004602090815260408083207401000000000000000000000000000000000000000090556001600160a01b0385168084526003909252808320805460001901905551839291907fddf252ad1be2c89b69c2b068fc378daa952ba7f163c4a11628f55a4df523b3ef908390a4604080518281526001602082015281516000926001600160a01b0386811693908816927fc3d58168c5ae7397731d063d5bbf3d657854427343f4c083240f7aacaa2d0f62929181900390910190a4505050565b600080614e168461302d565b6001600160a01b03871660009081526005602090815260408083208584529091529020549193509150614e56908263ffffffff80871690600190614ecb16565b6001600160a01b038087166000818152600560209081526040808320888452825280832095909555845189815263ffffffff8916918101919091528451919492938b16927fc3d58168c5ae7397731d063d5bbf3d657854427343f4c083240f7aacaa2d0f6292918290030190a4505050505050565b60008080836002811115614edb57fe5b1415614f0e57614eeb86866130b4565b9050614f078686614f02848863ffffffff61569516565b6156ed565b9150614ce4565b6001836002811115614f1c57fe5b1415614f8257614f2c86866130b4565b905083811015614f6d5760405162461bcd60e51b81526004018080602001828103825260228152602001806159886022913960400191505060405180910390fd5b614f078686614f02848863ffffffff61575516565b6002836002811115614f9057fe5b1415614fa157614f078686866156ed565b6040805162461bcd60e51b815260206004820152601160248201527f496e76616c6964206f7065726174696f6e000000000000000000000000000000604482015290519081900360640190fd5b60007fc5d2460186f7233c927e7db2dcc703c0e500b653ca82273b7bfad8045d85a470823f80158015906143145750141592915050565b6150f9816040516024018080602001828103825283818151815260200191508051906020019080838360005b83811015615069578181015183820152602001615051565b50505050905090810190601f1680156150965780820380516001836020036101000a031916815260200191505b5060408051601f198184030181529190526020810180517bffffffffffffffffffffffffffffffffffffffffffffffffffffffff167f41304fac000000000000000000000000000000000000000000000000000000001790529250614bd7915050565b50565b604080517f4e2312e0000000000000000000000000000000000000000000000000000000006024808301919091528251808303909101815260449091018252602081810180517bffffffffffffffffffffffffffffffffffffffffffffffffffffffff167f01ffc9a7000000000000000000000000000000000000000000000000000000001781528251935160008082529485948594909392908183858b612710fa955080519450505050609e5a116151b157fe5b8280156151bb5750815b95945050505050565b6040517f150b7a02000000000000000000000000000000000000000000000000000000008082526001600160a01b03878116600484019081528782166024850152604484018690526080606485019081528551608486015285516000959389169363150b7a02938c938c938b938b93929160a49091019060208501908083838f5b8381101561525d578181015183820152602001615245565b50505050905090810190601f16801561528a5780820380516001836020036101000a031916815260200191505b5095505050505050602060405180830381600087803b1580156152ac57600080fd5b505af11580156152c0573d6000803e3d6000fd5b505050506040513d60208110156152d657600080fd5b50516001600160e01b031916149695505050505050565b6000806152f98461302d565b6001600160a01b038716600090815260056020908152604080832085845290915290205491935091508390615334908363ffffffff6130b416565b1015614a965760405162461bcd60e51b81526004018080602001828103825260228152602001806159886022913960400191505060405180910390fd5b60606000808451905060608161ffff166040519080825280602002602001820160405280156153aa578160200160208202803883390190505b5090506000805b8361ffff168161ffff1610156154695761ffff82166153f557878161ffff16815181106153da57fe5b6020026020010151600114156153f05780840391505b615461565b878161ffff168151811061540557fe5b6020026020010151600114615461576040805162461bcd60e51b815260206004820152601e60248201527f4e465473206e65656420746f206265207075742061742074686520656e640000604482015290519081900360640190fd5b6001016153b1565b5080830360005b8461ffff168161ffff1610156154c7576154a48a8a8361ffff168151811061549457fe5b60200260200101518a85856144ff565b848261ffff16815181106154b457fe5b6020908102919091010152600101615470565b50919890975095505050505050565b6000818561ffff16815181106154e857fe5b602002602001015190506000806154fe8361302d565b6001600160a01b03871660009081526005602090815260408083208584529091528120549294509092505b60088110801561553f57508751818a61ffff1601105b156155ae576000818a61ffff16019050600189828151811061555d57fe5b6020026020010151111561559f576155988285018a838151811061557d57fe5b6020026020010151600286614ecb909392919063ffffffff16565b92506155a5565b506155ae565b50600101615529565b506001600160a01b03909516600090815260056020908152604080832094835293905291909120939093555050505050565b60005b8363ffffffff168161ffff1610156156695760008286830161ffff168151811061560957fe5b6020908102919091018101516000818152600490925260408083206001600160a01b038816908190559051919350839290917fddf252ad1be2c89b69c2b068fc378daa952ba7f163c4a11628f55a4df523b3ef908290a4506001016155e3565b50506001600160a01b03166000908152600360205260409020805463ffffffff90921691909101905550565b81810182811015610f85576040805162461bcd60e51b815260206004820152600860248201527f6f766572666c6f77000000000000000000000000000000000000000000000000604482015290519081900360640190fd5b600064010000000082106157325760405162461bcd60e51b81526004018080602001828103825260238152602001806158946023913960400191505060405180910390fd5b5063ffffffff600183016020026101000390811b1984169082901b179392505050565b6000828211156157ac576040805162461bcd60e51b815260206004820152600860248201527f756e6465666c6f77000000000000000000000000000000000000000000000000604482015290519081900360640190fd5b50900390565b828054600181600116156101000203166002900490600052602060002090601f016020900481019282601f106157f357805160ff1916838001178555615820565b82800160010185558215615820579182015b82811115615820578251825591602001919060010190615805565b5061582c929150615830565b5090565b61118791905b8082111561582c576000815560010161583656fe63616e6e6f74207472616e73666572206e667420696620616d6f756e74206e6f742031496e636f6e73697374656e74206172726179206c656e677468206265747765656e2061726773416d6f756e7420746f20777269746520696e2062696e20697320746f6f206c617267656f6e6c7920626f756e63657241646d696e2063616e206368616e676520697473656c666f6e6c7920626f756e63657241646d696e2063616e20736574757020626f756e636572736e6f20636f6c6c656374696f6e2065766572206d696e74656420666f72207468617420746f6b656e7375706572206f70657261746f722063616e2774206861766520746865697220617070726f76616c466f72416c6c206368616e6765646f6e6c792061646d696e20697320616c6c6f77656420746f20616464207375706572206f70657261746f727363616e277420737562737472616374206d6f7265207468616e2074686572652069736f6e6c792061646d696e2063616e207365747570206d6574615472616e73616374696f6e50726f636573736f7273a265627a7a72305820847dd0e69f470c323b407c3eafe438f39bce5c0166456c6686b659e34e0a675e64736f6c63430005090032",
  "linkReferences": {},
  "deployedLinkReferences": {}
}