{
  "_format": "hh-sol-artifact-1",
  "contractName": "ERC1155ERC721",
  "sourceName": "contracts/v2/Asset/ERC1155ERC721.sol",
  "abi": [
    {
      "constant": true,
      "inputs": [
        {
          "name": "owner",
          "type": "address"
        },
        {
          "name": "id",
          "type": "uint256"
        }
      ],
      "name": "balanceOf",
      "outputs": [
        {
          "name": "",
          "type": "uint256"
        }
      ],
      "payable": false,
      "stateMutability": "view",
      "type": "function"
    },
    {
      "constant": true,
      "inputs": [
        {
          "name": "id",
          "type": "bytes4"
        }
      ],
      "name": "supportsInterface",
      "outputs": [
        {
          "name": "",
          "type": "bool"
        }
      ],
      "payable": false,
      "stateMutability": "view",
      "type": "function"
    },
    {
      "constant": false,
      "inputs": [
        {
          "name": "newBouncerAdmin",
          "type": "address"
        }
      ],
      "name": "changeBouncerAdmin",
      "outputs": [],
      "payable": false,
      "stateMutability": "nonpayable",
      "type": "function"
    },
    {
      "constant": true,
      "inputs": [],
      "name": "name",
      "outputs": [
        {
          "name": "_name",
          "type": "string"
        }
      ],
      "payable": false,
      "stateMutability": "pure",
      "type": "function"
    },
    {
      "constant": true,
      "inputs": [
        {
          "name": "id",
          "type": "uint256"
        }
      ],
      "name": "getApproved",
      "outputs": [
        {
          "name": "operator",
          "type": "address"
        }
      ],
      "payable": false,
      "stateMutability": "view",
      "type": "function"
    },
    {
      "constant": false,
      "inputs": [
        {
          "name": "operator",
          "type": "address"
        },
        {
          "name": "id",
          "type": "uint256"
        }
      ],
      "name": "approve",
      "outputs": [],
      "payable": false,
      "stateMutability": "nonpayable",
      "type": "function"
    },
    {
      "constant": true,
      "inputs": [
        {
          "name": "id",
          "type": "uint256"
        }
      ],
      "name": "uri",
      "outputs": [
        {
          "name": "",
          "type": "string"
        }
      ],
      "payable": false,
      "stateMutability": "view",
      "type": "function"
    },
    {
      "constant": false,
      "inputs": [
        {
          "name": "from",
          "type": "address"
        },
        {
          "name": "id",
          "type": "uint256"
        },
        {
          "name": "amount",
          "type": "uint256"
        }
      ],
      "name": "burnFrom",
      "outputs": [],
      "payable": false,
      "stateMutability": "nonpayable",
      "type": "function"
    },
    {
      "constant": false,
      "inputs": [
        {
          "name": "metaTransactionContract",
          "type": "address"
        },
        {
          "name": "admin",
          "type": "address"
        },
        {
          "name": "bouncerAdmin",
          "type": "address"
        }
      ],
      "name": "init",
      "outputs": [],
      "payable": false,
      "stateMutability": "nonpayable",
      "type": "function"
    },
    {
      "constant": false,
      "inputs": [
        {
          "name": "from",
          "type": "address"
        },
        {
          "name": "to",
          "type": "address"
        },
        {
          "name": "id",
          "type": "uint256"
        }
      ],
      "name": "transferFrom",
      "outputs": [],
      "payable": false,
      "stateMutability": "nonpayable",
      "type": "function"
    },
    {
      "constant": false,
      "inputs": [
        {
          "name": "sender",
          "type": "address"
        },
        {
          "name": "operator",
          "type": "address"
        },
        {
          "name": "id",
          "type": "uint256"
        }
      ],
      "name": "approveFor",
      "outputs": [],
      "payable": false,
      "stateMutability": "nonpayable",
      "type": "function"
    },
    {
      "constant": true,
      "inputs": [
        {
          "name": "id",
          "type": "uint256"
        }
      ],
      "name": "collectionIndexOf",
      "outputs": [
        {
          "name": "",
          "type": "uint256"
        }
      ],
      "payable": false,
      "stateMutability": "view",
      "type": "function"
    },
    {
      "constant": false,
      "inputs": [
        {
          "name": "from",
          "type": "address"
        },
        {
          "name": "to",
          "type": "address"
        },
        {
          "name": "ids",
          "type": "uint256[]"
        },
        {
          "name": "values",
          "type": "uint256[]"
        },
        {
          "name": "data",
          "type": "bytes"
        }
      ],
      "name": "safeBatchTransferFrom",
      "outputs": [],
      "payable": false,
      "stateMutability": "nonpayable",
      "type": "function"
    },
    {
      "constant": false,
      "inputs": [
        {
          "name": "from",
          "type": "address"
        },
        {
          "name": "to",
          "type": "address"
        },
        {
          "name": "id",
          "type": "uint256"
        }
      ],
      "name": "safeTransferFrom",
      "outputs": [],
      "payable": false,
      "stateMutability": "nonpayable",
      "type": "function"
    },
    {
      "constant": true,
      "inputs": [
        {
          "name": "who",
          "type": "address"
        }
      ],
      "name": "isBouncer",
      "outputs": [
        {
          "name": "",
          "type": "bool"
        }
      ],
      "payable": false,
      "stateMutability": "view",
      "type": "function"
    },
    {
      "constant": true,
      "inputs": [
        {
          "name": "owners",
          "type": "address[]"
        },
        {
          "name": "ids",
          "type": "uint256[]"
        }
      ],
      "name": "balanceOfBatch",
      "outputs": [
        {
          "name": "",
          "type": "uint256[]"
        }
      ],
      "payable": false,
      "stateMutability": "view",
      "type": "function"
    },
    {
      "constant": true,
      "inputs": [
        {
          "name": "id",
          "type": "uint256"
        }
      ],
      "name": "creatorOf",
      "outputs": [
        {
          "name": "",
          "type": "address"
        }
      ],
      "payable": false,
      "stateMutability": "view",
      "type": "function"
    },
    {
      "constant": true,
      "inputs": [
        {
          "name": "id",
          "type": "uint256"
        }
      ],
      "name": "uri2",
      "outputs": [
        {
          "name": "",
          "type": "string"
        }
      ],
      "payable": false,
      "stateMutability": "view",
      "type": "function"
    },
    {
      "constant": true,
      "inputs": [],
      "name": "basePrefixTokenURI",
      "outputs": [
        {
          "name": "",
          "type": "string"
        }
      ],
      "payable": false,
      "stateMutability": "view",
      "type": "function"
    },
    {
      "constant": true,
      "inputs": [
        {
          "name": "id",
          "type": "uint256"
        }
      ],
      "name": "ownerOf",
      "outputs": [
        {
          "name": "owner",
          "type": "address"
        }
      ],
      "payable": false,
      "stateMutability": "view",
      "type": "function"
    },
    {
      "constant": true,
      "inputs": [
        {
          "name": "who",
          "type": "address"
        }
      ],
      "name": "isSuperOperator",
      "outputs": [
        {
          "name": "",
          "type": "bool"
        }
      ],
      "payable": false,
      "stateMutability": "view",
      "type": "function"
    },
    {
      "constant": true,
      "inputs": [],
      "name": "getAdmin",
      "outputs": [
        {
          "name": "",
          "type": "address"
        }
      ],
      "payable": false,
      "stateMutability": "view",
      "type": "function"
    },
    {
      "constant": true,
      "inputs": [
        {
          "name": "owner",
          "type": "address"
        }
      ],
      "name": "balanceOf",
      "outputs": [
        {
          "name": "balance",
          "type": "uint256"
        }
      ],
      "payable": false,
      "stateMutability": "view",
      "type": "function"
    },
    {
      "constant": false,
      "inputs": [
        {
          "name": "metaTransactionProcessor",
          "type": "address"
        },
        {
          "name": "enabled",
          "type": "bool"
        }
      ],
      "name": "setMetaTransactionProcessor",
      "outputs": [],
      "payable": false,
      "stateMutability": "nonpayable",
      "type": "function"
    },
    {
      "constant": true,
      "inputs": [
        {
          "name": "id",
          "type": "uint256"
        }
      ],
      "name": "rarity",
      "outputs": [
        {
          "name": "",
          "type": "uint256"
        }
      ],
      "payable": false,
      "stateMutability": "view",
      "type": "function"
    },
    {
      "constant": false,
      "inputs": [
        {
          "name": "newAdmin",
          "type": "address"
        }
      ],
      "name": "changeAdmin",
      "outputs": [],
      "payable": false,
      "stateMutability": "nonpayable",
      "type": "function"
    },
    {
      "constant": false,
      "inputs": [
        {
          "name": "creator",
          "type": "address"
        },
        {
          "name": "packId",
          "type": "uint40"
        },
        {
          "name": "numFTs",
          "type": "uint16"
        }
      ],
      "name": "isPackIdUsed",
      "outputs": [
        {
          "name": "",
          "type": "bool"
        }
      ],
      "payable": false,
      "stateMutability": "nonpayable",
      "type": "function"
    },
    {
      "constant": true,
      "inputs": [],
      "name": "symbol",
      "outputs": [
        {
          "name": "_symbol",
          "type": "string"
        }
      ],
      "payable": false,
      "stateMutability": "pure",
      "type": "function"
    },
    {
      "constant": true,
      "inputs": [],
      "name": "getBouncerAdmin",
      "outputs": [
        {
          "name": "",
          "type": "address"
        }
      ],
      "payable": false,
      "stateMutability": "view",
      "type": "function"
    },
    {
      "constant": false,
      "inputs": [
        {
          "name": "operator",
          "type": "address"
        },
        {
          "name": "approved",
          "type": "bool"
        }
      ],
      "name": "setApprovalForAll",
      "outputs": [],
      "payable": false,
      "stateMutability": "nonpayable",
      "type": "function"
    },
    {
      "constant": true,
      "inputs": [
        {
          "name": "",
          "type": "uint256"
        }
      ],
      "name": "_metadataHash",
      "outputs": [
        {
          "name": "",
          "type": "bytes32"
        }
      ],
      "payable": false,
      "stateMutability": "view",
      "type": "function"
    },
    {
      "constant": false,
      "inputs": [
        {
          "name": "superOperator",
          "type": "address"
        },
        {
          "name": "enabled",
          "type": "bool"
        }
      ],
      "name": "setSuperOperator",
      "outputs": [],
      "payable": false,
      "stateMutability": "nonpayable",
      "type": "function"
    },
    {
      "constant": false,
      "inputs": [
        {
          "name": "id",
          "type": "uint256"
        },
        {
          "name": "amount",
          "type": "uint256"
        }
      ],
      "name": "burn",
      "outputs": [],
      "payable": false,
      "stateMutability": "nonpayable",
      "type": "function"
    },
    {
      "constant": false,
      "inputs": [
        {
          "name": "sender",
          "type": "address"
        },
        {
          "name": "original",
          "type": "address"
        },
        {
          "name": "to",
          "type": "address"
        }
      ],
      "name": "transferCreatorship",
      "outputs": [],
      "payable": false,
      "stateMutability": "nonpayable",
      "type": "function"
    },
    {
      "constant": false,
      "inputs": [
        {
          "name": "from",
          "type": "address"
        },
        {
          "name": "to",
          "type": "address"
        },
        {
          "name": "id",
          "type": "uint256"
        },
        {
          "name": "data",
          "type": "bytes"
        }
      ],
      "name": "safeTransferFrom",
      "outputs": [],
      "payable": false,
      "stateMutability": "nonpayable",
      "type": "function"
    },
    {
      "constant": false,
      "inputs": [
        {
          "name": "bouncer",
          "type": "address"
        },
        {
          "name": "enabled",
          "type": "bool"
        }
      ],
      "name": "setBouncer",
      "outputs": [],
      "payable": false,
      "stateMutability": "nonpayable",
      "type": "function"
    },
    {
      "constant": true,
      "inputs": [
        {
          "name": "id",
          "type": "uint256"
        }
      ],
      "name": "isCollection",
      "outputs": [
        {
          "name": "",
          "type": "bool"
        }
      ],
      "payable": false,
      "stateMutability": "view",
      "type": "function"
    },
    {
      "constant": true,
      "inputs": [
        {
          "name": "id",
          "type": "uint256"
        }
      ],
      "name": "collectionOf",
      "outputs": [
        {
          "name": "",
          "type": "uint256"
        }
      ],
      "payable": false,
      "stateMutability": "view",
      "type": "function"
    },
    {
      "constant": true,
      "inputs": [
        {
          "name": "id",
          "type": "uint256"
        }
      ],
      "name": "tokenURI",
      "outputs": [
        {
          "name": "",
          "type": "string"
        }
      ],
      "payable": false,
      "stateMutability": "view",
      "type": "function"
    },
    {
      "constant": false,
      "inputs": [
        {
          "name": "creator",
          "type": "address"
        },
        {
          "name": "packId",
          "type": "uint40"
        },
        {
          "name": "hash",
          "type": "bytes32"
        },
        {
          "name": "supply",
          "type": "uint256"
        },
        {
          "name": "rarity",
          "type": "uint8"
        },
        {
          "name": "owner",
          "type": "address"
        },
        {
          "name": "data",
          "type": "bytes"
        },
        {
          "name": "xxx",
          "type": "uint8"
        }
      ],
      "name": "mint",
      "outputs": [
        {
          "name": "id",
          "type": "uint256"
        }
      ],
      "payable": false,
      "stateMutability": "nonpayable",
      "type": "function"
    },
    {
      "constant": true,
      "inputs": [
        {
          "name": "id",
          "type": "uint256"
        }
      ],
      "name": "wasEverMinted",
      "outputs": [
        {
          "name": "",
          "type": "bool"
        }
      ],
      "payable": false,
      "stateMutability": "view",
      "type": "function"
    },
    {
      "constant": true,
      "inputs": [
        {
          "name": "who",
          "type": "address"
        }
      ],
      "name": "isMetaTransactionProcessor",
      "outputs": [
        {
          "name": "",
          "type": "bool"
        }
      ],
      "payable": false,
      "stateMutability": "view",
      "type": "function"
    },
    {
      "constant": true,
      "inputs": [
        {
          "name": "owner",
          "type": "address"
        },
        {
          "name": "operator",
          "type": "address"
        }
      ],
      "name": "isApprovedForAll",
      "outputs": [
        {
          "name": "isOperator",
          "type": "bool"
        }
      ],
      "payable": false,
      "stateMutability": "view",
      "type": "function"
    },
    {
      "constant": false,
      "inputs": [
        {
          "name": "sender",
          "type": "address"
        },
        {
          "name": "operator",
          "type": "address"
        },
        {
          "name": "approved",
          "type": "bool"
        }
      ],
      "name": "setApprovalForAllFor",
      "outputs": [],
      "payable": false,
      "stateMutability": "nonpayable",
      "type": "function"
    },
    {
      "constant": true,
      "inputs": [],
      "name": "baseSuffixTokenURI",
      "outputs": [
        {
          "name": "",
          "type": "string"
        }
      ],
      "payable": false,
      "stateMutability": "view",
      "type": "function"
    },
    {
      "constant": false,
      "inputs": [
        {
          "name": "creator",
          "type": "address"
        },
        {
          "name": "packId",
          "type": "uint40"
        },
        {
          "name": "hash",
          "type": "bytes32"
        },
        {
          "name": "supplies",
          "type": "uint256[]"
        },
        {
          "name": "rarityPack",
          "type": "bytes"
        },
        {
          "name": "owner",
          "type": "address"
        },
        {
          "name": "data",
          "type": "bytes"
        }
      ],
      "name": "mintMultiple",
      "outputs": [
        {
          "name": "ids",
          "type": "uint256[]"
        }
      ],
      "payable": false,
      "stateMutability": "nonpayable",
      "type": "function"
    },
    {
      "constant": false,
      "inputs": [
        {
          "name": "from",
          "type": "address"
        },
        {
          "name": "to",
          "type": "address"
        },
        {
          "name": "id",
          "type": "uint256"
        },
        {
          "name": "value",
          "type": "uint256"
        },
        {
          "name": "data",
          "type": "bytes"
        }
      ],
      "name": "safeTransferFrom",
      "outputs": [],
      "payable": false,
      "stateMutability": "nonpayable",
      "type": "function"
    },
    {
      "anonymous": false,
      "inputs": [
        {
          "indexed": true,
          "name": "original",
          "type": "address"
        },
        {
          "indexed": true,
          "name": "from",
          "type": "address"
        },
        {
          "indexed": true,
          "name": "to",
          "type": "address"
        }
      ],
      "name": "CreatorshipTransfer",
      "type": "event"
    },
    {
      "anonymous": false,
      "inputs": [],
      "name": "DebugEvent",
      "type": "event"
    },
    {
      "anonymous": false,
      "inputs": [
        {
          "indexed": false,
          "name": "oldBouncerAdmin",
          "type": "address"
        },
        {
          "indexed": false,
          "name": "newBouncerAdmin",
          "type": "address"
        }
      ],
      "name": "BouncerAdminChanged",
      "type": "event"
    },
    {
      "anonymous": false,
      "inputs": [
        {
          "indexed": false,
          "name": "bouncer",
          "type": "address"
        },
        {
          "indexed": false,
          "name": "enabled",
          "type": "bool"
        }
      ],
      "name": "Bouncer",
      "type": "event"
    },
    {
      "anonymous": false,
      "inputs": [
        {
          "indexed": false,
          "name": "metaTransactionProcessor",
          "type": "address"
        },
        {
          "indexed": false,
          "name": "enabled",
          "type": "bool"
        }
      ],
      "name": "MetaTransactionProcessor",
      "type": "event"
    },
    {
      "anonymous": false,
      "inputs": [
        {
          "indexed": true,
          "name": "fromId",
          "type": "uint256"
        },
        {
          "indexed": false,
          "name": "toId",
          "type": "uint256"
        }
      ],
      "name": "Extraction",
      "type": "event"
    },
    {
      "anonymous": false,
      "inputs": [
        {
          "indexed": true,
          "name": "fromId",
          "type": "uint256"
        },
        {
          "indexed": false,
          "name": "toId",
          "type": "uint256"
        }
      ],
      "name": "AssetUpdate",
      "type": "event"
    },
    {
      "anonymous": false,
      "inputs": [
        {
          "indexed": true,
          "name": "_from",
          "type": "address"
        },
        {
          "indexed": true,
          "name": "_to",
          "type": "address"
        },
        {
          "indexed": true,
          "name": "_tokenId",
          "type": "uint256"
        }
      ],
      "name": "Transfer",
      "type": "event"
    },
    {
      "anonymous": false,
      "inputs": [
        {
          "indexed": true,
          "name": "_owner",
          "type": "address"
        },
        {
          "indexed": true,
          "name": "_approved",
          "type": "address"
        },
        {
          "indexed": true,
          "name": "_tokenId",
          "type": "uint256"
        }
      ],
      "name": "Approval",
      "type": "event"
    },
    {
      "anonymous": false,
      "inputs": [
        {
          "indexed": true,
          "name": "_owner",
          "type": "address"
        },
        {
          "indexed": true,
          "name": "_operator",
          "type": "address"
        },
        {
          "indexed": false,
          "name": "_approved",
          "type": "bool"
        }
      ],
      "name": "ApprovalForAll",
      "type": "event"
    },
    {
      "anonymous": false,
      "inputs": [
        {
          "indexed": true,
          "name": "operator",
          "type": "address"
        },
        {
          "indexed": true,
          "name": "from",
          "type": "address"
        },
        {
          "indexed": true,
          "name": "to",
          "type": "address"
        },
        {
          "indexed": false,
          "name": "id",
          "type": "uint256"
        },
        {
          "indexed": false,
          "name": "value",
          "type": "uint256"
        }
      ],
      "name": "TransferSingle",
      "type": "event"
    },
    {
      "anonymous": false,
      "inputs": [
        {
          "indexed": true,
          "name": "operator",
          "type": "address"
        },
        {
          "indexed": true,
          "name": "from",
          "type": "address"
        },
        {
          "indexed": true,
          "name": "to",
          "type": "address"
        },
        {
          "indexed": false,
          "name": "ids",
          "type": "uint256[]"
        },
        {
          "indexed": false,
          "name": "values",
          "type": "uint256[]"
        }
      ],
      "name": "TransferBatch",
      "type": "event"
    },
    {
      "anonymous": false,
      "inputs": [
        {
          "indexed": false,
          "name": "value",
          "type": "string"
        },
        {
          "indexed": true,
          "name": "id",
          "type": "uint256"
        }
      ],
      "name": "URI",
      "type": "event"
    },
    {
      "anonymous": false,
      "inputs": [
        {
          "indexed": false,
          "name": "superOperator",
          "type": "address"
        },
        {
          "indexed": false,
          "name": "enabled",
          "type": "bool"
        }
      ],
      "name": "SuperOperator",
      "type": "event"
    },
    {
      "anonymous": false,
      "inputs": [
        {
          "indexed": false,
          "name": "oldAdmin",
          "type": "address"
        },
        {
          "indexed": false,
          "name": "newAdmin",
          "type": "address"
        }
      ],
      "name": "AdminChanged",
      "type": "event"
    }
  ],
  "bytecode": "0x60806040526002805464ffffffffff1916905534801561001e57600080fd5b506159e8806200002f6000396000f3fe608060405234801561001057600080fd5b50600436106103145760003560e01c80638a04af6a116101a7578063b9b75ebc116100ee578063dc5074af11610097578063ef03fc4711610071578063ef03fc4714610d12578063f0bc00d814610d1a578063f242432a14610e5e57610314565b8063dc5074af14610c86578063e985e9c514610cac578063eeb5a5d114610cda57610314565b8063c87b56dd116100c8578063c87b56dd1461049c578063cfb5a71f14610bba578063d402756e14610c6957610314565b8063b9b75ebc14610b52578063bd9ff41b14610b80578063c7778baa14610b9d57610314565b8063a22cb46511610150578063b390c0ab1161012a578063b390c0ab14610a31578063b666923c14610a54578063b88d4fde14610a8c57610314565b8063a22cb465146109b8578063a2c7162f146109e6578063ac9fe42114610a0357610314565b80639470f3cb116101815780639470f3cb1461096b57806395d89b41146109a85780639bc88b9c146109b057610314565b80638a04af6a146108fa5780638b58c569146109285780638f2839701461094557610314565b80632e712b461161026b5780635c85a54411610214578063654b748a116101ee578063654b748a146108a65780636e9960c3146108cc57806370a08231146108d457610314565b80635c85a544146108645780636103802c146108815780636352211e1461088957610314565b80634c4d07e7116102455780634c4d07e71461070f5780634e1273f414610735578063589a17431461084757610314565b80632e712b461461058f5780632eb2c2d6146105ac57806342842e0e146106d957610314565b8063095ea7b3116102cd578063184b9559116102a7578063184b9559146104eb57806323b872dd146105235780632b9917461461055957610314565b8063095ea7b3146104705780630e89341c1461049c578063124d91e5146104b957610314565b8063049476df116102fe578063049476df1461039257806306fdde03146103ba578063081812fc1461043757610314565b8062fdd58e1461031957806301ffc9a714610357575b600080fd5b6103456004803603604081101561032f57600080fd5b506001600160a01b038135169060200135610ef3565b60408051918252519081900360200190f35b61037e6004803603602081101561036d57600080fd5b50356001600160e01b031916610f94565b604080519115158252519081900360200190f35b6103b8600480360360208110156103a857600080fd5b50356001600160a01b031661109b565b005b6103c261115b565b6040805160208082528351818301528351919283929083019185019080838360005b838110156103fc5781810151838201526020016103e4565b50505050905090810190601f1680156104295780820380516001836020036101000a031916815260200191505b509250505060405180910390f35b6104546004803603602081101561044d57600080fd5b5035611193565b604080516001600160a01b039092168252519081900360200190f35b6103b86004803603604081101561048657600080fd5b506001600160a01b038135169060200135611217565b6103c2600480360360208110156104b257600080fd5b503561138d565b6103b8600480360360608110156104cf57600080fd5b506001600160a01b03813516906020810135906040013561142c565b6103b86004803603606081101561050157600080fd5b506001600160a01b038135811691602081013582169160409091013516611551565b6103b86004803603606081101561053957600080fd5b506001600160a01b03813581169160208101359091169060400135611556565b6103b86004803603606081101561056f57600080fd5b506001600160a01b03813581169160208101359091169060400135611646565b610345600480360360208110156105a557600080fd5b5035611829565b6103b8600480360360a08110156105c257600080fd5b6001600160a01b0382358116926020810135909116918101906060810160408201356401000000008111156105f657600080fd5b82018360208201111561060857600080fd5b8035906020019184602083028401116401000000008311171561062a57600080fd5b91939092909160208101903564010000000081111561064857600080fd5b82018360208201111561065a57600080fd5b8035906020019184602083028401116401000000008311171561067c57600080fd5b91939092909160208101903564010000000081111561069a57600080fd5b8201836020820111156106ac57600080fd5b803590602001918460018302840111640100000000831117156106ce57600080fd5b509092509050611842565b6103b8600480360360608110156106ef57600080fd5b506001600160a01b03813581169160208101359091169060400135611be2565b61037e6004803603602081101561072557600080fd5b50356001600160a01b0316611bfd565b6107f76004803603604081101561074b57600080fd5b81019060208101813564010000000081111561076657600080fd5b82018360208201111561077857600080fd5b8035906020019184602083028401116401000000008311171561079a57600080fd5b9193909290916020810190356401000000008111156107b857600080fd5b8201836020820111156107ca57600080fd5b803590602001918460208302840111640100000000831117156107ec57600080fd5b509092509050611c1b565b60408051602080825283518183015283519192839290830191858101910280838360005b8381101561083357818101518382015260200161081b565b505050509050019250505060405180910390f35b6104546004803603602081101561085d57600080fd5b5035611cf5565b6103c26004803603602081101561087a57600080fd5b5035611d92565b6103c2611e16565b6104546004803603602081101561089f57600080fd5b5035611e4d565b61037e600480360360208110156108bc57600080fd5b50356001600160a01b0316611eb5565b610454611ed3565b610345600480360360208110156108ea57600080fd5b50356001600160a01b0316611ee2565b6103b86004803603604081101561091057600080fd5b506001600160a01b0381351690602001351515611f5b565b6103456004803603602081101561093e57600080fd5b5035612008565b6103b86004803603602081101561095b57600080fd5b50356001600160a01b0316612157565b61037e6004803603606081101561098157600080fd5b5080356001600160a01b031690602081013564ffffffffff16906040013561ffff1661222d565b6103c2612276565b6104546122ad565b6103b8600480360360408110156109ce57600080fd5b506001600160a01b03813516906020013515156122bc565b610345600480360360208110156109fc57600080fd5b50356122cb565b6103b860048036036040811015610a1957600080fd5b506001600160a01b03813516906020013515156122dd565b6103b860048036036040811015610a4757600080fd5b508035906020013561238a565b6103b860048036036060811015610a6a57600080fd5b506001600160a01b038135811691602081013582169160409091013516612395565b6103b860048036036080811015610aa257600080fd5b6001600160a01b03823581169260208101359091169160408201359190810190608081016060820135640100000000811115610add57600080fd5b820183602082011115610aef57600080fd5b80359060200191846001830284011164010000000083111715610b1157600080fd5b91908080601f0160208091040260200160405190810160405280939291908181526020018383808284376000920191909152509295506126aa945050505050565b6103b860048036036040811015610b6857600080fd5b506001600160a01b0381351690602001351515612767565b61037e60048036036020811015610b9657600080fd5b5035612814565b61034560048036036020811015610bb357600080fd5b5035612836565b6103456004803603610100811015610bd157600080fd5b6001600160a01b03823581169264ffffffffff6020820135169260408201359260608301359260ff6080820135169260a08201359092169181019060e0810160c0820135640100000000811115610c2757600080fd5b820183602082011115610c3957600080fd5b80359060200191846001830284011164010000000083111715610c5b57600080fd5b91935091503560ff166128f2565b61037e60048036036020811015610c7f57600080fd5b5035612a52565b61037e60048036036020811015610c9c57600080fd5b50356001600160a01b0316612abf565b61037e60048036036040811015610cc257600080fd5b506001600160a01b0381358116916020013516612add565b6103b860048036036060811015610cf057600080fd5b506001600160a01b038135811691602081013590911690604001351515612be5565b6103c2612c81565b6107f7600480360360e0811015610d3057600080fd5b6001600160a01b038235169164ffffffffff6020820135169160408201359190810190608081016060820135640100000000811115610d6e57600080fd5b820183602082011115610d8057600080fd5b80359060200191846020830284011164010000000083111715610da257600080fd5b919390929091602081019035640100000000811115610dc057600080fd5b820183602082011115610dd257600080fd5b80359060200191846001830284011164010000000083111715610df457600080fd5b919390926001600160a01b0383351692604081019060200135640100000000811115610e1f57600080fd5b820183602082011115610e3157600080fd5b80359060200191846001830284011164010000000083111715610e5357600080fd5b509092509050612cb8565b6103b8600480360360a0811015610e7457600080fd5b6001600160a01b03823581169260208101359091169160408201359160608101359181019060a081016080820135640100000000811115610eb457600080fd5b820183602082011115610ec657600080fd5b80359060200191846001830284011164010000000083111715610ee857600080fd5b509092509050612f19565b60006b800000000000000000000000821615610f3b57826001600160a01b0316610f1c83613043565b6001600160a01b03161415610f3357506001610f8e565b506000610f8e565b600080610f4784613055565b91509150610f558282613066565b6001600160a01b0385166000908152600560209081526040808320858452909152902054610f89908263ffffffff6130dc16565b925050505b92915050565b60007f01ffc9a7000000000000000000000000000000000000000000000000000000006001600160e01b031983161480610ff757507fd9b67a26000000000000000000000000000000000000000000000000000000006001600160e01b03198316145b8061102b57507f80ac58cd000000000000000000000000000000000000000000000000000000006001600160e01b03198316145b8061105f57507f5b5e139f000000000000000000000000000000000000000000000000000000006001600160e01b03198316145b8061109357507f0e89341c000000000000000000000000000000000000000000000000000000006001600160e01b03198316145b90505b919050565b600e546001600160a01b031633146110e45760405162461bcd60e51b81526004018080602001828103825260238152602001806158936023913960400191505060405180910390fd5b600e54604080516001600160a01b039283168152918316602083015280517f1bab6ababbec5519512e9ee16964953ec0f72839126138285cac1f1136bd642e9281900390910190a1600e805473ffffffffffffffffffffffffffffffffffffffff19166001600160a01b0392909216919091179055565b60408051808201909152600f81527f446556657273652773204153534554000000000000000000000000000000000060208201525b90565b60008061119f83613043565b6001600160a01b031614156111fb576040805162461bcd60e51b815260206004820152601260248201527f4e465420646f6573206e6f742065786973740000000000000000000000000000604482015290519081900360640190fd5b506000908152600760205260409020546001600160a01b031690565b600061122282613043565b90506001600160a01b03811661127f576040805162461bcd60e51b815260206004820152601260248201527f4e465420646f6573206e6f742065786973740000000000000000000000000000604482015290519081900360640190fd5b6001600160a01b0381163314806112a557503360009081526001602052604090205460ff165b806112d357506001600160a01b038116600090815260066020908152604080832033845290915290205460ff165b611324576040805162461bcd60e51b815260206004820152600e60248201527f6e6f7420617574686f72697a6564000000000000000000000000000000000000604482015290519081900360640190fd5b600082815260076020526040808220805473ffffffffffffffffffffffffffffffffffffffff19166001600160a01b0387811691821790925591518593918516917f8c5be1e5ebec7d5bd14f71427d1e84f3dd0314c0f7b2291e5b200ac8c7c3b92591a4505050565b606061139882612a52565b6113e9576040805162461bcd60e51b815260206004820152601660248201527f746f6b656e20776173206e65766572206d696e74656400000000000000000000604482015290519081900360640190fd5b6110936114246113f7611e16565b6bffffffff80000000000007ff19851660009081526008602052604090205461141f906130f6565b6131fa565b61141f612c81565b6001600160a01b038316611487576040805162461bcd60e51b815260206004820152601460248201527f66726f6d206973207a65726f2061646472657373000000000000000000000000604482015290519081900360640190fd5b336001600160a01b03841614806114ad5750336000908152600d602052604090205460ff165b806114c757503360009081526001602052604090205460ff165b806114f557506001600160a01b038316600090815260066020908152604080832033845290915290205460ff165b611546576040805162461bcd60e51b815260206004820152601560248201527f72657175697265206d65746120617070726f76616c0000000000000000000000604482015290519081900360640190fd5b611551838383613236565b505050565b826001600160a01b031661156982613043565b6001600160a01b0316146115b0576040805162461bcd60e51b81526020600482015260096024820152683737ba1037bbb732b960b91b604482015290519081900360640190fd5b60006115bf848484600161335e565b90506115ef816115cf57336115d1565b845b8585856001604051806020016040528060008152506001600061379e565b611640576040805162461bcd60e51b815260206004820152601960248201527f65726331313535207472616e736665722072656a656374656400000000000000604482015290519081900360640190fd5b50505050565b600061165182613043565b90506001600160a01b0384166116ae576040805162461bcd60e51b815260206004820152601660248201527f73656e646572206973207a65726f206164647265737300000000000000000000604482015290519081900360640190fd5b336001600160a01b03851614806116d45750336000908152600d602052604090205460ff165b806116ee57503360009081526001602052604090205460ff165b8061171c57506001600160a01b038416600090815260066020908152604080832033845290915290205460ff165b61176d576040805162461bcd60e51b815260206004820152601160248201527f72657175697265206f70657261746f7273000000000000000000000000000000604482015290519081900360640190fd5b836001600160a01b0316816001600160a01b0316146117bf576040805162461bcd60e51b81526020600482015260096024820152683737ba1037bbb732b960b91b604482015290519081900360640190fd5b600082815260076020526040808220805473ffffffffffffffffffffffffffffffffffffffff19166001600160a01b0387811691821790925591518593918516917f8c5be1e5ebec7d5bd14f71427d1e84f3dd0314c0f7b2291e5b200ac8c7c3b92591a450505050565b600061183482612836565b5050603f1c63ffffffff1690565b8483146118805760405162461bcd60e51b815260040180806020018281038252602681526020018061584a6026913960400191505060405180910390fd5b6001600160a01b0387166118db576040805162461bcd60e51b815260206004820152601b60248201527f64657374696e6174696f6e206973207a65726f20616464726573730000000000604482015290519081900360640190fd5b6001600160a01b038816611936576040805162461bcd60e51b815260206004820152601460248201527f66726f6d206973207a65726f2061646472657373000000000000000000000000604482015290519081900360640190fd5b336000818152600d602052604081205460ff16916001600160a01b038b16148061195d5750815b8061197757503360009081526001602052604090205460ff165b806119a557506001600160a01b038a16600090815260066020908152604080832033845290915290205460ff165b9050611a188a8a8a8a8080602002602001604051908101604052809392919081815260200183836020028082843760009201919091525050604080516020808e0282810182019093528d82529093508d92508c91829185019084908082843760009201919091525088925061398a915050565b886001600160a01b03168a6001600160a01b031683611a375733611a39565b8b5b6001600160a01b03167f4a39dc06d4c0dbc64b70af90fd698a233a518aa5d07e595d983b8c0526c8f7fb8b8b8b8b6040518080602001806020018381038352878782818152602001925060200280828437600083820152601f01601f19169091018481038352858152602090810191508690860280828437600083820152604051601f909101601f19169092018290039850909650505050505050a4611b8582611ae35733611ae5565b8a5b8b8b8b8b8080602002602001604051908101604052809392919081815260200183836020028082843760009201919091525050604080516020808f0282810182019093528e82529093508e92508d91829185019084908082843760009201919091525050604080516020601f8e018190048102820181019092528c815292508c91508b9081908401838280828437600092019190915250613ff892505050565b611bd6576040805162461bcd60e51b815260206004820152601960248201527f65726331313535207472616e736665722072656a656374656400000000000000604482015290519081900360640190fd5b50505050505050505050565b611551838383604051806020016040528060008152506126aa565b6001600160a01b03166000908152600c602052604090205460ff1690565b6060838214611c5b5760405162461bcd60e51b815260040180806020018281038252602681526020018061584a6026913960400191505060405180910390fd5b604080518381526020808502820101909152606090838015611c87578160200160208202803883390190505b50905060005b83811015611ceb57611ccc878783818110611ca457fe5b905060200201356001600160a01b0316868684818110611cc057fe5b90506020020135610ef3565b828281518110611cd857fe5b6020908102919091010152600101611c8d565b5095945050505050565b6000611d0082612a52565b611d51576040805162461bcd60e51b815260206004820152601660248201527f746f6b656e20776173206e65766572206d696e74656400000000000000000000604482015290519081900360640190fd5b6c0100000000000000000000000082046001600160a01b038181166000908152600b6020526040902054168015611d8b5791506110969050565b5092915050565b6060611d9d82612a52565b611dee576040805162461bcd60e51b815260206004820152601660248201527f746f6b656e20776173206e65766572206d696e74656400000000000000000000604482015290519081900360640190fd5b6bffffffff80000000000007ff198216600090815260086020526040902054611093906130f6565b60408051808201909152600f81527f68747470733a2f2f626166796265690000000000000000000000000000000000602082015290565b6000611e5882613043565b90506001600160a01b038116611096576040805162461bcd60e51b815260206004820152601260248201527f4e465420646f6573206e6f742065786973740000000000000000000000000000604482015290519081900360640190fd5b6001600160a01b031660009081526001602052604090205460ff1690565b6000546001600160a01b031690565b60006001600160a01b038216611f3f576040805162461bcd60e51b815260206004820152601560248201527f6f776e6572206973207a65726f20616464726573730000000000000000000000604482015290519081900360640190fd5b506001600160a01b031660009081526003602052604090205490565b6000546001600160a01b03163314611fa45760405162461bcd60e51b815260040180806020018281038252602e815260200180615986602e913960400191505060405180910390fd5b6001600160a01b0382166000818152600d6020908152604091829020805460ff191685151590811790915582519384529083015280517fb21eb88b4e33b3f1281830a7178d74d8aa73220416215726b68ae23d539515cb9281900390910190a15050565b600061201382612a52565b612064576040805162461bcd60e51b815260206004820152601660248201527f746f6b656e20776173206e65766572206d696e74656400000000000000000000604482015290519081900360640190fd5b6bffffffff80000000000007ff198216600090815260096020526040902080546107ff8416906002600019610100600184161502019091160460048204106120b157600092505050611096565b600082600483048154600181600116156101000203166002900481106120d357fe5b8154600116156120f25790600052602060002090602091828204019190065b9054901a7f01000000000000000000000000000000000000000000000000000000000000000260f81c905060026003808416900381029060049060ff80841690910a16838161213d57fe5b0460ff168161214857fe5b0660ff16945050505050611096565b6000546001600160a01b031633146121b6576040805162461bcd60e51b815260206004820152601b60248201527f6f6e6c792061646d696e2063616e206368616e67652061646d696e0000000000604482015290519081900360640190fd5b600054604080516001600160a01b039283168152918316602083015280517f7e644d79422f17c01e4894b5f4f588d331ebfa28653d42ae832dc59e38c9798f9281900390910190a16000805473ffffffffffffffffffffffffffffffffffffffff19166001600160a01b0392909216919091179055565b6001600160a01b0383166c010000000000000000000000000264ffffffffff831662800000020161ffff8216610800020160009081526008602052604090205415159392505050565b60408051808201909152600581527f4153534554000000000000000000000000000000000000000000000000000000602082015290565b600e546001600160a01b031690565b6122c73383836141e8565b5050565b60086020526000908152604090205481565b6000546001600160a01b031633146123265760405162461bcd60e51b815260040180806020018281038252602c815260200180615938602c913960400191505060405180910390fd5b6001600160a01b038216600081815260016020908152604091829020805460ff191685151590811790915582519384529083015280517f44f92d27abdf4cfb6a7d712c3af68f3be086d4ca747ab802c36f67d6790060d89281900390910190a15050565b6122c7338383613236565b336001600160a01b03841614806123bb5750336000908152600d602052604090205460ff165b806123d557503360009081526001602052604090205460ff165b612426576040805162461bcd60e51b815260206004820152601560248201527f72657175697265206d65746120617070726f76616c0000000000000000000000604482015290519081900360640190fd5b6001600160a01b038316612481576040805162461bcd60e51b815260206004820152601660248201527f73656e646572206973207a65726f206164647265737300000000000000000000604482015290519081900360640190fd5b6001600160a01b0381166124dc576040805162461bcd60e51b815260206004820152601b60248201527f64657374696e6174696f6e206973207a65726f20616464726573730000000000604482015290519081900360640190fd5b6001600160a01b038083166000908152600b602052604090205416806124ff5750815b816001600160a01b0316816001600160a01b03161415612566576040805162461bcd60e51b815260206004820152600d60248201527f63757272656e74203d3d20746f00000000000000000000000000000000000000604482015290519081900360640190fd5b836001600160a01b0316816001600160a01b0316146125cc576040805162461bcd60e51b815260206004820152601160248201527f63757272656e7420213d2073656e646572000000000000000000000000000000604482015290519081900360640190fd5b826001600160a01b0316826001600160a01b0316141561261e576001600160a01b0383166000908152600b60205260409020805473ffffffffffffffffffffffffffffffffffffffff1916905561265a565b6001600160a01b038381166000908152600b60205260409020805473ffffffffffffffffffffffffffffffffffffffff19169184169190911790555b816001600160a01b0316816001600160a01b0316846001600160a01b03167f1a7f4b0ff7e2dc5eb0864ecd842062dd36fa2daafefc7a017476807ccd73600d60405160405180910390a450505050565b836001600160a01b03166126bd83613043565b6001600160a01b031614612704576040805162461bcd60e51b81526020600482015260096024820152683737ba1037bbb732b960b91b604482015290519081900360640190fd5b6127163385858560018660018061379e565b611640576040805162461bcd60e51b815260206004820181905260248201527f6572633732312f65726331313535207472616e736665722072656a6563746564604482015290519081900360640190fd5b600e546001600160a01b031633146127b05760405162461bcd60e51b81526004018080602001828103825260248152602001806158b66024913960400191505060405180910390fd5b6001600160a01b0382166000818152600c6020908152604091829020805460ff191685151590811790915582519384529083015280517f5ecd928ac22825e06273a3e8db8118dd7fe11bd2637ecfe4bfa25154948bd85f9281900390910190a15050565b60006bffffffff800000000000000019821661282f81612a52565b9392505050565b60008061284283613043565b6001600160a01b0316141561289e576040805162461bcd60e51b815260206004820152601260248201527f4e465420646f6573206e6f742065786973740000000000000000000000000000604482015290519081900360640190fd5b6bffffffff80000000000000001982166128b781612a52565b6110935760405162461bcd60e51b81526004018080602001828103825260288152602001806158da6028913960400191505060405180910390fd5b600087612946576040805162461bcd60e51b815260206004820152600c60248201527f68617368206973207a65726f0000000000000000000000000000000000000000604482015290519081900360640190fd5b600280547fffffffffffffffffffffffffffffffffffffffffffffffffffffff00000000008116600164ffffffffff92831601918216179091556001600160a01b0386166129db576040805162461bcd60e51b815260206004820152601b60248201527f64657374696e6174696f6e206973207a65726f20616464726573730000000000604482015290519081900360640190fd5b6129fd8b89838b6001146129f05760016129f3565b60005b60ff1660006143cb565b9150612a44898989338a878b8b8080601f01602080910402602001604051908101604052809392919081815260200183838082843760009201829052509250614490915050565b509998505050505050505050565b60006b800000000000000000000000821615612a7f57506000818152600460205260409020541515611096565b610800627ff8008316046107ff8316108015612ab857506bffffffff80000000000007ff19821660009081526008602052604090205415155b9050611096565b6001600160a01b03166000908152600d602052604090205460ff1690565b60006001600160a01b038316612b3a576040805162461bcd60e51b815260206004820152601560248201527f6f776e6572206973207a65726f20616464726573730000000000000000000000604482015290519081900360640190fd5b6001600160a01b038216612b95576040805162461bcd60e51b815260206004820152601860248201527f6f70657261746f72206973207a65726f20616464726573730000000000000000604482015290519081900360640190fd5b6001600160a01b0380841660009081526006602090815260408083209386168352929052205460ff168061282f5750506001600160a01b031660009081526001602052604090205460ff16919050565b336001600160a01b0384161480612c0b5750336000908152600d602052604090205460ff165b80612c2557503360009081526001602052604090205460ff165b612c76576040805162461bcd60e51b815260206004820152601560248201527f72657175697265206d65746120617070726f76616c0000000000000000000000604482015290519081900360640190fd5b6115518383836141e8565b60408051808201909152601481527f2e697066732e696e667572612d697066732e696f000000000000000000000000602082015290565b606088612d0c576040805162461bcd60e51b815260206004820152600c60248201527f68617368206973207a65726f0000000000000000000000000000000000000000604482015290519081900360640190fd5b336000908152600c602052604090205460ff16612d70576040805162461bcd60e51b815260206004820152601c60248201527f6f6e6c7920626f756e63657220616c6c6f77656420746f206d696e7400000000604482015290519081900360640190fd5b6001600160a01b038416612dcb576040805162461bcd60e51b815260206004820152601b60248201527f64657374696e6174696f6e206973207a65726f20616464726573730000000000604482015290519081900360640190fd5b6000612e4e8c8a8a8080602002602001604051908101604052809392919081815260200183836020028082843760009201919091525050604080516020601f8e018190048102820181019092528c815292508c91508b9081908401838280828437600081840152601f19601f820116905080830192505050505050508e8e614773565b8092508193505050612e978989808060200260200160405190810160405280939291908181526020018383602002808284376000920191909152508992508691508590506148ff565b612f0a3386848c8c8080602002602001604051908101604052809392919081815260200183836020028082843760009201919091525050604080516020601f8d018190048102820181019092528b815292508b91508a908190840183828082843760009201919091525061495192505050565b509a9950505050505050505050565b6b800000000000000000000000841615612f8757856001600160a01b0316612f4085613043565b6001600160a01b031614612f87576040805162461bcd60e51b81526020600482015260096024820152683737ba1037bbb732b960b91b604482015290519081900360640190fd5b6000612f958787878761335e565b9050612fe981612fa55733612fa7565b875b8888888888888080601f0160208091040260200160405190810160405280939291908181526020018383808284376000920182905250925082915061379e9050565b61303a576040805162461bcd60e51b815260206004820152601960248201527f65726331313535207472616e736665722072656a656374656400000000000000604482015290519081900360640190fd5b50505050505050565b60009081526004602052604090205490565b610100602082020491600790911690565b604080516024810184905260448082018490528251808303909101815260649091019091526020810180517bffffffffffffffffffffffffffffffffffffffffffffffffffffffff167f6c0f6980000000000000000000000000000000000000000000000000000000001790526122c790614a8b565b600181016020026101000382901c63ffffffff1692915050565b60408051603480825260608281019093528391839082602082018180388339509192507f6162636465666768696a6b6c6d6e6f707172737475767778797a323334353637915050601c600285901b166020811061314f57fe5b1a60f81b8183600190039350838151811061316657fe5b60200101906001600160f81b031916908160001a9053506008830492505b81156131f2577f6162636465666768696a6b6c6d6e6f707172737475767778797a32333435363760208406602081106131b957fe5b1a60f81b818360019003935083815181106131d057fe5b60200101906001600160f81b031916908160001a905350602083049250613184565b949350505050565b606061282f8383604051806020016040528060008152506040518060200160405280600081525060405180602001604052806000815250614aac565b6b8000000000000000000000008216156132ce578060011461329f576040805162461bcd60e51b815260206004820152601560248201527f63616e206f6e6c79206275726e206f6e65204e46540000000000000000000000604482015290519081900360640190fd5b336000908152600d60205260409020546132c99060ff166132c057336132c2565b835b8484614cc0565b611551565b6000811180156132e2575063ffffffff8111155b613333576040805162461bcd60e51b815260206004820152600e60248201527f696e76616c696420616d6f756e74000000000000000000000000000000000000604482015290519081900360640190fd5b336000908152600d60205260409020546115519060ff166133545733613356565b835b848484614ddd565b60006001600160a01b0384166133bb576040805162461bcd60e51b815260206004820152601b60248201527f64657374696e6174696f6e206973207a65726f20616464726573730000000000604482015290519081900360640190fd5b6001600160a01b038516613416576040805162461bcd60e51b815260206004820152601460248201527f66726f6d206973207a65726f2061646472657373000000000000000000000000604482015290519081900360640190fd5b50336000818152600d602052604081205460ff16916001600160a01b038716148061343e5750815b8061345857503360009081526001602052604090205460ff165b8061348657506001600160a01b038616600090815260066020908152604080832033845290915290205460ff165b90506b8000000000000000000000008416156136125780806134be57506000848152600760205260409020546001600160a01b031633145b61350f576040805162461bcd60e51b815260206004820152601560248201527f4f70657261746f72206e6f7420617070726f7665640000000000000000000000604482015290519081900360640190fd5b821561360d57826001146135545760405162461bcd60e51b81526004018080602001828103825260238152602001806158276023913960400191505060405180910390fd5b6001600160a01b0380871660009081526003602090815260408083208054600019019055888416808452818420805460010190558884526004835281842055600790915290205416156135cb576000848152600760205260409020805473ffffffffffffffffffffffffffffffffffffffff191690555b83856001600160a01b0316876001600160a01b03167fddf252ad1be2c89b69c2b068fc378daa952ba7f163c4a11628f55a4df523b3ef60405160405180910390a45b61372c565b80613664576040805162461bcd60e51b815260206004820152601560248201527f4f70657261746f72206e6f7420617070726f7665640000000000000000000000604482015290519081900360640190fd5b821561372c5760008061367686613055565b6001600160a01b038a16600090815260056020908152604080832085845290915290205491935091506136b2908287600163ffffffff614e9e16565b6001600160a01b03808a166000908152600560208181526040808420888552825280842095909555928b168252825282812085825290915290812054613701918390889063ffffffff614e9e16565b6001600160a01b03881660009081526005602090815260408083209583529490529290922091909155505b846001600160a01b0316866001600160a01b03168361374b573361374d565b875b6001600160a01b03167fc3d58168c5ae7397731d063d5bbf3d657854427343f4c083240f7aacaa2d0f628787604051808381526020018281526020019250505060405180910390a450949350505050565b60006137b2876001600160a01b0316614fca565b6137be5750600161397e565b6137fc6040518060400160405280600581526020017f5245414348000000000000000000000000000000000000000000000000000000815250615001565b82156138315761380b876150d8565b6138315781156138295761382289898989886151a0565b905061397e565b50600161397e565b63f23a6e6160e01b7bffffffffffffffffffffffffffffffffffffffffffffffffffffffff1916876001600160a01b031663f23a6e618b8b8a8a8a6040518663ffffffff1660e01b815260040180866001600160a01b03166001600160a01b03168152602001856001600160a01b03166001600160a01b0316815260200184815260200183815260200180602001828103825283818151815260200191508051906020019080838360005b838110156138f45781810151838201526020016138dc565b50505050905090810190601f1680156139215780820380516001836020036101000a031916815260200191505b509650505050505050602060405180830381600087803b15801561394457600080fd5b505af1158015613958573d6000803e3d6000fd5b505050506040513d602081101561396e57600080fd5b50516001600160e01b0319161490505b98975050505050505050565b825160008080808080805b87811015613f325760006b8000000000000000000000008c83815181106139b857fe5b6020026020010151161115613c61578880613a0e5750336001600160a01b0316600760008d84815181106139e857fe5b6020908102919091018101518252810191909152604001600020546001600160a01b0316145b613a5f576040805162461bcd60e51b815260206004820152601560248201527f4f70657261746f72206e6f7420617070726f7665640000000000000000000000604482015290519081900360640190fd5b60008a8281518110613a6d57fe5b60200260200101511115613c5c57898181518110613a8757fe5b6020026020010151600114613acd5760405162461bcd60e51b81526004018080602001828103825260238152602001806158276023913960400191505060405180910390fd5b8c6001600160a01b0316613af38c8381518110613ae657fe5b6020026020010151613043565b6001600160a01b031614613b3a576040805162461bcd60e51b81526020600482015260096024820152683737ba1037bbb732b960b91b604482015290519081900360640190fd5b81806001019250508b6001600160a01b0316600460008d8481518110613b5c57fe5b602002602001015181526020019081526020016000208190555060006001600160a01b0316600760008d8481518110613b9157fe5b6020908102919091018101518252810191909152604001600020546001600160a01b031614613c07576000600760008d8481518110613bcc57fe5b6020026020010151815260200190815260200160002060006101000a8154816001600160a01b0302191690836001600160a01b031602179055505b8a8181518110613c1357fe5b60200260200101518c6001600160a01b03168e6001600160a01b03167fddf252ad1be2c89b69c2b068fc378daa952ba7f163c4a11628f55a4df523b3ef60405160405180910390a45b613f2a565b88613cb3576040805162461bcd60e51b815260206004820152601560248201527f4f70657261746f72206e6f7420617070726f7665640000000000000000000000604482015290519081900360640190fd5b8b6001600160a01b03168d6001600160a01b03161415613cfe57613c5c8d8c8381518110613cdd57fe5b60200260200101518c8481518110613cf157fe5b60200260200101516152c9565b60008a8281518110613d0c57fe5b60200260200101511115613f2a57613d368b8281518110613d2957fe5b6020026020010151613055565b909750955082613ddc576001600160a01b038d1660009081526005602090815260408083208a84529091529020548a51889450613d8b919088908d9085908110613d7c57fe5b60200260200101516001614e9e565b6001600160a01b038d1660009081526005602090815260408083208b84529091529020548b51919650613dd59188908d9085908110613dc657fe5b60200260200101516000614e9e565b9350613f2a565b828714613ecf5784600560008f6001600160a01b03166001600160a01b0316815260200190815260200160002060008581526020019081526020016000208190555083600560008e6001600160a01b03166001600160a01b03168152602001908152602001600020600085815260200190815260200160002081905550600560008e6001600160a01b03166001600160a01b031681526020019081526020016000206000888152602001908152602001600020549450600560008d6001600160a01b03166001600160a01b0316815260200190815260200160002060008881526020019081526020016000205493508692505b613efa868b8381518110613edf57fe5b6020026020010151600188614e9e909392919063ffffffff16565b9450613f27868b8381518110613f0c57fe5b6020026020010151600087614e9e909392919063ffffffff16565b93505b600101613995565b50600081118015613f5557508a6001600160a01b03168c6001600160a01b031614155b15613f88576001600160a01b03808d1660009081526003602052604080822080548590039055918d168152208054820190555b8515801590613fa957508a6001600160a01b03168c6001600160a01b031614155b15613fea576001600160a01b03808d1660009081526005602081815260408084208b85528252808420899055938f1683529081528282208983529052208390555b505050505050505050505050565b600061400c856001600160a01b0316614fca565b614018575060016141de565b6000856001600160a01b031663bc197c8189898888886040518663ffffffff1660e01b815260040180866001600160a01b03166001600160a01b03168152602001856001600160a01b03166001600160a01b03168152602001806020018060200180602001848103845287818151815260200191508051906020019060200280838360005b838110156140b557818101518382015260200161409d565b50505050905001848103835286818151815260200191508051906020019060200280838360005b838110156140f45781810151838201526020016140dc565b50505050905001848103825285818151815260200191508051906020019080838360005b83811015614130578181015183820152602001614118565b50505050905090810190601f16801561415d5780820380516001836020036101000a031916815260200191505b5098505050505050505050602060405180830381600087803b15801561418257600080fd5b505af1158015614196573d6000803e3d6000fd5b505050506040513d60208110156141ac57600080fd5b50516001600160e01b0319167fbc197c8100000000000000000000000000000000000000000000000000000000149150505b9695505050505050565b6001600160a01b038316614243576040805162461bcd60e51b815260206004820152601660248201527f73656e646572206973207a65726f206164647265737300000000000000000000604482015290519081900360640190fd5b816001600160a01b0316836001600160a01b031614156142aa576040805162461bcd60e51b815260206004820152601160248201527f73656e646572203d206f70657261746f72000000000000000000000000000000604482015290519081900360640190fd5b6001600160a01b038216614305576040805162461bcd60e51b815260206004820152601860248201527f6f70657261746f72206973207a65726f20616464726573730000000000000000604482015290519081900360640190fd5b6001600160a01b03821660009081526001602052604090205460ff161561435d5760405162461bcd60e51b81526004018080602001828103825260368152602001806159026036913960400191505060405180910390fd5b6001600160a01b03838116600081815260066020908152604080832094871680845294825291829020805460ff1916861515908117909155825190815291517f17307eab39ab6107e8899845ad3d59bd9653f200f220920489ca2b5937696c319281900390910190a3505050565b600080851180156143e0575063ffffffff8511155b614431576040805162461bcd60e51b815260206004820152600e60248201527f696e76616c696420737570706c79000000000000000000000000000000000000604482015290519081900360640190fd5b61ffff8083169084166108000264ffffffffff861662800000026001881461445a576000614468565b6b8000000000000000000000005b6001600160a01b038a166c010000000000000000000000000201010101905095945050505050565b6bffffffff80000000000007ff198316816145dd5760008181526008602052604090205415614506576040805162461bcd60e51b815260206004820152600f60248201527f696420616c726561647920757365640000000000000000000000000000000000604482015290519081900360640190fd5b6000818152600860205260409020899055600460ff88161061456f576040805162461bcd60e51b815260206004820152600b60248201527f726172697479203e3d2034000000000000000000000000000000000000000000604482015290519081900360640190fd5b6040805160018082528183019092526060916020820181803883390190505090508760400260f81b816000815181106145a457fe5b60200101906001600160f81b031916908160001a905350600082815260096020908152604090912082516145da9284019061578e565b50505b8760011415614645576001600160a01b038516600081815260036020908152604080832080546001019055878352600490915280822083905551869291907fddf252ad1be2c89b69c2b068fc378daa952ba7f163c4a11628f55a4df523b3ef908290a46146b8565b60008061465186613055565b6001600160a01b0389166000908152600560209081526040808320858452909152902054919350915061468d90828c600263ffffffff614e9e16565b6001600160a01b03881660009081526005602090815260408083209583529490529290922091909155505b60408051858152602081018a905281516001600160a01b0380891693600093918b16927fc3d58168c5ae7397731d063d5bbf3d657854427343f4c083240f7aacaa2d0f629281900390910190a461471786600087878c8860008061379e565b614768576040805162461bcd60e51b815260206004820152601160248201527f7472616e736665722072656a6563746564000000000000000000000000000000604482015290519081900360640190fd5b505050505050505050565b60606000808651116147cc576040805162461bcd60e51b815260206004820152601460248201527f737570706c6965732e6c656e677468203d3d2030000000000000000000000000604482015290519081900360640190fd5b85516108001015614824576040805162461bcd60e51b815260206004820152600d60248201527f746f6f2062696720626174636800000000000000000000000000000000000000604482015290519081900360640190fd5b61482f87878661534d565b809250819350505060006bffffffff80000000000007ff198360008151811061485457fe5b6020026020010151169050600860008281526020019081526020016000205460001c6000146148ca576040805162461bcd60e51b815260206004820152600f60248201527f696420616c726561647920757365640000000000000000000000000000000000604482015290519081900360640190fd5b60008181526008602090815260408083208790556009825290912087516148f39289019061578e565b50509550959350505050565b60005b8161ffff168551038161ffff16101561492957614921818686866154b2565b600801614902565b61ffff82161561494a5761494a8261ffff168651038361ffff1686866155bc565b5050505050565b836001600160a01b031660006001600160a01b0316866001600160a01b03167f4a39dc06d4c0dbc64b70af90fd698a233a518aa5d07e595d983b8c0526c8f7fb8686604051808060200180602001838103835285818151815260200191508051906020019060200280838360005b838110156149d75781810151838201526020016149bf565b50505050905001838103825284818151815260200191508051906020019060200280838360005b83811015614a165781810151838201526020016149fe565b5050505090500194505050505060405180910390a4614a3a85600086868686613ff8565b61494a576040805162461bcd60e51b815260206004820152601160248201527f7472616e736665722072656a6563746564000000000000000000000000000000604482015290519081900360640190fd5b80516a636f6e736f6c652e6c6f67602083016000808483855afa5050505050565b6060808690506060869050606086905060608690506060869050606081518351855187518951010101016040519080825280601f01601f191660200182016040528015614b00576020820181803883390190505b509050806000805b8851811015614b5957888181518110614b1d57fe5b602001015160f81c60f81b838380600101945081518110614b3a57fe5b60200101906001600160f81b031916908160001a905350600101614b08565b5060005b8751811015614bae57878181518110614b7257fe5b602001015160f81c60f81b838380600101945081518110614b8f57fe5b60200101906001600160f81b031916908160001a905350600101614b5d565b5060005b8651811015614c0357868181518110614bc757fe5b602001015160f81c60f81b838380600101945081518110614be457fe5b60200101906001600160f81b031916908160001a905350600101614bb2565b5060005b8551811015614c5857858181518110614c1c57fe5b602001015160f81c60f81b838380600101945081518110614c3957fe5b60200101906001600160f81b031916908160001a905350600101614c07565b5060005b8451811015614cad57848181518110614c7157fe5b602001015160f81c60f81b838380600101945081518110614c8e57fe5b60200101906001600160f81b031916908160001a905350600101614c5c565b50909d9c50505050505050505050505050565b614cc981613043565b6001600160a01b0316826001600160a01b031614614d1a576040805162461bcd60e51b81526020600482015260096024820152683737ba1037bbb732b960b91b604482015290519081900360640190fd5b60008181526004602090815260408083207401000000000000000000000000000000000000000090556001600160a01b0385168084526003909252808320805460001901905551839291907fddf252ad1be2c89b69c2b068fc378daa952ba7f163c4a11628f55a4df523b3ef908390a4604080518281526001602082015281516000926001600160a01b0386811693908816927fc3d58168c5ae7397731d063d5bbf3d657854427343f4c083240f7aacaa2d0f62929181900390910190a4505050565b600080614de984613055565b6001600160a01b03871660009081526005602090815260408083208584529091529020549193509150614e29908263ffffffff80871690600190614e9e16565b6001600160a01b038087166000818152600560209081526040808320888452825280832095909555845189815263ffffffff8916918101919091528451919492938b16927fc3d58168c5ae7397731d063d5bbf3d657854427343f4c083240f7aacaa2d0f6292918290030190a4505050505050565b60008080836002811115614eae57fe5b1415614ee157614ebe86866130dc565b9050614eda8686614ed5848863ffffffff61567116565b6156c9565b9150614fc1565b6001836002811115614eef57fe5b1415614f5557614eff86866130dc565b905083811015614f405760405162461bcd60e51b81526004018080602001828103825260228152602001806159646022913960400191505060405180910390fd5b614eda8686614ed5848863ffffffff61573116565b6002836002811115614f6357fe5b1415614f7457614eda8686866156c9565b6040805162461bcd60e51b815260206004820152601160248201527f496e76616c6964206f7065726174696f6e000000000000000000000000000000604482015290519081900360640190fd5b50949350505050565b60007fc5d2460186f7233c927e7db2dcc703c0e500b653ca82273b7bfad8045d85a470823f80158015906131f25750141592915050565b6150d5816040516024018080602001828103825283818151815260200191508051906020019080838360005b8381101561504557818101518382015260200161502d565b50505050905090810190601f1680156150725780820380516001836020036101000a031916815260200191505b5060408051601f198184030181529190526020810180517bffffffffffffffffffffffffffffffffffffffffffffffffffffffff167f41304fac000000000000000000000000000000000000000000000000000000001790529250614a8b915050565b50565b604080517f4e2312e0000000000000000000000000000000000000000000000000000000006024808301919091528251808303909101815260449091018252602081810180517bffffffffffffffffffffffffffffffffffffffffffffffffffffffff167f01ffc9a7000000000000000000000000000000000000000000000000000000001781528251935160008082529485948594909392908183858b612710fa955080519450505050609e5a1161518d57fe5b8280156151975750815b95945050505050565b6040517f150b7a02000000000000000000000000000000000000000000000000000000008082526001600160a01b03878116600484019081528782166024850152604484018690526080606485019081528551608486015285516000959389169363150b7a02938c938c938b938b93929160a49091019060208501908083838f5b83811015615239578181015183820152602001615221565b50505050905090810190601f1680156152665780820380516001836020036101000a031916815260200191505b5095505050505050602060405180830381600087803b15801561528857600080fd5b505af115801561529c573d6000803e3d6000fd5b505050506040513d60208110156152b257600080fd5b50516001600160e01b031916149695505050505050565b6000806152d584613055565b6001600160a01b038716600090815260056020908152604080832085845290915290205491935091508390615310908363ffffffff6130dc16565b101561494a5760405162461bcd60e51b81526004018080602001828103825260228152602001806159646022913960400191505060405180910390fd5b60606000808451905060608161ffff16604051908082528060200260200182016040528015615386578160200160208202803883390190505b5090506000805b8361ffff168161ffff1610156154455761ffff82166153d157878161ffff16815181106153b657fe5b6020026020010151600114156153cc5780840391505b61543d565b878161ffff16815181106153e157fe5b602002602001015160011461543d576040805162461bcd60e51b815260206004820152601e60248201527f4e465473206e65656420746f206265207075742061742074686520656e640000604482015290519081900360640190fd5b60010161538d565b5080830360005b8461ffff168161ffff1610156154a3576154808a8a8361ffff168151811061547057fe5b60200260200101518a85856143cb565b848261ffff168151811061549057fe5b602090810291909101015260010161544c565b50919890975095505050505050565b6000818561ffff16815181106154c457fe5b602002602001015190506000806154da83613055565b6001600160a01b03871660009081526005602090815260408083208584529091528120549294509092505b60088110801561551b57508751818a61ffff1601105b1561558a576000818a61ffff16019050600189828151811061553957fe5b6020026020010151111561557b576155748285018a838151811061555957fe5b6020026020010151600286614e9e909392919063ffffffff16565b9250615581565b5061558a565b50600101615505565b506001600160a01b03909516600090815260056020908152604080832094835293905291909120939093555050505050565b60005b8363ffffffff168161ffff1610156156455760008286830161ffff16815181106155e557fe5b6020908102919091018101516000818152600490925260408083206001600160a01b038816908190559051919350839290917fddf252ad1be2c89b69c2b068fc378daa952ba7f163c4a11628f55a4df523b3ef908290a4506001016155bf565b50506001600160a01b03166000908152600360205260409020805463ffffffff90921691909101905550565b81810182811015610f8e576040805162461bcd60e51b815260206004820152600860248201527f6f766572666c6f77000000000000000000000000000000000000000000000000604482015290519081900360640190fd5b6000640100000000821061570e5760405162461bcd60e51b81526004018080602001828103825260238152602001806158706023913960400191505060405180910390fd5b5063ffffffff600183016020026101000390811b1984169082901b179392505050565b600082821115615788576040805162461bcd60e51b815260206004820152600860248201527f756e6465666c6f77000000000000000000000000000000000000000000000000604482015290519081900360640190fd5b50900390565b828054600181600116156101000203166002900490600052602060002090601f016020900481019282601f106157cf57805160ff19168380011785556157fc565b828001600101855582156157fc579182015b828111156157fc5782518255916020019190600101906157e1565b5061580892915061580c565b5090565b61119091905b80821115615808576000815560010161581256fe63616e6e6f74207472616e73666572206e667420696620616d6f756e74206e6f742031496e636f6e73697374656e74206172726179206c656e677468206265747765656e2061726773416d6f756e7420746f20777269746520696e2062696e20697320746f6f206c617267656f6e6c7920626f756e63657241646d696e2063616e206368616e676520697473656c666f6e6c7920626f756e63657241646d696e2063616e20736574757020626f756e636572736e6f20636f6c6c656374696f6e2065766572206d696e74656420666f72207468617420746f6b656e7375706572206f70657261746f722063616e2774206861766520746865697220617070726f76616c466f72416c6c206368616e6765646f6e6c792061646d696e20697320616c6c6f77656420746f20616464207375706572206f70657261746f727363616e277420737562737472616374206d6f7265207468616e2074686572652069736f6e6c792061646d696e2063616e207365747570206d6574615472616e73616374696f6e50726f636573736f7273a265627a7a72305820995e5018596056a74e1f7ea57848e538287afa0cc090a2e7556ef64cf385b8cb64736f6c63430005090032",
  "linkReferences": {},
  "deployedLinkReferences": {}
}