{
  "_format": "hh-sol-artifact-1",
  "contractName": "ERC1155ERC721",
  "sourceName": "contracts/v2/Asset/ERC1155ERC721.sol",
  "abi": [
    {
      "constant": true,
      "inputs": [
        {
          "name": "owner",
          "type": "address"
        },
        {
          "name": "id",
          "type": "uint256"
        }
      ],
      "name": "balanceOf",
      "outputs": [
        {
          "name": "",
          "type": "uint256"
        }
      ],
      "payable": false,
      "stateMutability": "view",
      "type": "function"
    },
    {
      "constant": true,
      "inputs": [
        {
          "name": "id",
          "type": "bytes4"
        }
      ],
      "name": "supportsInterface",
      "outputs": [
        {
          "name": "",
          "type": "bool"
        }
      ],
      "payable": false,
      "stateMutability": "view",
      "type": "function"
    },
    {
      "constant": false,
      "inputs": [
        {
          "name": "newBouncerAdmin",
          "type": "address"
        }
      ],
      "name": "changeBouncerAdmin",
      "outputs": [],
      "payable": false,
      "stateMutability": "nonpayable",
      "type": "function"
    },
    {
      "constant": true,
      "inputs": [],
      "name": "name",
      "outputs": [
        {
          "name": "_name",
          "type": "string"
        }
      ],
      "payable": false,
      "stateMutability": "pure",
      "type": "function"
    },
    {
      "constant": true,
      "inputs": [
        {
          "name": "id",
          "type": "uint256"
        }
      ],
      "name": "getApproved",
      "outputs": [
        {
          "name": "operator",
          "type": "address"
        }
      ],
      "payable": false,
      "stateMutability": "view",
      "type": "function"
    },
    {
      "constant": false,
      "inputs": [
        {
          "name": "operator",
          "type": "address"
        },
        {
          "name": "id",
          "type": "uint256"
        }
      ],
      "name": "approve",
      "outputs": [],
      "payable": false,
      "stateMutability": "nonpayable",
      "type": "function"
    },
    {
      "constant": true,
      "inputs": [
        {
          "name": "id",
          "type": "uint256"
        }
      ],
      "name": "uri",
      "outputs": [
        {
          "name": "",
          "type": "string"
        }
      ],
      "payable": false,
      "stateMutability": "view",
      "type": "function"
    },
    {
      "constant": false,
      "inputs": [
        {
          "name": "from",
          "type": "address"
        },
        {
          "name": "id",
          "type": "uint256"
        },
        {
          "name": "amount",
          "type": "uint256"
        }
      ],
      "name": "burnFrom",
      "outputs": [],
      "payable": false,
      "stateMutability": "nonpayable",
      "type": "function"
    },
    {
      "constant": false,
      "inputs": [
        {
          "name": "metaTransactionContract",
          "type": "address"
        },
        {
          "name": "admin",
          "type": "address"
        },
        {
          "name": "bouncerAdmin",
          "type": "address"
        }
      ],
      "name": "init",
      "outputs": [],
      "payable": false,
      "stateMutability": "nonpayable",
      "type": "function"
    },
    {
      "constant": false,
      "inputs": [
        {
          "name": "from",
          "type": "address"
        },
        {
          "name": "to",
          "type": "address"
        },
        {
          "name": "id",
          "type": "uint256"
        }
      ],
      "name": "transferFrom",
      "outputs": [],
      "payable": false,
      "stateMutability": "nonpayable",
      "type": "function"
    },
    {
      "constant": false,
      "inputs": [
        {
          "name": "sender",
          "type": "address"
        },
        {
          "name": "operator",
          "type": "address"
        },
        {
          "name": "id",
          "type": "uint256"
        }
      ],
      "name": "approveFor",
      "outputs": [],
      "payable": false,
      "stateMutability": "nonpayable",
      "type": "function"
    },
    {
      "constant": true,
      "inputs": [
        {
          "name": "id",
          "type": "uint256"
        }
      ],
      "name": "collectionIndexOf",
      "outputs": [
        {
          "name": "",
          "type": "uint256"
        }
      ],
      "payable": false,
      "stateMutability": "view",
      "type": "function"
    },
    {
      "constant": false,
      "inputs": [
        {
          "name": "from",
          "type": "address"
        },
        {
          "name": "to",
          "type": "address"
        },
        {
          "name": "ids",
          "type": "uint256[]"
        },
        {
          "name": "values",
          "type": "uint256[]"
        },
        {
          "name": "data",
          "type": "bytes"
        }
      ],
      "name": "safeBatchTransferFrom",
      "outputs": [],
      "payable": false,
      "stateMutability": "nonpayable",
      "type": "function"
    },
    {
      "constant": false,
      "inputs": [
        {
          "name": "from",
          "type": "address"
        },
        {
          "name": "to",
          "type": "address"
        },
        {
          "name": "id",
          "type": "uint256"
        }
      ],
      "name": "safeTransferFrom",
      "outputs": [],
      "payable": false,
      "stateMutability": "nonpayable",
      "type": "function"
    },
    {
      "constant": true,
      "inputs": [
        {
          "name": "who",
          "type": "address"
        }
      ],
      "name": "isBouncer",
      "outputs": [
        {
          "name": "",
          "type": "bool"
        }
      ],
      "payable": false,
      "stateMutability": "view",
      "type": "function"
    },
    {
      "constant": true,
      "inputs": [
        {
          "name": "owners",
          "type": "address[]"
        },
        {
          "name": "ids",
          "type": "uint256[]"
        }
      ],
      "name": "balanceOfBatch",
      "outputs": [
        {
          "name": "",
          "type": "uint256[]"
        }
      ],
      "payable": false,
      "stateMutability": "view",
      "type": "function"
    },
    {
      "constant": true,
      "inputs": [
        {
          "name": "id",
          "type": "uint256"
        }
      ],
      "name": "creatorOf",
      "outputs": [
        {
          "name": "",
          "type": "address"
        }
      ],
      "payable": false,
      "stateMutability": "view",
      "type": "function"
    },
    {
      "constant": true,
      "inputs": [
        {
          "name": "id",
          "type": "uint256"
        }
      ],
      "name": "uri2",
      "outputs": [
        {
          "name": "",
          "type": "string"
        }
      ],
      "payable": false,
      "stateMutability": "view",
      "type": "function"
    },
    {
      "constant": true,
      "inputs": [],
      "name": "basePrefixTokenURI",
      "outputs": [
        {
          "name": "",
          "type": "string"
        }
      ],
      "payable": false,
      "stateMutability": "view",
      "type": "function"
    },
    {
      "constant": true,
      "inputs": [
        {
          "name": "id",
          "type": "uint256"
        }
      ],
      "name": "ownerOf",
      "outputs": [
        {
          "name": "owner",
          "type": "address"
        }
      ],
      "payable": false,
      "stateMutability": "view",
      "type": "function"
    },
    {
      "constant": true,
      "inputs": [
        {
          "name": "who",
          "type": "address"
        }
      ],
      "name": "isSuperOperator",
      "outputs": [
        {
          "name": "",
          "type": "bool"
        }
      ],
      "payable": false,
      "stateMutability": "view",
      "type": "function"
    },
    {
      "constant": true,
      "inputs": [],
      "name": "getAdmin",
      "outputs": [
        {
          "name": "",
          "type": "address"
        }
      ],
      "payable": false,
      "stateMutability": "view",
      "type": "function"
    },
    {
      "constant": true,
      "inputs": [
        {
          "name": "owner",
          "type": "address"
        }
      ],
      "name": "balanceOf",
      "outputs": [
        {
          "name": "balance",
          "type": "uint256"
        }
      ],
      "payable": false,
      "stateMutability": "view",
      "type": "function"
    },
    {
      "constant": false,
      "inputs": [
        {
          "name": "metaTransactionProcessor",
          "type": "address"
        },
        {
          "name": "enabled",
          "type": "bool"
        }
      ],
      "name": "setMetaTransactionProcessor",
      "outputs": [],
      "payable": false,
      "stateMutability": "nonpayable",
      "type": "function"
    },
    {
      "constant": true,
      "inputs": [
        {
          "name": "id",
          "type": "uint256"
        }
      ],
      "name": "rarity",
      "outputs": [
        {
          "name": "",
          "type": "uint256"
        }
      ],
      "payable": false,
      "stateMutability": "view",
      "type": "function"
    },
    {
      "constant": false,
      "inputs": [
        {
          "name": "newAdmin",
          "type": "address"
        }
      ],
      "name": "changeAdmin",
      "outputs": [],
      "payable": false,
      "stateMutability": "nonpayable",
      "type": "function"
    },
    {
      "constant": false,
      "inputs": [
        {
          "name": "creator",
          "type": "address"
        },
        {
          "name": "packId",
          "type": "uint40"
        },
        {
          "name": "numFTs",
          "type": "uint16"
        }
      ],
      "name": "isPackIdUsed",
      "outputs": [
        {
          "name": "",
          "type": "bool"
        }
      ],
      "payable": false,
      "stateMutability": "nonpayable",
      "type": "function"
    },
    {
      "constant": true,
      "inputs": [],
      "name": "symbol",
      "outputs": [
        {
          "name": "_symbol",
          "type": "string"
        }
      ],
      "payable": false,
      "stateMutability": "pure",
      "type": "function"
    },
    {
      "constant": true,
      "inputs": [],
      "name": "getBouncerAdmin",
      "outputs": [
        {
          "name": "",
          "type": "address"
        }
      ],
      "payable": false,
      "stateMutability": "view",
      "type": "function"
    },
    {
      "constant": false,
      "inputs": [
        {
          "name": "operator",
          "type": "address"
        },
        {
          "name": "approved",
          "type": "bool"
        }
      ],
      "name": "setApprovalForAll",
      "outputs": [],
      "payable": false,
      "stateMutability": "nonpayable",
      "type": "function"
    },
    {
      "constant": true,
      "inputs": [
        {
          "name": "",
          "type": "uint256"
        }
      ],
      "name": "_metadataHash",
      "outputs": [
        {
          "name": "",
          "type": "bytes32"
        }
      ],
      "payable": false,
      "stateMutability": "view",
      "type": "function"
    },
    {
      "constant": false,
      "inputs": [
        {
          "name": "superOperator",
          "type": "address"
        },
        {
          "name": "enabled",
          "type": "bool"
        }
      ],
      "name": "setSuperOperator",
      "outputs": [],
      "payable": false,
      "stateMutability": "nonpayable",
      "type": "function"
    },
    {
      "constant": false,
      "inputs": [
        {
          "name": "id",
          "type": "uint256"
        },
        {
          "name": "amount",
          "type": "uint256"
        }
      ],
      "name": "burn",
      "outputs": [],
      "payable": false,
      "stateMutability": "nonpayable",
      "type": "function"
    },
    {
      "constant": false,
      "inputs": [
        {
          "name": "sender",
          "type": "address"
        },
        {
          "name": "original",
          "type": "address"
        },
        {
          "name": "to",
          "type": "address"
        }
      ],
      "name": "transferCreatorship",
      "outputs": [],
      "payable": false,
      "stateMutability": "nonpayable",
      "type": "function"
    },
    {
      "constant": false,
      "inputs": [
        {
          "name": "from",
          "type": "address"
        },
        {
          "name": "to",
          "type": "address"
        },
        {
          "name": "id",
          "type": "uint256"
        },
        {
          "name": "data",
          "type": "bytes"
        }
      ],
      "name": "safeTransferFrom",
      "outputs": [],
      "payable": false,
      "stateMutability": "nonpayable",
      "type": "function"
    },
    {
      "constant": false,
      "inputs": [
        {
          "name": "bouncer",
          "type": "address"
        },
        {
          "name": "enabled",
          "type": "bool"
        }
      ],
      "name": "setBouncer",
      "outputs": [],
      "payable": false,
      "stateMutability": "nonpayable",
      "type": "function"
    },
    {
      "constant": true,
      "inputs": [
        {
          "name": "id",
          "type": "uint256"
        }
      ],
      "name": "isCollection",
      "outputs": [
        {
          "name": "",
          "type": "bool"
        }
      ],
      "payable": false,
      "stateMutability": "view",
      "type": "function"
    },
    {
      "constant": true,
      "inputs": [
        {
          "name": "id",
          "type": "uint256"
        }
      ],
      "name": "collectionOf",
      "outputs": [
        {
          "name": "",
          "type": "uint256"
        }
      ],
      "payable": false,
      "stateMutability": "view",
      "type": "function"
    },
    {
      "constant": true,
      "inputs": [
        {
          "name": "id",
          "type": "uint256"
        }
      ],
      "name": "tokenURI",
      "outputs": [
        {
          "name": "",
          "type": "string"
        }
      ],
      "payable": false,
      "stateMutability": "view",
      "type": "function"
    },
    {
      "constant": false,
      "inputs": [
        {
          "name": "creator",
          "type": "address"
        },
        {
          "name": "packId",
          "type": "uint40"
        },
        {
          "name": "hash",
          "type": "bytes32"
        },
        {
          "name": "supply",
          "type": "uint256"
        },
        {
          "name": "rarity",
          "type": "uint8"
        },
        {
          "name": "owner",
          "type": "address"
        },
        {
          "name": "data",
          "type": "bytes"
        },
        {
          "name": "xxx",
          "type": "uint8"
        }
      ],
      "name": "mint",
      "outputs": [
        {
          "name": "id",
          "type": "uint256"
        }
      ],
      "payable": false,
      "stateMutability": "nonpayable",
      "type": "function"
    },
    {
      "constant": true,
      "inputs": [
        {
          "name": "id",
          "type": "uint256"
        }
      ],
      "name": "wasEverMinted",
      "outputs": [
        {
          "name": "",
          "type": "bool"
        }
      ],
      "payable": false,
      "stateMutability": "view",
      "type": "function"
    },
    {
      "constant": true,
      "inputs": [
        {
          "name": "who",
          "type": "address"
        }
      ],
      "name": "isMetaTransactionProcessor",
      "outputs": [
        {
          "name": "",
          "type": "bool"
        }
      ],
      "payable": false,
      "stateMutability": "view",
      "type": "function"
    },
    {
      "constant": true,
      "inputs": [
        {
          "name": "owner",
          "type": "address"
        },
        {
          "name": "operator",
          "type": "address"
        }
      ],
      "name": "isApprovedForAll",
      "outputs": [
        {
          "name": "isOperator",
          "type": "bool"
        }
      ],
      "payable": false,
      "stateMutability": "view",
      "type": "function"
    },
    {
      "constant": false,
      "inputs": [
        {
          "name": "sender",
          "type": "address"
        },
        {
          "name": "operator",
          "type": "address"
        },
        {
          "name": "approved",
          "type": "bool"
        }
      ],
      "name": "setApprovalForAllFor",
      "outputs": [],
      "payable": false,
      "stateMutability": "nonpayable",
      "type": "function"
    },
    {
      "constant": true,
      "inputs": [],
      "name": "baseSuffixTokenURI",
      "outputs": [
        {
          "name": "",
          "type": "string"
        }
      ],
      "payable": false,
      "stateMutability": "view",
      "type": "function"
    },
    {
      "constant": false,
      "inputs": [
        {
          "name": "creator",
          "type": "address"
        },
        {
          "name": "packId",
          "type": "uint40"
        },
        {
          "name": "hash",
          "type": "bytes32"
        },
        {
          "name": "supplies",
          "type": "uint256[]"
        },
        {
          "name": "rarityPack",
          "type": "bytes"
        },
        {
          "name": "owner",
          "type": "address"
        },
        {
          "name": "data",
          "type": "bytes"
        }
      ],
      "name": "mintMultiple",
      "outputs": [
        {
          "name": "ids",
          "type": "uint256[]"
        }
      ],
      "payable": false,
      "stateMutability": "nonpayable",
      "type": "function"
    },
    {
      "constant": false,
      "inputs": [
        {
          "name": "from",
          "type": "address"
        },
        {
          "name": "to",
          "type": "address"
        },
        {
          "name": "id",
          "type": "uint256"
        },
        {
          "name": "value",
          "type": "uint256"
        },
        {
          "name": "data",
          "type": "bytes"
        }
      ],
      "name": "safeTransferFrom",
      "outputs": [],
      "payable": false,
      "stateMutability": "nonpayable",
      "type": "function"
    },
    {
      "anonymous": false,
      "inputs": [
        {
          "indexed": true,
          "name": "original",
          "type": "address"
        },
        {
          "indexed": true,
          "name": "from",
          "type": "address"
        },
        {
          "indexed": true,
          "name": "to",
          "type": "address"
        }
      ],
      "name": "CreatorshipTransfer",
      "type": "event"
    },
    {
      "anonymous": false,
      "inputs": [],
      "name": "DebugEvent",
      "type": "event"
    },
    {
      "anonymous": false,
      "inputs": [
        {
          "indexed": false,
          "name": "oldBouncerAdmin",
          "type": "address"
        },
        {
          "indexed": false,
          "name": "newBouncerAdmin",
          "type": "address"
        }
      ],
      "name": "BouncerAdminChanged",
      "type": "event"
    },
    {
      "anonymous": false,
      "inputs": [
        {
          "indexed": false,
          "name": "bouncer",
          "type": "address"
        },
        {
          "indexed": false,
          "name": "enabled",
          "type": "bool"
        }
      ],
      "name": "Bouncer",
      "type": "event"
    },
    {
      "anonymous": false,
      "inputs": [
        {
          "indexed": false,
          "name": "metaTransactionProcessor",
          "type": "address"
        },
        {
          "indexed": false,
          "name": "enabled",
          "type": "bool"
        }
      ],
      "name": "MetaTransactionProcessor",
      "type": "event"
    },
    {
      "anonymous": false,
      "inputs": [
        {
          "indexed": true,
          "name": "fromId",
          "type": "uint256"
        },
        {
          "indexed": false,
          "name": "toId",
          "type": "uint256"
        }
      ],
      "name": "Extraction",
      "type": "event"
    },
    {
      "anonymous": false,
      "inputs": [
        {
          "indexed": true,
          "name": "fromId",
          "type": "uint256"
        },
        {
          "indexed": false,
          "name": "toId",
          "type": "uint256"
        }
      ],
      "name": "AssetUpdate",
      "type": "event"
    },
    {
      "anonymous": false,
      "inputs": [
        {
          "indexed": true,
          "name": "_from",
          "type": "address"
        },
        {
          "indexed": true,
          "name": "_to",
          "type": "address"
        },
        {
          "indexed": true,
          "name": "_tokenId",
          "type": "uint256"
        }
      ],
      "name": "Transfer",
      "type": "event"
    },
    {
      "anonymous": false,
      "inputs": [
        {
          "indexed": true,
          "name": "_owner",
          "type": "address"
        },
        {
          "indexed": true,
          "name": "_approved",
          "type": "address"
        },
        {
          "indexed": true,
          "name": "_tokenId",
          "type": "uint256"
        }
      ],
      "name": "Approval",
      "type": "event"
    },
    {
      "anonymous": false,
      "inputs": [
        {
          "indexed": true,
          "name": "_owner",
          "type": "address"
        },
        {
          "indexed": true,
          "name": "_operator",
          "type": "address"
        },
        {
          "indexed": false,
          "name": "_approved",
          "type": "bool"
        }
      ],
      "name": "ApprovalForAll",
      "type": "event"
    },
    {
      "anonymous": false,
      "inputs": [
        {
          "indexed": true,
          "name": "operator",
          "type": "address"
        },
        {
          "indexed": true,
          "name": "from",
          "type": "address"
        },
        {
          "indexed": true,
          "name": "to",
          "type": "address"
        },
        {
          "indexed": false,
          "name": "id",
          "type": "uint256"
        },
        {
          "indexed": false,
          "name": "value",
          "type": "uint256"
        }
      ],
      "name": "TransferSingle",
      "type": "event"
    },
    {
      "anonymous": false,
      "inputs": [
        {
          "indexed": true,
          "name": "operator",
          "type": "address"
        },
        {
          "indexed": true,
          "name": "from",
          "type": "address"
        },
        {
          "indexed": true,
          "name": "to",
          "type": "address"
        },
        {
          "indexed": false,
          "name": "ids",
          "type": "uint256[]"
        },
        {
          "indexed": false,
          "name": "values",
          "type": "uint256[]"
        }
      ],
      "name": "TransferBatch",
      "type": "event"
    },
    {
      "anonymous": false,
      "inputs": [
        {
          "indexed": false,
          "name": "value",
          "type": "string"
        },
        {
          "indexed": true,
          "name": "id",
          "type": "uint256"
        }
      ],
      "name": "URI",
      "type": "event"
    },
    {
      "anonymous": false,
      "inputs": [
        {
          "indexed": false,
          "name": "superOperator",
          "type": "address"
        },
        {
          "indexed": false,
          "name": "enabled",
          "type": "bool"
        }
      ],
      "name": "SuperOperator",
      "type": "event"
    },
    {
      "anonymous": false,
      "inputs": [
        {
          "indexed": false,
          "name": "oldAdmin",
          "type": "address"
        },
        {
          "indexed": false,
          "name": "newAdmin",
          "type": "address"
        }
      ],
      "name": "AdminChanged",
      "type": "event"
    }
  ],
  "bytecode": "0x60806040526002805464ffffffffff1916905534801561001e57600080fd5b50615c25806200002f6000396000f3fe608060405234801561001057600080fd5b50600436106103145760003560e01c80638a04af6a116101a7578063b9b75ebc116100ee578063dc5074af11610097578063ef03fc4711610071578063ef03fc4714610d12578063f0bc00d814610d1a578063f242432a14610e5e57610314565b8063dc5074af14610c86578063e985e9c514610cac578063eeb5a5d114610cda57610314565b8063c87b56dd116100c8578063c87b56dd1461049c578063cfb5a71f14610bba578063d402756e14610c6957610314565b8063b9b75ebc14610b52578063bd9ff41b14610b80578063c7778baa14610b9d57610314565b8063a22cb46511610150578063b390c0ab1161012a578063b390c0ab14610a31578063b666923c14610a54578063b88d4fde14610a8c57610314565b8063a22cb465146109b8578063a2c7162f146109e6578063ac9fe42114610a0357610314565b80639470f3cb116101815780639470f3cb1461096b57806395d89b41146109a85780639bc88b9c146109b057610314565b80638a04af6a146108fa5780638b58c569146109285780638f2839701461094557610314565b80632e712b461161026b5780635c85a54411610214578063654b748a116101ee578063654b748a146108a65780636e9960c3146108cc57806370a08231146108d457610314565b80635c85a544146108645780636103802c146108815780636352211e1461088957610314565b80634c4d07e7116102455780634c4d07e71461070f5780634e1273f414610735578063589a17431461084757610314565b80632e712b461461058f5780632eb2c2d6146105ac57806342842e0e146106d957610314565b8063095ea7b3116102cd578063184b9559116102a7578063184b9559146104eb57806323b872dd146105235780632b9917461461055957610314565b8063095ea7b3146104705780630e89341c1461049c578063124d91e5146104b957610314565b8063049476df116102fe578063049476df1461039257806306fdde03146103ba578063081812fc1461043757610314565b8062fdd58e1461031957806301ffc9a714610357575b600080fd5b6103456004803603604081101561032f57600080fd5b506001600160a01b038135169060200135610ef3565b60408051918252519081900360200190f35b61037e6004803603602081101561036d57600080fd5b50356001600160e01b031916610f94565b604080519115158252519081900360200190f35b6103b8600480360360208110156103a857600080fd5b50356001600160a01b031661109b565b005b6103c261115b565b6040805160208082528351818301528351919283929083019185019080838360005b838110156103fc5781810151838201526020016103e4565b50505050905090810190601f1680156104295780820380516001836020036101000a031916815260200191505b509250505060405180910390f35b6104546004803603602081101561044d57600080fd5b5035611193565b604080516001600160a01b039092168252519081900360200190f35b6103b86004803603604081101561048657600080fd5b506001600160a01b038135169060200135611217565b6103c2600480360360208110156104b257600080fd5b503561138d565b6103b8600480360360608110156104cf57600080fd5b506001600160a01b03813516906020810135906040013561142c565b6103b86004803603606081101561050157600080fd5b506001600160a01b038135811691602081013582169160409091013516611551565b6103b86004803603606081101561053957600080fd5b506001600160a01b03813581169160208101359091169060400135611556565b6103b86004803603606081101561056f57600080fd5b506001600160a01b03813581169160208101359091169060400135611646565b610345600480360360208110156105a557600080fd5b5035611829565b6103b8600480360360a08110156105c257600080fd5b6001600160a01b0382358116926020810135909116918101906060810160408201356401000000008111156105f657600080fd5b82018360208201111561060857600080fd5b8035906020019184602083028401116401000000008311171561062a57600080fd5b91939092909160208101903564010000000081111561064857600080fd5b82018360208201111561065a57600080fd5b8035906020019184602083028401116401000000008311171561067c57600080fd5b91939092909160208101903564010000000081111561069a57600080fd5b8201836020820111156106ac57600080fd5b803590602001918460018302840111640100000000831117156106ce57600080fd5b509092509050611842565b6103b8600480360360608110156106ef57600080fd5b506001600160a01b03813581169160208101359091169060400135611be2565b61037e6004803603602081101561072557600080fd5b50356001600160a01b0316611bfd565b6107f76004803603604081101561074b57600080fd5b81019060208101813564010000000081111561076657600080fd5b82018360208201111561077857600080fd5b8035906020019184602083028401116401000000008311171561079a57600080fd5b9193909290916020810190356401000000008111156107b857600080fd5b8201836020820111156107ca57600080fd5b803590602001918460208302840111640100000000831117156107ec57600080fd5b509092509050611c1b565b60408051602080825283518183015283519192839290830191858101910280838360005b8381101561083357818101518382015260200161081b565b505050509050019250505060405180910390f35b6104546004803603602081101561085d57600080fd5b5035611cf5565b6103c26004803603602081101561087a57600080fd5b5035611d92565b6103c2611e17565b6104546004803603602081101561089f57600080fd5b5035611e4e565b61037e600480360360208110156108bc57600080fd5b50356001600160a01b0316611eb6565b610454611ed4565b610345600480360360208110156108ea57600080fd5b50356001600160a01b0316611ee3565b6103b86004803603604081101561091057600080fd5b506001600160a01b0381351690602001351515611f5c565b6103456004803603602081101561093e57600080fd5b5035612009565b6103b86004803603602081101561095b57600080fd5b50356001600160a01b0316612158565b61037e6004803603606081101561098157600080fd5b5080356001600160a01b031690602081013564ffffffffff16906040013561ffff1661222e565b6103c2612277565b6104546122ae565b6103b8600480360360408110156109ce57600080fd5b506001600160a01b03813516906020013515156122bd565b610345600480360360208110156109fc57600080fd5b50356122cc565b6103b860048036036040811015610a1957600080fd5b506001600160a01b03813516906020013515156122de565b6103b860048036036040811015610a4757600080fd5b508035906020013561238b565b6103b860048036036060811015610a6a57600080fd5b506001600160a01b038135811691602081013582169160409091013516612396565b6103b860048036036080811015610aa257600080fd5b6001600160a01b03823581169260208101359091169160408201359190810190608081016060820135640100000000811115610add57600080fd5b820183602082011115610aef57600080fd5b80359060200191846001830284011164010000000083111715610b1157600080fd5b91908080601f0160208091040260200160405190810160405280939291908181526020018383808284376000920191909152509295506126ab945050505050565b6103b860048036036040811015610b6857600080fd5b506001600160a01b0381351690602001351515612768565b61037e60048036036020811015610b9657600080fd5b5035612815565b61034560048036036020811015610bb357600080fd5b5035612837565b6103456004803603610100811015610bd157600080fd5b6001600160a01b03823581169264ffffffffff6020820135169260408201359260608301359260ff6080820135169260a08201359092169181019060e0810160c0820135640100000000811115610c2757600080fd5b820183602082011115610c3957600080fd5b80359060200191846001830284011164010000000083111715610c5b57600080fd5b91935091503560ff166128f3565b61037e60048036036020811015610c7f57600080fd5b5035612a53565b61037e60048036036020811015610c9c57600080fd5b50356001600160a01b0316612ac0565b61037e60048036036040811015610cc257600080fd5b506001600160a01b0381358116916020013516612ade565b6103b860048036036060811015610cf057600080fd5b506001600160a01b038135811691602081013590911690604001351515612be6565b6103c2612c82565b6107f7600480360360e0811015610d3057600080fd5b6001600160a01b038235169164ffffffffff6020820135169160408201359190810190608081016060820135640100000000811115610d6e57600080fd5b820183602082011115610d8057600080fd5b80359060200191846020830284011164010000000083111715610da257600080fd5b919390929091602081019035640100000000811115610dc057600080fd5b820183602082011115610dd257600080fd5b80359060200191846001830284011164010000000083111715610df457600080fd5b919390926001600160a01b0383351692604081019060200135640100000000811115610e1f57600080fd5b820183602082011115610e3157600080fd5b80359060200191846001830284011164010000000083111715610e5357600080fd5b509092509050612cb9565b6103b8600480360360a0811015610e7457600080fd5b6001600160a01b03823581169260208101359091169160408201359160608101359181019060a081016080820135640100000000811115610eb457600080fd5b820183602082011115610ec657600080fd5b80359060200191846001830284011164010000000083111715610ee857600080fd5b509092509050612f1a565b60006b800000000000000000000000821615610f3b57826001600160a01b0316610f1c83613044565b6001600160a01b03161415610f3357506001610f8e565b506000610f8e565b600080610f4784613056565b91509150610f558282613067565b6001600160a01b0385166000908152600560209081526040808320858452909152902054610f89908263ffffffff6130dd16565b925050505b92915050565b60007f01ffc9a7000000000000000000000000000000000000000000000000000000006001600160e01b031983161480610ff757507fd9b67a26000000000000000000000000000000000000000000000000000000006001600160e01b03198316145b8061102b57507f80ac58cd000000000000000000000000000000000000000000000000000000006001600160e01b03198316145b8061105f57507f5b5e139f000000000000000000000000000000000000000000000000000000006001600160e01b03198316145b8061109357507f0e89341c000000000000000000000000000000000000000000000000000000006001600160e01b03198316145b90505b919050565b600e546001600160a01b031633146110e45760405162461bcd60e51b8152600401808060200182810382526023815260200180615ad06023913960400191505060405180910390fd5b600e54604080516001600160a01b039283168152918316602083015280517f1bab6ababbec5519512e9ee16964953ec0f72839126138285cac1f1136bd642e9281900390910190a1600e805473ffffffffffffffffffffffffffffffffffffffff19166001600160a01b0392909216919091179055565b60408051808201909152600f81527f446556657273652773204153534554000000000000000000000000000000000060208201525b90565b60008061119f83613044565b6001600160a01b031614156111fb576040805162461bcd60e51b815260206004820152601260248201527f4e465420646f6573206e6f742065786973740000000000000000000000000000604482015290519081900360640190fd5b506000908152600760205260409020546001600160a01b031690565b600061122282613044565b90506001600160a01b03811661127f576040805162461bcd60e51b815260206004820152601260248201527f4e465420646f6573206e6f742065786973740000000000000000000000000000604482015290519081900360640190fd5b6001600160a01b0381163314806112a557503360009081526001602052604090205460ff165b806112d357506001600160a01b038116600090815260066020908152604080832033845290915290205460ff165b611324576040805162461bcd60e51b815260206004820152600e60248201527f6e6f7420617574686f72697a6564000000000000000000000000000000000000604482015290519081900360640190fd5b600082815260076020526040808220805473ffffffffffffffffffffffffffffffffffffffff19166001600160a01b0387811691821790925591518593918516917f8c5be1e5ebec7d5bd14f71427d1e84f3dd0314c0f7b2291e5b200ac8c7c3b92591a4505050565b606061139882612a53565b6113e9576040805162461bcd60e51b815260206004820152601660248201527f746f6b656e20776173206e65766572206d696e74656400000000000000000000604482015290519081900360640190fd5b6110936114246113f7611e17565b6bffffffff80000000000007ff19851660009081526008602052604090205461141f906130f7565b6131fb565b61141f612c82565b6001600160a01b038316611487576040805162461bcd60e51b815260206004820152601460248201527f66726f6d206973207a65726f2061646472657373000000000000000000000000604482015290519081900360640190fd5b336001600160a01b03841614806114ad5750336000908152600d602052604090205460ff165b806114c757503360009081526001602052604090205460ff165b806114f557506001600160a01b038316600090815260066020908152604080832033845290915290205460ff165b611546576040805162461bcd60e51b815260206004820152601560248201527f72657175697265206d65746120617070726f76616c0000000000000000000000604482015290519081900360640190fd5b611551838383613237565b505050565b826001600160a01b031661156982613044565b6001600160a01b0316146115b0576040805162461bcd60e51b81526020600482015260096024820152683737ba1037bbb732b960b91b604482015290519081900360640190fd5b60006115bf848484600161335f565b90506115ef816115cf57336115d1565b845b8585856001604051806020016040528060008152506001600061379f565b611640576040805162461bcd60e51b815260206004820152601960248201527f65726331313535207472616e736665722072656a656374656400000000000000604482015290519081900360640190fd5b50505050565b600061165182613044565b90506001600160a01b0384166116ae576040805162461bcd60e51b815260206004820152601660248201527f73656e646572206973207a65726f206164647265737300000000000000000000604482015290519081900360640190fd5b336001600160a01b03851614806116d45750336000908152600d602052604090205460ff165b806116ee57503360009081526001602052604090205460ff165b8061171c57506001600160a01b038416600090815260066020908152604080832033845290915290205460ff165b61176d576040805162461bcd60e51b815260206004820152601160248201527f72657175697265206f70657261746f7273000000000000000000000000000000604482015290519081900360640190fd5b836001600160a01b0316816001600160a01b0316146117bf576040805162461bcd60e51b81526020600482015260096024820152683737ba1037bbb732b960b91b604482015290519081900360640190fd5b600082815260076020526040808220805473ffffffffffffffffffffffffffffffffffffffff19166001600160a01b0387811691821790925591518593918516917f8c5be1e5ebec7d5bd14f71427d1e84f3dd0314c0f7b2291e5b200ac8c7c3b92591a450505050565b600061183482612837565b5050603f1c63ffffffff1690565b8483146118805760405162461bcd60e51b8152600401808060200182810382526026815260200180615a876026913960400191505060405180910390fd5b6001600160a01b0387166118db576040805162461bcd60e51b815260206004820152601b60248201527f64657374696e6174696f6e206973207a65726f20616464726573730000000000604482015290519081900360640190fd5b6001600160a01b038816611936576040805162461bcd60e51b815260206004820152601460248201527f66726f6d206973207a65726f2061646472657373000000000000000000000000604482015290519081900360640190fd5b336000818152600d602052604081205460ff16916001600160a01b038b16148061195d5750815b8061197757503360009081526001602052604090205460ff165b806119a557506001600160a01b038a16600090815260066020908152604080832033845290915290205460ff165b9050611a188a8a8a8a8080602002602001604051908101604052809392919081815260200183836020028082843760009201919091525050604080516020808e0282810182019093528d82529093508d92508c91829185019084908082843760009201919091525088925061398b915050565b886001600160a01b03168a6001600160a01b031683611a375733611a39565b8b5b6001600160a01b03167f4a39dc06d4c0dbc64b70af90fd698a233a518aa5d07e595d983b8c0526c8f7fb8b8b8b8b6040518080602001806020018381038352878782818152602001925060200280828437600083820152601f01601f19169091018481038352858152602090810191508690860280828437600083820152604051601f909101601f19169092018290039850909650505050505050a4611b8582611ae35733611ae5565b8a5b8b8b8b8b8080602002602001604051908101604052809392919081815260200183836020028082843760009201919091525050604080516020808f0282810182019093528e82529093508e92508d91829185019084908082843760009201919091525050604080516020601f8e018190048102820181019092528c815292508c91508b9081908401838280828437600092019190915250613ff992505050565b611bd6576040805162461bcd60e51b815260206004820152601960248201527f65726331313535207472616e736665722072656a656374656400000000000000604482015290519081900360640190fd5b50505050505050505050565b611551838383604051806020016040528060008152506126ab565b6001600160a01b03166000908152600c602052604090205460ff1690565b6060838214611c5b5760405162461bcd60e51b8152600401808060200182810382526026815260200180615a876026913960400191505060405180910390fd5b604080518381526020808502820101909152606090838015611c87578160200160208202803883390190505b50905060005b83811015611ceb57611ccc878783818110611ca457fe5b905060200201356001600160a01b0316868684818110611cc057fe5b90506020020135610ef3565b828281518110611cd857fe5b6020908102919091010152600101611c8d565b5095945050505050565b6000611d0082612a53565b611d51576040805162461bcd60e51b815260206004820152601660248201527f746f6b656e20776173206e65766572206d696e74656400000000000000000000604482015290519081900360640190fd5b6c0100000000000000000000000082046001600160a01b038181166000908152600b6020526040902054168015611d8b5791506110969050565b5092915050565b6060611d9d82612a53565b611dee576040805162461bcd60e51b815260206004820152601660248201527f746f6b656e20776173206e65766572206d696e74656400000000000000000000604482015290519081900360640190fd5b6bffffffff80000000000007ff19821660009081526008602052604090205461109390836141e9565b60408051808201909152600f81527f68747470733a2f2f626166796265690000000000000000000000000000000000602082015290565b6000611e5982613044565b90506001600160a01b038116611096576040805162461bcd60e51b815260206004820152601260248201527f4e465420646f6573206e6f742065786973740000000000000000000000000000604482015290519081900360640190fd5b6001600160a01b031660009081526001602052604090205460ff1690565b6000546001600160a01b031690565b60006001600160a01b038216611f40576040805162461bcd60e51b815260206004820152601560248201527f6f776e6572206973207a65726f20616464726573730000000000000000000000604482015290519081900360640190fd5b506001600160a01b031660009081526003602052604090205490565b6000546001600160a01b03163314611fa55760405162461bcd60e51b815260040180806020018281038252602e815260200180615bc3602e913960400191505060405180910390fd5b6001600160a01b0382166000818152600d6020908152604091829020805460ff191685151590811790915582519384529083015280517fb21eb88b4e33b3f1281830a7178d74d8aa73220416215726b68ae23d539515cb9281900390910190a15050565b600061201482612a53565b612065576040805162461bcd60e51b815260206004820152601660248201527f746f6b656e20776173206e65766572206d696e74656400000000000000000000604482015290519081900360640190fd5b6bffffffff80000000000007ff198216600090815260096020526040902080546107ff8416906002600019610100600184161502019091160460048204106120b257600092505050611096565b600082600483048154600181600116156101000203166002900481106120d457fe5b8154600116156120f35790600052602060002090602091828204019190065b9054901a7f01000000000000000000000000000000000000000000000000000000000000000260f81c905060026003808416900381029060049060ff80841690910a16838161213e57fe5b0460ff168161214957fe5b0660ff16945050505050611096565b6000546001600160a01b031633146121b7576040805162461bcd60e51b815260206004820152601b60248201527f6f6e6c792061646d696e2063616e206368616e67652061646d696e0000000000604482015290519081900360640190fd5b600054604080516001600160a01b039283168152918316602083015280517f7e644d79422f17c01e4894b5f4f588d331ebfa28653d42ae832dc59e38c9798f9281900390910190a16000805473ffffffffffffffffffffffffffffffffffffffff19166001600160a01b0392909216919091179055565b6001600160a01b0383166c010000000000000000000000000264ffffffffff831662800000020161ffff8216610800020160009081526008602052604090205415159392505050565b60408051808201909152600581527f4153534554000000000000000000000000000000000000000000000000000000602082015290565b600e546001600160a01b031690565b6122c8338383614351565b5050565b60086020526000908152604090205481565b6000546001600160a01b031633146123275760405162461bcd60e51b815260040180806020018281038252602c815260200180615b75602c913960400191505060405180910390fd5b6001600160a01b038216600081815260016020908152604091829020805460ff191685151590811790915582519384529083015280517f44f92d27abdf4cfb6a7d712c3af68f3be086d4ca747ab802c36f67d6790060d89281900390910190a15050565b6122c8338383613237565b336001600160a01b03841614806123bc5750336000908152600d602052604090205460ff165b806123d657503360009081526001602052604090205460ff165b612427576040805162461bcd60e51b815260206004820152601560248201527f72657175697265206d65746120617070726f76616c0000000000000000000000604482015290519081900360640190fd5b6001600160a01b038316612482576040805162461bcd60e51b815260206004820152601660248201527f73656e646572206973207a65726f206164647265737300000000000000000000604482015290519081900360640190fd5b6001600160a01b0381166124dd576040805162461bcd60e51b815260206004820152601b60248201527f64657374696e6174696f6e206973207a65726f20616464726573730000000000604482015290519081900360640190fd5b6001600160a01b038083166000908152600b602052604090205416806125005750815b816001600160a01b0316816001600160a01b03161415612567576040805162461bcd60e51b815260206004820152600d60248201527f63757272656e74203d3d20746f00000000000000000000000000000000000000604482015290519081900360640190fd5b836001600160a01b0316816001600160a01b0316146125cd576040805162461bcd60e51b815260206004820152601160248201527f63757272656e7420213d2073656e646572000000000000000000000000000000604482015290519081900360640190fd5b826001600160a01b0316826001600160a01b0316141561261f576001600160a01b0383166000908152600b60205260409020805473ffffffffffffffffffffffffffffffffffffffff1916905561265b565b6001600160a01b038381166000908152600b60205260409020805473ffffffffffffffffffffffffffffffffffffffff19169184169190911790555b816001600160a01b0316816001600160a01b0316846001600160a01b03167f1a7f4b0ff7e2dc5eb0864ecd842062dd36fa2daafefc7a017476807ccd73600d60405160405180910390a450505050565b836001600160a01b03166126be83613044565b6001600160a01b031614612705576040805162461bcd60e51b81526020600482015260096024820152683737ba1037bbb732b960b91b604482015290519081900360640190fd5b6127173385858560018660018061379f565b611640576040805162461bcd60e51b815260206004820181905260248201527f6572633732312f65726331313535207472616e736665722072656a6563746564604482015290519081900360640190fd5b600e546001600160a01b031633146127b15760405162461bcd60e51b8152600401808060200182810382526024815260200180615af36024913960400191505060405180910390fd5b6001600160a01b0382166000818152600c6020908152604091829020805460ff191685151590811790915582519384529083015280517f5ecd928ac22825e06273a3e8db8118dd7fe11bd2637ecfe4bfa25154948bd85f9281900390910190a15050565b60006bffffffff800000000000000019821661283081612a53565b9392505050565b60008061284383613044565b6001600160a01b0316141561289f576040805162461bcd60e51b815260206004820152601260248201527f4e465420646f6573206e6f742065786973740000000000000000000000000000604482015290519081900360640190fd5b6bffffffff80000000000000001982166128b881612a53565b6110935760405162461bcd60e51b8152600401808060200182810382526028815260200180615b176028913960400191505060405180910390fd5b600087612947576040805162461bcd60e51b815260206004820152600c60248201527f68617368206973207a65726f0000000000000000000000000000000000000000604482015290519081900360640190fd5b600280547fffffffffffffffffffffffffffffffffffffffffffffffffffffff00000000008116600164ffffffffff92831601918216179091556001600160a01b0386166129dc576040805162461bcd60e51b815260206004820152601b60248201527f64657374696e6174696f6e206973207a65726f20616464726573730000000000604482015290519081900360640190fd5b6129fe8b89838b6001146129f15760016129f4565b60005b60ff166000614534565b9150612a45898989338a878b8b8080601f016020809104026020016040519081016040528093929190818152602001838380828437600092018290525092506145f9915050565b509998505050505050505050565b60006b800000000000000000000000821615612a8057506000818152600460205260409020541515611096565b610800627ff8008316046107ff8316108015612ab957506bffffffff80000000000007ff19821660009081526008602052604090205415155b9050611096565b6001600160a01b03166000908152600d602052604090205460ff1690565b60006001600160a01b038316612b3b576040805162461bcd60e51b815260206004820152601560248201527f6f776e6572206973207a65726f20616464726573730000000000000000000000604482015290519081900360640190fd5b6001600160a01b038216612b96576040805162461bcd60e51b815260206004820152601860248201527f6f70657261746f72206973207a65726f20616464726573730000000000000000604482015290519081900360640190fd5b6001600160a01b0380841660009081526006602090815260408083209386168352929052205460ff16806128305750506001600160a01b031660009081526001602052604090205460ff16919050565b336001600160a01b0384161480612c0c5750336000908152600d602052604090205460ff165b80612c2657503360009081526001602052604090205460ff165b612c77576040805162461bcd60e51b815260206004820152601560248201527f72657175697265206d65746120617070726f76616c0000000000000000000000604482015290519081900360640190fd5b611551838383614351565b60408051808201909152601481527f2e697066732e696e667572612d697066732e696f000000000000000000000000602082015290565b606088612d0d576040805162461bcd60e51b815260206004820152600c60248201527f68617368206973207a65726f0000000000000000000000000000000000000000604482015290519081900360640190fd5b336000908152600c602052604090205460ff16612d71576040805162461bcd60e51b815260206004820152601c60248201527f6f6e6c7920626f756e63657220616c6c6f77656420746f206d696e7400000000604482015290519081900360640190fd5b6001600160a01b038416612dcc576040805162461bcd60e51b815260206004820152601b60248201527f64657374696e6174696f6e206973207a65726f20616464726573730000000000604482015290519081900360640190fd5b6000612e4f8c8a8a8080602002602001604051908101604052809392919081815260200183836020028082843760009201919091525050604080516020601f8e018190048102820181019092528c815292508c91508b9081908401838280828437600081840152601f19601f820116905080830192505050505050508e8e6148dc565b8092508193505050612e98898980806020026020016040519081016040528093929190818152602001838360200280828437600092019190915250899250869150859050614a68565b612f0b3386848c8c8080602002602001604051908101604052809392919081815260200183836020028082843760009201919091525050604080516020601f8d018190048102820181019092528b815292508b91508a9081908401838280828437600092019190915250614aba92505050565b509a9950505050505050505050565b6b800000000000000000000000841615612f8857856001600160a01b0316612f4185613044565b6001600160a01b031614612f88576040805162461bcd60e51b81526020600482015260096024820152683737ba1037bbb732b960b91b604482015290519081900360640190fd5b6000612f968787878761335f565b9050612fea81612fa65733612fa8565b875b8888888888888080601f0160208091040260200160405190810160405280939291908181526020018383808284376000920182905250925082915061379f9050565b61303b576040805162461bcd60e51b815260206004820152601960248201527f65726331313535207472616e736665722072656a656374656400000000000000604482015290519081900360640190fd5b50505050505050565b60009081526004602052604090205490565b610100602082020491600790911690565b604080516024810184905260448082018490528251808303909101815260649091019091526020810180517bffffffffffffffffffffffffffffffffffffffffffffffffffffffff167f6c0f6980000000000000000000000000000000000000000000000000000000001790526122c890614bf4565b600181016020026101000382901c63ffffffff1692915050565b60408051603480825260608281019093528391839082602082018180388339509192507f6162636465666768696a6b6c6d6e6f707172737475767778797a323334353637915050601c600285901b166020811061315057fe5b1a60f81b8183600190039350838151811061316757fe5b60200101906001600160f81b031916908160001a9053506008830492505b81156131f3577f6162636465666768696a6b6c6d6e6f707172737475767778797a32333435363760208406602081106131ba57fe5b1a60f81b818360019003935083815181106131d157fe5b60200101906001600160f81b031916908160001a905350602083049250613185565b949350505050565b60606128308383604051806020016040528060008152506040518060200160405280600081525060405180602001604052806000815250614c15565b6b8000000000000000000000008216156132cf57806001146132a0576040805162461bcd60e51b815260206004820152601560248201527f63616e206f6e6c79206275726e206f6e65204e46540000000000000000000000604482015290519081900360640190fd5b336000908152600d60205260409020546132ca9060ff166132c157336132c3565b835b8484614e29565b611551565b6000811180156132e3575063ffffffff8111155b613334576040805162461bcd60e51b815260206004820152600e60248201527f696e76616c696420616d6f756e74000000000000000000000000000000000000604482015290519081900360640190fd5b336000908152600d60205260409020546115519060ff166133555733613357565b835b848484614f46565b60006001600160a01b0384166133bc576040805162461bcd60e51b815260206004820152601b60248201527f64657374696e6174696f6e206973207a65726f20616464726573730000000000604482015290519081900360640190fd5b6001600160a01b038516613417576040805162461bcd60e51b815260206004820152601460248201527f66726f6d206973207a65726f2061646472657373000000000000000000000000604482015290519081900360640190fd5b50336000818152600d602052604081205460ff16916001600160a01b038716148061343f5750815b8061345957503360009081526001602052604090205460ff165b8061348757506001600160a01b038616600090815260066020908152604080832033845290915290205460ff165b90506b8000000000000000000000008416156136135780806134bf57506000848152600760205260409020546001600160a01b031633145b613510576040805162461bcd60e51b815260206004820152601560248201527f4f70657261746f72206e6f7420617070726f7665640000000000000000000000604482015290519081900360640190fd5b821561360e57826001146135555760405162461bcd60e51b8152600401808060200182810382526023815260200180615a646023913960400191505060405180910390fd5b6001600160a01b0380871660009081526003602090815260408083208054600019019055888416808452818420805460010190558884526004835281842055600790915290205416156135cc576000848152600760205260409020805473ffffffffffffffffffffffffffffffffffffffff191690555b83856001600160a01b0316876001600160a01b03167fddf252ad1be2c89b69c2b068fc378daa952ba7f163c4a11628f55a4df523b3ef60405160405180910390a45b61372d565b80613665576040805162461bcd60e51b815260206004820152601560248201527f4f70657261746f72206e6f7420617070726f7665640000000000000000000000604482015290519081900360640190fd5b821561372d5760008061367786613056565b6001600160a01b038a16600090815260056020908152604080832085845290915290205491935091506136b3908287600163ffffffff61500716565b6001600160a01b03808a166000908152600560208181526040808420888552825280842095909555928b168252825282812085825290915290812054613702918390889063ffffffff61500716565b6001600160a01b03881660009081526005602090815260408083209583529490529290922091909155505b846001600160a01b0316866001600160a01b03168361374c573361374e565b875b6001600160a01b03167fc3d58168c5ae7397731d063d5bbf3d657854427343f4c083240f7aacaa2d0f628787604051808381526020018281526020019250505060405180910390a450949350505050565b60006137b3876001600160a01b0316615133565b6137bf5750600161397f565b6137fd6040518060400160405280600581526020017f524541434800000000000000000000000000000000000000000000000000000081525061516a565b82156138325761380c87615241565b61383257811561382a576138238989898988615309565b905061397f565b50600161397f565b63f23a6e6160e01b7bffffffffffffffffffffffffffffffffffffffffffffffffffffffff1916876001600160a01b031663f23a6e618b8b8a8a8a6040518663ffffffff1660e01b815260040180866001600160a01b03166001600160a01b03168152602001856001600160a01b03166001600160a01b0316815260200184815260200183815260200180602001828103825283818151815260200191508051906020019080838360005b838110156138f55781810151838201526020016138dd565b50505050905090810190601f1680156139225780820380516001836020036101000a031916815260200191505b509650505050505050602060405180830381600087803b15801561394557600080fd5b505af1158015613959573d6000803e3d6000fd5b505050506040513d602081101561396f57600080fd5b50516001600160e01b0319161490505b98975050505050505050565b825160008080808080805b87811015613f335760006b8000000000000000000000008c83815181106139b957fe5b6020026020010151161115613c62578880613a0f5750336001600160a01b0316600760008d84815181106139e957fe5b6020908102919091018101518252810191909152604001600020546001600160a01b0316145b613a60576040805162461bcd60e51b815260206004820152601560248201527f4f70657261746f72206e6f7420617070726f7665640000000000000000000000604482015290519081900360640190fd5b60008a8281518110613a6e57fe5b60200260200101511115613c5d57898181518110613a8857fe5b6020026020010151600114613ace5760405162461bcd60e51b8152600401808060200182810382526023815260200180615a646023913960400191505060405180910390fd5b8c6001600160a01b0316613af48c8381518110613ae757fe5b6020026020010151613044565b6001600160a01b031614613b3b576040805162461bcd60e51b81526020600482015260096024820152683737ba1037bbb732b960b91b604482015290519081900360640190fd5b81806001019250508b6001600160a01b0316600460008d8481518110613b5d57fe5b602002602001015181526020019081526020016000208190555060006001600160a01b0316600760008d8481518110613b9257fe5b6020908102919091018101518252810191909152604001600020546001600160a01b031614613c08576000600760008d8481518110613bcd57fe5b6020026020010151815260200190815260200160002060006101000a8154816001600160a01b0302191690836001600160a01b031602179055505b8a8181518110613c1457fe5b60200260200101518c6001600160a01b03168e6001600160a01b03167fddf252ad1be2c89b69c2b068fc378daa952ba7f163c4a11628f55a4df523b3ef60405160405180910390a45b613f2b565b88613cb4576040805162461bcd60e51b815260206004820152601560248201527f4f70657261746f72206e6f7420617070726f7665640000000000000000000000604482015290519081900360640190fd5b8b6001600160a01b03168d6001600160a01b03161415613cff57613c5d8d8c8381518110613cde57fe5b60200260200101518c8481518110613cf257fe5b6020026020010151615432565b60008a8281518110613d0d57fe5b60200260200101511115613f2b57613d378b8281518110613d2a57fe5b6020026020010151613056565b909750955082613ddd576001600160a01b038d1660009081526005602090815260408083208a84529091529020548a51889450613d8c919088908d9085908110613d7d57fe5b60200260200101516001615007565b6001600160a01b038d1660009081526005602090815260408083208b84529091529020548b51919650613dd69188908d9085908110613dc757fe5b60200260200101516000615007565b9350613f2b565b828714613ed05784600560008f6001600160a01b03166001600160a01b0316815260200190815260200160002060008581526020019081526020016000208190555083600560008e6001600160a01b03166001600160a01b03168152602001908152602001600020600085815260200190815260200160002081905550600560008e6001600160a01b03166001600160a01b031681526020019081526020016000206000888152602001908152602001600020549450600560008d6001600160a01b03166001600160a01b0316815260200190815260200160002060008881526020019081526020016000205493508692505b613efb868b8381518110613ee057fe5b6020026020010151600188615007909392919063ffffffff16565b9450613f28868b8381518110613f0d57fe5b6020026020010151600087615007909392919063ffffffff16565b93505b600101613996565b50600081118015613f5657508a6001600160a01b03168c6001600160a01b031614155b15613f89576001600160a01b03808d1660009081526003602052604080822080548590039055918d168152208054820190555b8515801590613faa57508a6001600160a01b03168c6001600160a01b031614155b15613feb576001600160a01b03808d1660009081526005602081815260408084208b85528252808420899055938f1683529081528282208983529052208390555b505050505050505050505050565b600061400d856001600160a01b0316615133565b614019575060016141df565b6000856001600160a01b031663bc197c8189898888886040518663ffffffff1660e01b815260040180866001600160a01b03166001600160a01b03168152602001856001600160a01b03166001600160a01b03168152602001806020018060200180602001848103845287818151815260200191508051906020019060200280838360005b838110156140b657818101518382015260200161409e565b50505050905001848103835286818151815260200191508051906020019060200280838360005b838110156140f55781810151838201526020016140dd565b50505050905001848103825285818151815260200191508051906020019080838360005b83811015614131578181015183820152602001614119565b50505050905090810190601f16801561415e5780820380516001836020036101000a031916815260200191505b5098505050505050505050602060405180830381600087803b15801561418357600080fd5b505af1158015614197573d6000803e3d6000fd5b505050506040513d60208110156141ad57600080fd5b50516001600160e01b0319167fbc197c8100000000000000000000000000000000000000000000000000000000149150505b9695505050505050565b60606141f4836130f7565b6142016107ff84166154b6565b60405160200180807f697066733a2f2f62616679626569000000000000000000000000000000000000815250600e0183805190602001908083835b6020831061425b5780518252601f19909201916020918201910161423c565b6001836020036101000a038019825116818451168082178552505050505050905001807f2f0000000000000000000000000000000000000000000000000000000000000081525060010182805190602001908083835b602083106142d05780518252601f1990920191602091820191016142b1565b5181516020939093036101000a60001901801990911692169190911790527f2e6a736f6e000000000000000000000000000000000000000000000000000000920191825250604080518083037fffffffffffffffffffffffffffffffffffffffffffffffffffffffffffffffe5018152600590920190529695505050505050565b6001600160a01b0383166143ac576040805162461bcd60e51b815260206004820152601660248201527f73656e646572206973207a65726f206164647265737300000000000000000000604482015290519081900360640190fd5b816001600160a01b0316836001600160a01b03161415614413576040805162461bcd60e51b815260206004820152601160248201527f73656e646572203d206f70657261746f72000000000000000000000000000000604482015290519081900360640190fd5b6001600160a01b03821661446e576040805162461bcd60e51b815260206004820152601860248201527f6f70657261746f72206973207a65726f20616464726573730000000000000000604482015290519081900360640190fd5b6001600160a01b03821660009081526001602052604090205460ff16156144c65760405162461bcd60e51b8152600401808060200182810382526036815260200180615b3f6036913960400191505060405180910390fd5b6001600160a01b03838116600081815260066020908152604080832094871680845294825291829020805460ff1916861515908117909155825190815291517f17307eab39ab6107e8899845ad3d59bd9653f200f220920489ca2b5937696c319281900390910190a3505050565b60008085118015614549575063ffffffff8511155b61459a576040805162461bcd60e51b815260206004820152600e60248201527f696e76616c696420737570706c79000000000000000000000000000000000000604482015290519081900360640190fd5b61ffff8083169084166108000264ffffffffff86166280000002600188146145c35760006145d1565b6b8000000000000000000000005b6001600160a01b038a166c010000000000000000000000000201010101905095945050505050565b6bffffffff80000000000007ff19831681614746576000818152600860205260409020541561466f576040805162461bcd60e51b815260206004820152600f60248201527f696420616c726561647920757365640000000000000000000000000000000000604482015290519081900360640190fd5b6000818152600860205260409020899055600460ff8816106146d8576040805162461bcd60e51b815260206004820152600b60248201527f726172697479203e3d2034000000000000000000000000000000000000000000604482015290519081900360640190fd5b6040805160018082528183019092526060916020820181803883390190505090508760400260f81b8160008151811061470d57fe5b60200101906001600160f81b031916908160001a90535060008281526009602090815260409091208251614743928401906159cb565b50505b87600114156147ae576001600160a01b038516600081815260036020908152604080832080546001019055878352600490915280822083905551869291907fddf252ad1be2c89b69c2b068fc378daa952ba7f163c4a11628f55a4df523b3ef908290a4614821565b6000806147ba86613056565b6001600160a01b038916600090815260056020908152604080832085845290915290205491935091506147f690828c600263ffffffff61500716565b6001600160a01b03881660009081526005602090815260408083209583529490529290922091909155505b60408051858152602081018a905281516001600160a01b0380891693600093918b16927fc3d58168c5ae7397731d063d5bbf3d657854427343f4c083240f7aacaa2d0f629281900390910190a461488086600087878c8860008061379f565b6148d1576040805162461bcd60e51b815260206004820152601160248201527f7472616e736665722072656a6563746564000000000000000000000000000000604482015290519081900360640190fd5b505050505050505050565b6060600080865111614935576040805162461bcd60e51b815260206004820152601460248201527f737570706c6965732e6c656e677468203d3d2030000000000000000000000000604482015290519081900360640190fd5b8551610800101561498d576040805162461bcd60e51b815260206004820152600d60248201527f746f6f2062696720626174636800000000000000000000000000000000000000604482015290519081900360640190fd5b61499887878661558a565b809250819350505060006bffffffff80000000000007ff19836000815181106149bd57fe5b6020026020010151169050600860008281526020019081526020016000205460001c600014614a33576040805162461bcd60e51b815260206004820152600f60248201527f696420616c726561647920757365640000000000000000000000000000000000604482015290519081900360640190fd5b6000818152600860209081526040808320879055600982529091208751614a5c928901906159cb565b50509550959350505050565b60005b8161ffff168551038161ffff161015614a9257614a8a818686866156ef565b600801614a6b565b61ffff821615614ab357614ab38261ffff168651038361ffff1686866157f9565b5050505050565b836001600160a01b031660006001600160a01b0316866001600160a01b03167f4a39dc06d4c0dbc64b70af90fd698a233a518aa5d07e595d983b8c0526c8f7fb8686604051808060200180602001838103835285818151815260200191508051906020019060200280838360005b83811015614b40578181015183820152602001614b28565b50505050905001838103825284818151815260200191508051906020019060200280838360005b83811015614b7f578181015183820152602001614b67565b5050505090500194505050505060405180910390a4614ba385600086868686613ff9565b614ab3576040805162461bcd60e51b815260206004820152601160248201527f7472616e736665722072656a6563746564000000000000000000000000000000604482015290519081900360640190fd5b80516a636f6e736f6c652e6c6f67602083016000808483855afa5050505050565b6060808690506060869050606086905060608690506060869050606081518351855187518951010101016040519080825280601f01601f191660200182016040528015614c69576020820181803883390190505b509050806000805b8851811015614cc257888181518110614c8657fe5b602001015160f81c60f81b838380600101945081518110614ca357fe5b60200101906001600160f81b031916908160001a905350600101614c71565b5060005b8751811015614d1757878181518110614cdb57fe5b602001015160f81c60f81b838380600101945081518110614cf857fe5b60200101906001600160f81b031916908160001a905350600101614cc6565b5060005b8651811015614d6c57868181518110614d3057fe5b602001015160f81c60f81b838380600101945081518110614d4d57fe5b60200101906001600160f81b031916908160001a905350600101614d1b565b5060005b8551811015614dc157858181518110614d8557fe5b602001015160f81c60f81b838380600101945081518110614da257fe5b60200101906001600160f81b031916908160001a905350600101614d70565b5060005b8451811015614e1657848181518110614dda57fe5b602001015160f81c60f81b838380600101945081518110614df757fe5b60200101906001600160f81b031916908160001a905350600101614dc5565b50909d9c50505050505050505050505050565b614e3281613044565b6001600160a01b0316826001600160a01b031614614e83576040805162461bcd60e51b81526020600482015260096024820152683737ba1037bbb732b960b91b604482015290519081900360640190fd5b60008181526004602090815260408083207401000000000000000000000000000000000000000090556001600160a01b0385168084526003909252808320805460001901905551839291907fddf252ad1be2c89b69c2b068fc378daa952ba7f163c4a11628f55a4df523b3ef908390a4604080518281526001602082015281516000926001600160a01b0386811693908816927fc3d58168c5ae7397731d063d5bbf3d657854427343f4c083240f7aacaa2d0f62929181900390910190a4505050565b600080614f5284613056565b6001600160a01b03871660009081526005602090815260408083208584529091529020549193509150614f92908263ffffffff8087169060019061500716565b6001600160a01b038087166000818152600560209081526040808320888452825280832095909555845189815263ffffffff8916918101919091528451919492938b16927fc3d58168c5ae7397731d063d5bbf3d657854427343f4c083240f7aacaa2d0f6292918290030190a4505050505050565b6000808083600281111561501757fe5b141561504a5761502786866130dd565b9050615043868661503e848863ffffffff6158ae16565b615906565b915061512a565b600183600281111561505857fe5b14156150be5761506886866130dd565b9050838110156150a95760405162461bcd60e51b8152600401808060200182810382526022815260200180615ba16022913960400191505060405180910390fd5b615043868661503e848863ffffffff61596e16565b60028360028111156150cc57fe5b14156150dd57615043868686615906565b6040805162461bcd60e51b815260206004820152601160248201527f496e76616c6964206f7065726174696f6e000000000000000000000000000000604482015290519081900360640190fd5b50949350505050565b60007fc5d2460186f7233c927e7db2dcc703c0e500b653ca82273b7bfad8045d85a470823f80158015906131f35750141592915050565b61523e816040516024018080602001828103825283818151815260200191508051906020019080838360005b838110156151ae578181015183820152602001615196565b50505050905090810190601f1680156151db5780820380516001836020036101000a031916815260200191505b5060408051601f198184030181529190526020810180517bffffffffffffffffffffffffffffffffffffffffffffffffffffffff167f41304fac000000000000000000000000000000000000000000000000000000001790529250614bf4915050565b50565b604080517f4e2312e0000000000000000000000000000000000000000000000000000000006024808301919091528251808303909101815260449091018252602081810180517bffffffffffffffffffffffffffffffffffffffffffffffffffffffff167f01ffc9a7000000000000000000000000000000000000000000000000000000001781528251935160008082529485948594909392908183858b612710fa955080519450505050609e5a116152f657fe5b8280156153005750815b95945050505050565b6040517f150b7a02000000000000000000000000000000000000000000000000000000008082526001600160a01b03878116600484019081528782166024850152604484018690526080606485019081528551608486015285516000959389169363150b7a02938c938c938b938b93929160a49091019060208501908083838f5b838110156153a257818101518382015260200161538a565b50505050905090810190601f1680156153cf5780820380516001836020036101000a031916815260200191505b5095505050505050602060405180830381600087803b1580156153f157600080fd5b505af1158015615405573d6000803e3d6000fd5b505050506040513d602081101561541b57600080fd5b50516001600160e01b031916149695505050505050565b60008061543e84613056565b6001600160a01b038716600090815260056020908152604080832085845290915290205491935091508390615479908363ffffffff6130dd16565b1015614ab35760405162461bcd60e51b8152600401808060200182810382526022815260200180615ba16022913960400191505060405180910390fd5b6060816154f7575060408051808201909152600181527f30000000000000000000000000000000000000000000000000000000000000006020820152611096565b8160005b811561550f57600101600a820491506154fb565b6060816040519080825280601f01601f19166020018201604052801561553c576020820181803883390190505b50905060001982015b851561512a57600a860660300160f81b8282806001900393508151811061556857fe5b60200101906001600160f81b031916908160001a905350600a86049550615545565b60606000808451905060608161ffff166040519080825280602002602001820160405280156155c3578160200160208202803883390190505b5090506000805b8361ffff168161ffff1610156156825761ffff821661560e57878161ffff16815181106155f357fe5b6020026020010151600114156156095780840391505b61567a565b878161ffff168151811061561e57fe5b602002602001015160011461567a576040805162461bcd60e51b815260206004820152601e60248201527f4e465473206e65656420746f206265207075742061742074686520656e640000604482015290519081900360640190fd5b6001016155ca565b5080830360005b8461ffff168161ffff1610156156e0576156bd8a8a8361ffff16815181106156ad57fe5b60200260200101518a8585614534565b848261ffff16815181106156cd57fe5b6020908102919091010152600101615689565b50919890975095505050505050565b6000818561ffff168151811061570157fe5b6020026020010151905060008061571783613056565b6001600160a01b03871660009081526005602090815260408083208584529091528120549294509092505b60088110801561575857508751818a61ffff1601105b156157c7576000818a61ffff16019050600189828151811061577657fe5b602002602001015111156157b8576157b18285018a838151811061579657fe5b6020026020010151600286615007909392919063ffffffff16565b92506157be565b506157c7565b50600101615742565b506001600160a01b03909516600090815260056020908152604080832094835293905291909120939093555050505050565b60005b8363ffffffff168161ffff1610156158825760008286830161ffff168151811061582257fe5b6020908102919091018101516000818152600490925260408083206001600160a01b038816908190559051919350839290917fddf252ad1be2c89b69c2b068fc378daa952ba7f163c4a11628f55a4df523b3ef908290a4506001016157fc565b50506001600160a01b03166000908152600360205260409020805463ffffffff90921691909101905550565b81810182811015610f8e576040805162461bcd60e51b815260206004820152600860248201527f6f766572666c6f77000000000000000000000000000000000000000000000000604482015290519081900360640190fd5b6000640100000000821061594b5760405162461bcd60e51b8152600401808060200182810382526023815260200180615aad6023913960400191505060405180910390fd5b5063ffffffff600183016020026101000390811b1984169082901b179392505050565b6000828211156159c5576040805162461bcd60e51b815260206004820152600860248201527f756e6465666c6f77000000000000000000000000000000000000000000000000604482015290519081900360640190fd5b50900390565b828054600181600116156101000203166002900490600052602060002090601f016020900481019282601f10615a0c57805160ff1916838001178555615a39565b82800160010185558215615a39579182015b82811115615a39578251825591602001919060010190615a1e565b50615a45929150615a49565b5090565b61119091905b80821115615a455760008155600101615a4f56fe63616e6e6f74207472616e73666572206e667420696620616d6f756e74206e6f742031496e636f6e73697374656e74206172726179206c656e677468206265747765656e2061726773416d6f756e7420746f20777269746520696e2062696e20697320746f6f206c617267656f6e6c7920626f756e63657241646d696e2063616e206368616e676520697473656c666f6e6c7920626f756e63657241646d696e2063616e20736574757020626f756e636572736e6f20636f6c6c656374696f6e2065766572206d696e74656420666f72207468617420746f6b656e7375706572206f70657261746f722063616e2774206861766520746865697220617070726f76616c466f72416c6c206368616e6765646f6e6c792061646d696e20697320616c6c6f77656420746f20616464207375706572206f70657261746f727363616e277420737562737472616374206d6f7265207468616e2074686572652069736f6e6c792061646d696e2063616e207365747570206d6574615472616e73616374696f6e50726f636573736f7273a265627a7a72305820eeab929dba86ab23a0abee7a5b288be15456ca2825a52711524994c56196bed464736f6c63430005090032",
  "linkReferences": {},
  "deployedLinkReferences": {}
}