{
  "_format": "hh-sol-artifact-1",
  "contractName": "Pausable",
  "sourceName": "contracts/v2/contracts_common/BaseWithStorage/Pausable.sol",
  "abi": [
    {
      "constant": false,
      "inputs": [],
      "name": "unpause",
      "outputs": [],
      "payable": false,
      "stateMutability": "nonpayable",
      "type": "function"
    },
    {
      "constant": true,
      "inputs": [],
      "name": "paused",
      "outputs": [
        {
          "name": "",
          "type": "bool"
        }
      ],
      "payable": false,
      "stateMutability": "view",
      "type": "function"
    },
    {
      "constant": false,
      "inputs": [],
      "name": "pause",
      "outputs": [],
      "payable": false,
      "stateMutability": "nonpayable",
      "type": "function"
    },
    {
      "constant": true,
      "inputs": [],
      "name": "owner",
      "outputs": [
        {
          "name": "",
          "type": "address"
        }
      ],
      "payable": false,
      "stateMutability": "view",
      "type": "function"
    },
    {
      "constant": false,
      "inputs": [
        {
          "name": "_newOwner",
          "type": "address"
        }
      ],
      "name": "transferOwnership",
      "outputs": [],
      "payable": false,
      "stateMutability": "nonpayable",
      "type": "function"
    },
    {
      "anonymous": false,
      "inputs": [],
      "name": "Pause",
      "type": "event"
    },
    {
      "anonymous": false,
      "inputs": [],
      "name": "Unpause",
      "type": "event"
    },
    {
      "anonymous": false,
      "inputs": [
        {
          "indexed": true,
          "name": "previousOwner",
          "type": "address"
        },
        {
          "indexed": true,
          "name": "newOwner",
          "type": "address"
        }
      ],
      "name": "OwnershipTransferred",
      "type": "event"
    }
  ],
  "bytecode": "0x6080604052600080546001600160a81b03191633179055610359806100256000396000f3fe608060405234801561001057600080fd5b50600436106100675760003560e01c80638456cb59116100505780638456cb59146100925780638da5cb5b1461009a578063f2fde38b146100cb57610067565b80633f4ba83a1461006c5780635c975abb14610076575b600080fd5b6100746100fe565b005b61007e610189565b604080519115158252519081900360200190f35b610074610199565b6100a261022b565b6040805173ffffffffffffffffffffffffffffffffffffffff9092168252519081900360200190f35b610074600480360360208110156100e157600080fd5b503573ffffffffffffffffffffffffffffffffffffffff16610247565b60005473ffffffffffffffffffffffffffffffffffffffff16331461012257600080fd5b600054600160a01b900460ff1661013857600080fd5b600080547fffffffffffffffffffffff00ffffffffffffffffffffffffffffffffffffffff1681556040517f7805862f689e2f13df9f062ff482ad3ad112aca9e0847911ed832e158c525b339190a1565b600054600160a01b900460ff1681565b60005473ffffffffffffffffffffffffffffffffffffffff1633146101bd57600080fd5b600054600160a01b900460ff16156101d457600080fd5b600080547fffffffffffffffffffffff00ffffffffffffffffffffffffffffffffffffffff16600160a01b1781556040517f6985a02210a168e66602d3235cb6db0e70f92b3ba4d376a33c0f3d9434bff6259190a1565b60005473ffffffffffffffffffffffffffffffffffffffff1681565b60005473ffffffffffffffffffffffffffffffffffffffff16331461026b57600080fd5b61027481610277565b50565b73ffffffffffffffffffffffffffffffffffffffff811661029757600080fd5b6000805460405173ffffffffffffffffffffffffffffffffffffffff808516939216917f8be0079c531659141344cd1fd0a4f28419497f9722a3daafe3b4186f6b6457e091a3600080547fffffffffffffffffffffffff00000000000000000000000000000000000000001673ffffffffffffffffffffffffffffffffffffffff9290921691909117905556fea265627a7a72305820a07e55ff0d684e5327442ff86ce20711c23a43f9d5168aa69470847ff77686f964736f6c63430005090032",
  "linkReferences": {},
  "deployedLinkReferences": {}
}